:020000040800F2
:10000000704E0024C1020008D12A00087928000897
:10001000C92A000809040008593C00080000000033
:10002000000000000000000000000000A12D0008FA
:100030001104000800000000E12A0008C92E000891
:10004000DF020008DF020008DF020008DF0200080C
:10005000DF020008DF020008DF020008DF020008FC
:10006000DF020008DF020008DF020008DF020008EC
:10007000DF020008DF020008DF020008DF020008DC
:10008000DF020008DF020008DF020008DF020008CC
:10009000DF020008DF020008DF020008DF020008BC
:1000A000DF020008DF020008DF020008DF020008AC
:1000B000DF020008DF020008DF020008DF0200089C
:1000C000DF020008DF020008DF020008DF0200088C
:1000D000DF020008DF020008DF020008DF0200087C
:1000E00019040008DF020008DF020008DF02000830
:1000F000DF020008DF020008DF020008DF0200085C
:10010000DF020008DF020008DF020008DF0200084B
:10011000DF020008DF02000899300008DF02000853
:10012000DF020008DF020008DF020008DF0200082B
:10013000DF0200080000000000000000DF020008ED
:10014000DF020008DF020008DF020008DF0200080B
:10015000DF020008DF020008DF020008DF020008FB
:10016000DF020008DF020008DF020008DF020008EB
:10017000DF020008DF020008DF02000800000000C4
:10018000DF020008DF020008DF020008DF020008CB
:10019000DF020008DF020008DF020008DF020008BB
:1001A000DF020008DF020008DF020008DF020008AB
:1001B000DF020008DF020008DF020008DF0200089B
:1001C000DF020008DF02000800000000000000005D
:1001D0000000000000000000DF0200080000000036
:1001E000000000000000000000000000000000000F
:1001F0000000000000000000DF020008DF0200082D
:10020000DF020008DF02000800000000DF02000833
:10021000DF020008DF020008DF020008DF0200083A
:10022000DF020008DF020008DF0200080000000013
:10023000DF020008DF02000800000000DF02000803
:10024000DF020008DF020008DF020008DF0200080A
:10025000DF020008DF020008DF020008DF020008FA
:10026000DF020008DF020008DF020008DF020008EA
:10027000DF020008DF020008DF02000800000000C3
:10028000DF020008DF02000800000000DF020008B3
:1002900000000000DF020008DF020008000000008C
:1002A00000000000DF020008DF020008DFF80CD0C9
:1002B00000F090F800480047813C0008704E002490
:1002C000074880470748804707480047FEE7FEE7A2
:1002D000FEE7FEE7FEE7FEE7FEE7FEE7FEE7FEE7F6
:1002E00029040008C12F0008AD0200082DE9F05FC5
:1002F0000546002092469B46884606468146402495
:100300001BE0284641464746224600F053F8534634
:100310005A46C01A914110D311461846224600F0A1
:100320003AF82D1A67EB01084F46224601200021BA
:1003300000F031F817EB00094E41201EA4F1010432
:10034000DFDC484631462A464346BDE8F09F40EA96
:1003500001039B0703D009E008C9121F08C0042A43
:10036000FAD203E011F8013B00F8013B521EF9D22A
:100370007047D2B201E000F8012B491EFBD2704752
:100380000022F6E710B513460A4604461946FFF761
:10039000F0FF204610BD202A04DB203A00FA02F1CB
:1003A000002070479140C2F1200320FA03F3194363
:1003B00090407047202A04DB203A21FA02F0002105
:1003C000704721FA02F3D040C2F120029140084365
:1003D000194670471CB50948009009480190054628
:1003E000009C06E0E06840F0010394E807009847AD
:1003F0001034AC42F6D3FFF75DFF00003067000811
:100400005067000800000000FEE700000000000048
:1004100070470000000000004FF4005000F06CB87E
:1004200072B600BFFEE7000044F60400C5F6020005
:10043000816821F0020181600168890409D40168A2
:1004400089045CBF01685FEA814102D401688904C4
:10045000F2D5704700000000B0B5044600F04CF93A
:1004600040F204010546C2F20041621C097818BF3F
:100470000C4400BF00F040F9401BA042FAD3B0BDCD
:10048000B0F5005F18BF704710B582B040F2180198
:100490000120C2F20041ADF80600002200230868E6
:1004A0000DF1060103F0E0FC0AA006F039F8322055
:1004B000FFF7D2FF40F60004C5F602044FF40051E6
:1004C000204600F009F90028F8D002B0BDE810403D
:1004D000704700BF5B42544E5D204E46432061632F
:1004E0007469766174696F6E206576656E742073C9
:1004F000656E7400000000008821C5F600010A68DE
:10050000024208BF70470860FFF7BABF0000000052
:100510002DE9F04F82B00D68002D00F0D98000F178
:10052000264242F2004702F1FF728305C5F6020738
:100530000A26B84243EA922208BF0926092A4FF048
:10054000000E38BF16460027009600260AE000BFBE
:1005500001360D6835FA06F207F102070EF1040EB6
:1005600000F0B680012202FA06F315EA0308EFD084
:10057000D1F80490032209F0030A02FA07F4AAF161
:100580000105012D14D8D0F808B0D1E902C52BEA35
:10059000040BBD4045EA0B058560C9F30015D0F892
:1005A00004B02BEA0303B5402B43436008E000BFCF
:1005B000D1F808C0BAF1030F08BFBCF1010F25D074
:1005C000C3684FEA460BE243A3430CFA07F4BAF1BF
:1005D000020F43EA0403C3601ED16FF003030EF061
:1005E0001C0403EA56030F25034405FA04F9D3F863
:1005F00020C00D692CEA090C05FA04F444EA0C0544
:100600001D62D1F8049009F0030A05E04FF0030AD7
:10061000BB460AFA07F3DA4303680AFA0BF51340FC
:1006200019F4403F43EA0503036091D044F2545269
:1006300040F20849C5F60202C5F60009136843F006
:100640000203136013680F2203F00203019326F0E4
:100650000303019D0EF00C0553F809C002FA05F4DE
:10066000009A2CEA040402FA05F54FF0B04C254339
:1006700043F80950DCF800304D6843EA0804EA0208
:1006800058BF23EA0804CCF8004040F2040CC5F639
:10069000000CAC02DCF8002042EA080358BF22EA52
:1006A0000803AC03CCF80030DCF8802042EA0803F1
:1006B00058BF22EA0803ED03CCF88030DCF87C2038
:1006C00042EA080358BF22EA0803CCF87C303FE72F
:1006D00002B0BDE8F08F00000069084018BF01209B
:1006E0007047000000000000002A08BF0904816173
:1006F000704700000000000044F27030C2F2004079
:10070000006870470000000040F2040044F27031BD
:10071000C2F20040C2F2004100780A68104408604A
:10072000704700000000000080B5032000F030F9A1
:1007300001F012FA44F2184146F25053C5F6020194
:10074000C0F600030A68C2F303229A5C096801F04C
:100750000F0102F01F02595CD04040F21002C2F2B9
:10076000004201F01F0120FA01F1116040F20C017A
:10077000C2F2004108600F2000F00AF800281CBFF8
:10078000012080BD00F0A8F8002080BD000000001E
:100790000F2847D8B0B58AB004463620002221463B
:1007A000002500F0C5F8362000F0AEF840F2080051
:1007B000C2F20040046044F24850C5F602000168ED
:1007C00041F010010160006801A900F010000290E2
:1007D000029802A801F00CF9079C002C18BF012414
:1007E00001F05AF94DF68361A040C4F21B3141F289
:1007F0000002A0FB010140F23C10C2F200404FF0A9
:10080000FF33C4F20002026003EB9141C0E901151D
:1008100040F2E731C0E9031501F0FEFC20B10120F0
:100820000AB0B0BD0120704740F23C10C2F2004057
:1008300001F026FD0AB0B0BD10B54EF6A05E4178BD
:10084000CEF2000E90F800C04EF8081CDEF8001042
:1008500021F00101CEF8001041684EF8041C017B24
:10086000C37A827A447B1B0643EA0171837B41EAA7
:10087000C241C27B41EA8441447A41EA4341007A61
:1008800041EA024141EA042141EA400040EA0C0009
:10089000CEF8000010BD00004EF62450CEF200004D
:1008A000BFF35F8F016821F480310160002101678F
:1008B00070470000000000004EF6245140F0010097
:1008C000CEF200010867086840F480300860BFF38A
:1008D0004F8FBFF36F8F704781B044F254500022A6
:1008E000C5F60200016841F00201016000680F21B5
:1008F00000F0020000906FF00100009B01B000F0DA
:1009000017B8000000000000002848BF704700F042
:100910001F01012202FA01F14EF20012C0F34A1047
:10092000CEF2000242F820107047000000000000E4
:1009300070B54EF60C5C4FF0FF36CEF2000C00F1B5
:10094000604505F56445DCF80030C3F3022E8EF0F7
:100950000703042B28BF0423BEF1030406FA03F3A4
:1009600021EA030100F00F0338BF0024043B0028F4
:10097000634406FA04F048BF03F10C05A14022EAE3
:10098000000008430001287070BD00000000000056
:100990004EF60C514FF6FF03CEF200010A681A40E2
:1009A00060F30A2242F0806040F0FD7008607047FA
:1009B00070B544F60C060446C5F602063168306888
:1009C00001F00701062913D120F03F0020433060D9
:1009D000FFF792FE054600BF56F8080C80040DD4C0
:1009E000FFF78AFE401BB0F57A7FF5D91DE000BF06
:1009F00000F03F00001B18BF012070BDA4F11D01D5
:100A00000020112912D8012202FA01F111F0031F6E
:100A10000CD0FFF771FE04463068C00308D4FFF71E
:100A20006BFE001BB0F57A7FF6D9012070BD00BFC8
:100A3000002070BD0000000080B501F005F844F210
:100A4000204146F25052C5F60201C0F60002096884
:100A5000C1F30211515C01F01F01C84080BD0000CC
:100A600080B544F2384EC5F6020E5EF8103C5EF8D2
:100A7000101C5EF80C2CC1F3053CDEF80410BCF130
:100A8000000F15D0C908D20601EAE2716FF35F3199
:100A900000EE101A03F003010229B8EE400A0DD04F
:100AA00081B95EF8381C890610D49FED361A1BE018
:100AB00000218160C0E9001180BD00BF9FED301AA8
:100AC00012E000BF9FED2D1A0EE000BF5EF8381C4B
:100AD00049F20002C0F2D032C1F3C10122FA01F1A1
:100AE00001EE101AB8EE411ADEF800109FED263A1A
:100AF0006FF35F2102EE101ADEF80010C1F34621F9
:100B0000B8EE422A00EE032A00EE10CAB7EE003A11
:100B1000B8EE400A81EE000A32EE031A02EE101A15
:100B2000B8EE422A20EE010A32EE031A80EE011AD4
:100B3000BCEEC11A80ED001ADEF80010C1F30641C8
:100B400001EE101AB8EE411A31EE031A80EE011AC6
:100B5000BCEEC11A80ED011ADEF80010C1F3066187
:100B600001EE101AB8EE411A31EE031A80EE010AB6
:100B7000BCEEC00A10EE101A816080BD0024744AD9
:100B80000024F44A0024744C0000003900000000E6
:100B900080B544F2404EC5F6020E5EF8183C5EF891
:100BA000181C5EF8142CC1F3055CDEF80410BCF1CF
:100BB000000F15D0C908D20501EAE2716FF35F3169
:100BC00000EE101A03F003010229B8EE400A0DD01E
:100BD00081B95EF8401C890610D49FED361A1BE0DF
:100BE00000218160C0E9001180BD00BF9FED301A77
:100BF00012E000BF9FED2D1A0EE000BF5EF8401C12
:100C000049F20002C0F2D032C1F3C10122FA01F16F
:100C100001EE101AB8EE411ADEF800109FED263AE8
:100C20006FF35F2102EE101ADEF80010C1F34621C7
:100C3000B8EE422A00EE032A00EE10CAB7EE003AE0
:100C4000B8EE400A81EE000A32EE031A02EE101AE4
:100C5000B8EE422A20EE010A32EE031A80EE011AA3
:100C6000BCEEC11A80ED001ADEF80010C1F3064197
:100C700001EE101AB8EE411A31EE031A80EE011A95
:100C8000BCEEC11A80ED011ADEF80010C1F3066156
:100C900001EE101AB8EE411A31EE031A80EE010A85
:100CA000BCEEC00A10EE101A816080BD0024744AA8
:100CB0000024F44A0024744C0000003900000000B5
:100CC0002DE9F0470446C07844F22C480007C5F6E9
:100CD000020833D5E06E4FEA305103290CD8DFE823
:100CE00001F003111D2600BFD8F8001041F40031B7
:100CF000C8F800101BE000BF01266078C0070BD0C9
:100D000020E000BF04F10800022101F01DFF0646AB
:100D100060B16078C00715D1354646E004F128007F
:100D2000022101F0A5FF06460028F2D1E06ED8F8B6
:100D3000241021F440110843C8F8240000266078EC
:100D4000C007E9D0A06D04280ED83546DFE800F0D2
:100D50000412181E1E0000BFD8F80000354640F4EB
:100D60000030C8F8000011E00125012760788007F5
:100D70001FD452E004F10800002101F0E5FE04E078
:100D800004F12800002101F073FF05462F461DB134
:100D9000607880070DD440E0D8F82400A16D20F0E1
:100DA000070000250843C8F824003746607880070C
:100DB00033D5E06D4FEAB01005280DD8DFE800F01C
:100DC0000412181E1E1E00BFD8F8000040F40030A8
:100DD000C8F8000012E000BF012501266078400736
:100DE0001FD452E004F10800002101F0ADFE04E040
:100DF00004F12800002101F03BFF05462E461DB1FD
:100E0000607840070DD440E0D8F82400E16D20F46C
:100E1000E07000250843C8F824003E46607840078B
:100E200033D5206E4FEA702005280DD8DFE800F09A
:100E30000412181E1E1E00BFD8F8000040F4003037
:100E4000C8F8000012E000BF01250127E078800704
:100E50001FD44CE004F10800002101F075FE04E00D
:100E600004F12800002101F003FF05462F461DB1C3
:100E7000E07880070DD43AE0D8F82400216E20F401
:100E8000606000250843C8F824003746E0788007F2
:100E90002DD5E06C4FEA301003280DD8DFE800F0C4
:100EA00008021208D8F8000040F40030C8F800002A
:100EB0002E467DB912E000BF012501266078C006EC
:100EC00019D44CE004F10800022101F03DFE054672
:100ED0002E461DB16078C0060DD440E0D8F8200041
:100EE000E16C20F0300000250843C8F820003E46A1
:100EF0006078C00633D5606E4FEA303004280DD8D4
:100F0000DFE800F00412181E1E0000BFD8F8000031
:100F100040F40030C8F8000012E000BF01250127AE
:100F2000607880061FD44EE004F10800002101F033
:100F30000BFE04E004F12800002101F099FE0546B3
:100F40002F461DB1607880060DD43CE0D8F824000F
:100F5000616E20F4E04000250843C8F824003746BD
:100F6000607880062FD5A06E4FEA3040052809D85A
:100F7000DFE800F0040E1404040400BF2E46ADB9EF
:100F800018E000BF01250126607840061FD451E01B
:100F900004F10800012101F0D7FD04E004F128006C
:100FA000012101F065FE05462E461DB16078400620
:100FB0000DD43FE0D8F82400A16E20F4E0200025F5
:100FC0000843C8F824003E466078400632D5D4F87D
:100FD000B0004FEA307006280AD8DFE800F0050FAD
:100FE00015050505050000BF2F46ADB918E000BF87
:100FF000012501276078000620D442E004F10800B2
:10100000012101F0A1FD04E004F12800012101F01B
:101010002FFE05462F461DB1607800060ED430E045
:10102000D8F82C00D4F8B01020F0E0400025084398
:10103000C8F82C0037466078000622D5A06F58B15A
:10104000B0F1005F0CD0B0F1805F2FD1D8F8000074
:1010500040F40030C8F800002E469DB908E000BFFB
:1010600004F10800012101F06FFD05462E464DB93F
:10107000D8F82400A16F20F0405000250843C8F89C
:1010800024003E46E078C00733D0A06C032813D874
:10109000DFE800F008021A08D8F8000040F4003039
:1010A000C8F80000A946BDB91AE000BF0125012615
:1010B000E078C007E9D11CE001254FF00109A078D4
:1010C00040061AD51CE000BF04F10800022101F01F
:1010D0003BFD0546A9461DB1A07840060DD50FE0A1
:1010E000D8F82000A16C20F0030000250843C8F8C0
:1010F0002000B146A078400602D44F4618E000BF59
:10110000D8F8D40340F48070C8F8D403FFF7F4FA99
:10111000064600BFD8F8D403C00507D4FFF7ECFAA1
:10112000801B6428F6D90325032701E02F468DB1E3
:101130002078C00762D0D4F884004FEAF000052878
:101140003AD8DFE800F0033F45030303002D2E46A5
:1011500046D149E0D8F84410D4F8B400414011F425
:10116000407F11D0D8F84410D8F8442042F480329F
:10117000C8F84420D8F8442021F4407122F4803289
:10118000C8F84420C8F84410B0F5807F40F0E082F1
:10119000FFF7B2FA064641F2883A0325032700BF5B
:1011A000D8F84400800700F1D182FFF7A5FA801B30
:1011B0005045F5D9BCE700BF0125012620788007FE
:1011C00020D44FE004F10800012101F0BDFC04E04F
:1011D00004F12800012101F04BFD05462E461DB10A
:1011E000207880070ED43DE0D8F82800D4F8841089
:1011F00020F0380000250843C8F828003E46207833
:1012000080072FD5D4F88000052809D8DFE800F042
:10121000040E1404040400BF2F46ADB918E000BF4B
:10122000012501272078400720D44FE004F1080071
:10123000012101F089FC04E004F12800012101F002
:1012400017FD05462F461DB1207840070ED43DE01E
:10125000D8F82800D4F8801020F0070000250843B3
:10126000C8F828003746207840072FD5D4F89C00CE
:10127000052809D8DFE800F0040E1404040400BFB8
:101280002E46ADB918E000BF012501262078800662
:1012900020D451E004F10800012101F055FC04E0E4
:1012A00004F12800012101F0E3FC05462E461DB1A2
:1012B000207880060ED43FE0D8F82C00D4F89C109B
:1012C00020F0070000250843C8F82C003E4620788F
:1012D000800631D5D4F898004FEA3070052809D837
:1012E000DFE800F0040E1404040400BF2F46ADB97B
:1012F00018E000BF012501272078400620D451E0E6
:1013000004F10800002101F01FFC04E004F12800B2
:10131000022101F0ADFC05462F461DB120784006A4
:101320000ED43FE0D8F82800D4F8981020F0E04020
:1013300000250843C8F8280037462078400631D5F4
:10134000D4F8A4004FEAB020052809D8DFE800F05F
:10135000040E1404040400BF2E46ADB918E000BF0B
:10136000012501262078000620D454E004F108006D
:10137000002101F0E9FB04E004F12800022101F062
:1013800077FC05462E461DB1207800060ED442E0BB
:10139000D8F82C00D4F8A41020F4E050002508431D
:1013A000C8F82C003E462078000634D5D4F8A800B2
:1013B0004FEA703005280FD8DFE800F004141A0453
:1013C000040400BF2F46E5B12068010727D4C106F9
:1013D0003ED4000355D475E001250127206801079C
:1013E000F5D51CE004F10800002101F0ADFB04E09C
:1013F00004F12800022101F03BFC0546002D2F4698
:10140000E2D1D8F82C00D4F8A81020F460400025D0
:101410000843C8F82C00374620680107D7D5D4F810
:101420008C00B0F5805F09D104F12800022101F0A1
:101430001FFC002818BF0127D4F88C00D8F828100A
:1014400021F440510843C8F828002068C106C0D5DF
:10145000D4F8A000B0F5807F09D104F12800022162
:1014600001F006FC002818BF0127D4F8A000D8F826
:101470002C1021F440710843C8F82C0020680003A8
:1014800020D5D4F8AC00B0F5003F0FD0B0F5803FC8
:1014900006D078BB04F10800002101F055FB04E000
:1014A00004F12800022101F0E3FB05462E4655B960
:1014B000D8F82C00D4F8AC1020F4403000250843B4
:1014C000C8F82C003E46A07840072BD5D4F89000F1
:1014D000B0F5401F0BD0B0F5001F11D0B0F5801F44
:1014E0002AD1D8F8000040F40030C8F800002F4698
:1014F000CDB90DE001250126A0784007E6D411E022
:1015000004F12800012101F0B3FB05462F4655B92F
:10151000D8F82800D4F8901020F440100025084393
:10152000C8F828003746A078C0070AD13E4621688F
:10153000880016D533E000BF01250127A078C00739
:10154000F4D0206DB0F5803F10D018BBD8F8000063
:1015500040F40030C8F800002E4685B121688800AC
:101560001DD460688A0326D469E000BF04F1080036
:10157000022101F0E9FA0546002D2E46EED1D8F8F9
:101580002000216D20F4803000250843C8F8200099
:10159000CCE700BF0125012621688800E1D504F1D0
:1015A0002800022101F064FB002818BF0126D4E9BD
:1015B00000108A0343D5D4F888206FF0010303EBB1
:1015C0003223022B0BD34FEA322343B1012B40F0DD
:1015D000B780D8F8003043F40033C8F800303DB38A
:1015E000CA022FD48A0237D40A053FD44A0047D40E
:1015F000CA0F54D109025CD4C10765D181076ED4EA
:10160000410778D4010700F18280C10600F18B8088
:10161000800607D504F12800022101F029FB0028EB
:1016200018BF0125002D18BF01252846BDE8F08709
:10163000D8F8283023F440731A43C8F828203546D8
:10164000CA02CFD5D8F82420E36F22F000421A4313
:10165000C8F824208A02C7D5D8F82420236F22F0A6
:1016600080721A43C8F824200A05BFD5D8F82C2068
:10167000636F22F000621A43C8F82C204A00B7D5E5
:1016800058F81C2C22F4004248F81C2CD4F8B8203E
:1016900058F81C3C1A4348F81C2CCA0FAAD0D8F89A
:1016A0002020636D22F040521A43C8F8202009021E
:1016B000A2D5D8F82810D4F8942021F44001114381
:1016C000C8F82810C10799D004F10800002101F0E2
:1016D0003BFA002818BF05466068810790D504F1E1
:1016E0000800012101F030FA002818BF05466068A3
:1016F00041077FF587AF04F10800022101F024FAC9
:10170000002818BF0546606801077FF57EAF04F129
:101710002800002101F0ACFA002818BF05466068D7
:10172000C1067FF575AF04F12800012101F0A0FA90
:10173000002818BF0546606880063FF56BAF71E76B
:101740000125CA027FF54EAF7CE700BFD4F8B40094
:101750004FF6CF7358F81C2CC0F2FF0300F4407111
:1017600022F47C5203EA10136FF31F30B1F5407F6F
:1017700008BF1A43002548F81C2CD8F84410084329
:10178000C8F84400FFF7B9BC2DE9F04381B0002848
:1017900000F02A8142F200080446C5F2002889467A
:1017A000D8F8000000F00F0088420ED2D8F80000F0
:1017B00020F00F0040EA0900C8F80000D8F8000047
:1017C00000F00F00484540F00F81206844F21847B0
:1017D0004107C5F602070AD521693A6802F070028E
:1017E000914204D93A6822F070021143396001072E
:1017F0000AD561697A6802F07002914204D97A6868
:1018000022F0700211437960C1060AD5A1697A6895
:1018100002F4E062914204D97A6822F4E062114352
:10182000796081060AD5E169BA6802F070029142D6
:1018300004D9BA6822F070021143B96010F00201B5
:101840000AD0E2683B6803F00F039A4204D93B6870
:1018500023F00F031A433A60C20746D03968D4E92F
:10186000010221F47061012841EA0201396009D0C6
:1018700003280DD0022811D157F8181C890312D45F
:10188000B2E000BF57F8181CC9050CD4ACE000BF8B
:1018900057F8181C890106D4A6E000BF57F8181C99
:1018A000490740F1A18057F8081C21F007010843BF
:1018B00047F8080CFEF720FF064641F2883500BFC6
:1018C00057F8080C616800F03800B0EBC10F09D080
:1018D000FEF712FF801BA842F2D9032001B0BDE839
:1018E000F08300BF206800F0020151B1E1683A685E
:1018F00002F00F02914204D23A6822F00F02114323
:101900003960D8F8001001F00F0149450DD9D8F819
:10191000001021F00F0141EA0901C8F80010D8F8C1
:10192000001001F00F0149455ED141070AD5216938
:101930003A6802F07002914204D23A6822F07002D2
:101940001143396001070AD561697A6802F07002B3
:10195000914204D27A6822F0700211437960C10684
:101960000AD5A1697A6802F4E062914204D27A68E9
:1019700022F4E0621143796080060AD5E069B96813
:1019800001F07001884204D2B96821F07001084367
:10199000B86000F0E1F8396846F25052C0F6000233
:1019A000C1F30321515C3B6803F00F0301F01F01F9
:1019B000D25C20FA01F102F01F0040F21002C2F2E4
:1019C000004221FA00F0106040F2080040F20C02E0
:1019D000C2F20040C2F200420068116001B0BDE8EE
:1019E000F043FEF7D5BE00BF012001B0BDE8F08393
:1019F0003F22026044F21842C5F6020252F8083C47
:101A000003F007034360136803F470638360136893
:101A100003F00F03C360136803F07003036153689E
:101A200003F070034361536803F4E06383619268D9
:101A300002F07002C26142F20000C5F200200068AC
:101A400000F00F000860704780B500F085F844F2A0
:101A5000184146F25053C5F60201C0F600030A6869
:101A6000C2F303229A5C096801F00F0102F01F0221
:101A7000595C20FA02F201F01F0040F21001C2F29C
:101A8000004122FA00F0086040F20C01C2F200416D
:101A90000A6080BD0000000080B500F05DF844F2EF
:101AA000184C46F25053C5F6020CC0F60003DCF8A1
:101AB0000020C2F303229A5CDCF8001001F00F0151
:101AC00002F01F02595CD04040F21002C2F2004204
:101AD00001F01F0120FA01F1116040F20C02C2F284
:101AE00000421060DCF80400C0F30210185C00F043
:101AF0001F0021FA00F080BD80B500F02DF844F2FF
:101B0000184C46F25053C5F6020CC0F60003DCF840
:101B10000020C2F303229A5CDCF8001001F00F01F0
:101B200002F01F02595CD04040F21002C2F20042A3
:101B300001F01F0120FA01F1116040F20C02C2F223
:101B400000421060DCF80400C0F30220185C00F0D2
:101B50001F0021FA00F080BD44F20041C5F60201E9
:101B60000869C0F3C200032810D002282ED098BB09
:101B70000868800649F20000C0F2D03058BF7047B4
:101B80000968C1F3C101C840704700BF8A6A886A0A
:101B9000C0F3051CC86ABCF1000F4B6B22D000F0EB
:101BA000010002F003024042022A00EAD3006FF370
:101BB0005F3000EE100AB8EE400A15D0C2B90868CE
:101BC000800619D49FED281A23E000BF41F20020BF
:101BD000C0F27A00704700BF40F60010C0F23D002E
:101BE000704700BF002070479FED1E1A11E000BF34
:101BF0009FED1B1A0DE000BF086849F20002C0F219
:101C0000D032C0F3C10022FA00F001EE100AB8EEA3
:101C1000411A086B9FED153A6FF35F2002EE100A30
:101C2000086BC0F34620B8EE422A013000EE032ACA
:101C300000EE10CAB7EE003AB8EE400A81EE000A94
:101C400032EE031A20EE010A01EE100AB8EE411A34
:101C500080EE010ABCEEC00A10EE100A704700BF09
:101C60000024744A0024F44A0024744C0000003913
:101C700070B3F0B581B00446007844F20046C00766
:101C8000C5F6020626D12078800774D5306910F099
:101C90003801B06A3ED0182908BF5FEA807039D099
:101CA000E0683168002800F0358121F0190108430F
:101CB0003060FEF721FD05463068400754D4FEF73A
:101CC0001BFD401B0228F7D9032001B0F0BD00BF67
:101CD00001207047306900F03801B06A102905D042
:101CE00018290BD100F00300022807D130688003C7
:101CF000C9D560680028C6D1B4E000BF6068B0F5FF
:101D0000A02F23DA002800F06981B0F5803F00F0B1
:101D100089818BE130684007E06802D5002800F037
:101D2000A180316821F0190108433060FEF7E4FC1E
:101D3000054600BF3068400716D4FEF7DDFC401BA7
:101D400002284FF00300F5D901B0F0BD00F0628128
:101D5000B0F5A81F40F06A81306840F48020306000
:101D6000306840F480105CE17068216920F0FE402A
:101D700040EA016070602078C0061AD5306900F032
:101D80003801B06A082907D0182940F0858000F092
:101D90000300012840F080803068C00502D5E0696A
:101DA00080285FD1F068216A20F07C5040EA016011
:101DB000F060207800073FD42078800656D4207841
:101DC000400700F17F80656A9DB3306900F03800FC
:101DD000182840F0E180012DB16A306B42D001F04B
:101DE0000302A36A9A423DD1C1F30511E26A91420E
:101DF00038D10146226B6FF35F21013A914231D114
:101E0000C0F34622616B01398A422BD1C0F30642EE
:101E1000A16B01398A4225D1C0F30660E16B01391B
:101E200088421FD1706BA16CC0F3CC00814240F09E
:101E3000CD81002001B0F0BD60690028706F57D0DF
:101E400040F001007067FEF757FC0546706F800791
:101E5000B2D4FEF751FC401B0228F7D9032001B091
:101E6000F0BD00BF012001B0F0BD00BFA069002897
:101E700030686DD040F480503060FEF73DFC054680
:101E8000306880049BD4FEF737FC401B0228F7D94A
:101E9000032001B0F0BD00BFE0690028306869D0C0
:101EA00040F080003060FEF727FC05463068C00532
:101EB0003FF578AFFEF720FC401B02284FF00300EF
:101EC000F4D941E7D6F8000440F48070C6F8000465
:101ED000FEF712FC054600BFD6F80004C0052BD45F
:101EE000FEF70AFC401B6428F6D9032001B0F0BDC0
:101EF00020F001007067FEF7FFFB0546706F80075A
:101F00007FF55AAFFEF7F8FB401B02284FF00300A5
:101F1000F4D919E721F001003060FEF7EDFB05462A
:101F2000306840077FF527AFFEF7E6FB401B02282D
:101F30004FF00300F4D907E7A068042800F392806B
:101F4000002800F09B80012800F0BE80C0E000BFA8
:101F500020F480503060FEF7CFFB054630688004E7
:101F60007FF52DAFFEF7C8FB401B02284FF00300A2
:101F7000F4D9E9E620F080003060FEF7BDFB0546AD
:101F80003068C0057FF515AFFEF7B6FB401B022891
:101F90004FF00300F4D9D7E6306820F0807030604D
:101FA000FEF7AAFB022D05460CD100BF3068800168
:101FB00040F1AC80FEF7A0FB401B02284FF003006D
:101FC000F4D9C1E6306880017FF533AFFEF794FBAA
:101FD000401B02284FF00300F4D9B5E6306820F426
:101FE00080303060306820F480103060306820F439
:101FF00080203060FEF780FB054600BF306880031C
:102000007FF541AEFEF778FB401B64284FF00300DC
:10201000F4D999E6306840F480203060306820F4CC
:1020200080103060306840F480300AE0306820F47E
:1020300080303060306820F480203060306820F4D8
:1020400080103060FEF758FB054600BF3068800303
:102050003FF519AEFEF750FB401B6428F6D903206C
:1020600001B0F0BD052827D0852831D1306F40F070
:1020700004003067306F40F0800024E0306F20F0C3
:1020800001003067306F20F080003067306F20F043
:1020900004003067FEF730FB054641F28837306FA9
:1020A00080077FF590AEFEF727FB401BB8424FF04C
:1020B0000300F4D948E600BF306F40F004003067F9
:1020C000306F20F080003067306F40F001000AE090
:1020D000306F20F001003067306F20F0040030676F
:1020E000306F20F080003067FEF706FB054641F2B6
:1020F000883700BF306F80073FF565AEFEF7FCFA0A
:10210000401BB8424FF00300F4D91DE604F1280744
:10211000B06A40F2F33188438ECF0843591E40EA3B
:1021200002104FF47E426FF35F21B06202EB472052
:102130004FF4FE0280B2E36B0844A16B02EB014155
:102140004FF0FE4201F4FE0102EB0362084402F08C
:10215000FE4108443063F06A4FF6F87120F0010048
:10216000F062706BA26C884340EAC2007063F06A50
:10217000216C20F00C000843F062F06A616C20F0E2
:1021800002000843F062F06A40F48030F062F06AC6
:1021900040F40030F062F06A40F48020F062F06AAF
:1021A00040F00100F062306840F080703060FEF76F
:1021B000A3FA0446306880013FF53BAEFEF79CFA77
:1021C000001B02284FF00300F4D9BDE5F06A20F0AF
:1021D0000100F062FEF790FA0546FEF78DFAA8427C
:1021E000FBD0706B4FF6F871A26C884340EAC200D6
:1021F0007063F06A40F00100F062002001B0F0BDB1
:102200007047000000000000704700000000000060
:10221000704700000000000060B310B5044690F85D
:102220003D0028B9002084F83C00204600F024F846
:10223000022084F83D002068211D00F035FF0120B8
:1022400084F8480084F83E0084F83F0084F8400099
:1022500084F8410084F8420084F8430084F8440084
:1022600084F8450084F8460084F8470084F83D006F
:10227000002010BD012070477047000000000000E2
:1022800090F83D1001291BD1022180F83D10016812
:1022900041F2FF70C4F200008142C86840F00100C2
:1022A000C8600FDC40F2FF70C4F20000814217DC0E
:1022B000B1F1804F2CD040F20040C4F2000025E084
:1022C0000120704740F2FF30C4F20100814213DC6C
:1022D00041F60000C4F20000814219D0002013E052
:1022E00040F60000C4F20000814211D040F60040E8
:1022F000C4F200000AE000BF44F20000C4F2010092
:10230000814205D040F20040C4F2010081420BD16D
:1023100007228868C0F2010202400020062A18BF86
:10232000B2F5803F00D17047086840F001000860B6
:10233000002070470000000070470000000000000F
:10234000F0B581B004460068C5680669B10717D5C5
:1023500015F0020114D06FF0020101610121217713
:102360008069800704D02046FFF7E6FF06E000BF43
:10237000204600F09DF8204600F09EF800202077CF
:10238000700719D515F0040016D020686FF004010D
:10239000016102212177806910F4407F04D020463A
:1023A000FFF7CAFF06E000BF204600F081F8204694
:1023B00000F082F800202077300717D515F00800CC
:1023C00014D020686FF00801016104212177C069F1
:1023D000800703D02046FFF7AFFF05E0204600F05E
:1023E00067F8204600F068F800202077F00619D53D
:1023F00015F0100016D020686FF01001016108215F
:102400002177C06910F4407F04D02046FFF794FF85
:1024100006E000BF204600F04BF8204600F04CF8E4
:1024200000202077F00718BF15F0010006D02068C3
:102430006FF001010161204600F042F805F08007CD
:1024400016F4025F18BF002F02D1F00509D410E086
:1024500020686FF4025101612046FFF7D5FEF005B8
:1024600007D537B120686FF4807101612046FFF70E
:10247000C7FE700609D515F0400006D020686FF041
:1024800040010161204600F027F8B0060CD515F098
:10249000200009D020686FF020010161204601B0C2
:1024A000BDE8F040FFF7B4BE01B0F0BD0000000091
:1024B00070470000000000007047000000000000AE
:1024C00041F200010068C4F20001884218BF704761
:1024D000FEF71AB90000000070470000000000007D
:1024E00090F88410012901D1022070472421C0F8FE
:1024F000881002681368116823F0005321F001016D
:1025000011600021416613602022C0F8882080F805
:10251000841008467047000090F88420012A01D1F9
:102520000220704770B52422C0F888200268D0F8D5
:1025300064E0BEF1000FD2F800C0136823F001037D
:102540001360936823F0606341EA0301916019D03E
:10255000916846F2506E9368C0F6000E5B0F46F22B
:102560005865C1F34266C0F600051EF80340E95CF9
:102570002301B3FBF1F11EF80630AE5D1B01B3FB86
:10258000F6F301E001210123A0F86A102021A0F850
:102590006830C2F800C0C0F88810002180F88410AC
:1025A000BDE870400846704790F88420012A01D1A8
:1025B0000220704770B52422C0F888200268D0F845
:1025C00064E0BEF1000FD2F800C0136823F00103ED
:1025D0001360936823F0604341EA0301916019D0CE
:1025E000916846F2506E9368C0F6000E5B0F46F29B
:1025F0005865C1F34266C0F600051EF80340E95C69
:102600002301B3FBF1F11EF80630AE5D1B01B3FBF5
:10261000F6F301E001210123A0F86A102021A0F8BF
:102620006830C2F800C0C0F88810002180F884101B
:10263000BDE870400846704710B5D8B10446D0F8E0
:10264000880028B9002084F88400204600F028F88B
:102650002420C4F888002068A16A0268002922F0BA
:102660000101016002D0204600F0CEFD204600F0BE
:10267000F7FE08B1012010BD2068416821F49041A7
:102680004160816821F02A018160016841F0010107
:1026900001602046BDE8104000F026BE00000000AA
:1026A000B0B5B6B06946044601F10800B821FDF79F
:1026B00067FE44F600012068C4F20001884201D0A0
:1026C00036B0B0BD68460024019402250095FEF79F
:1026D000F7FA08B1FDF7A4FE44F24050C5F6020037
:1026E000816841F480218160816801F48021319109
:1026F0003199016841F008010160006831A900F0DA
:102700000800319031984FF44070CDE93105072031
:10271000359040F60040C5F60200CDE93344FDF7A0
:10272000F7FE36B0B0BD00002DE9F04381B004469D
:10273000D0F88800202863D1884600294FF0010096
:1027400000F090801646002A00F08C801D46002084
:10275000C4F890002120C4F88800FDF7CDFFA4F84C
:102760005460A4F856600646A168B1F5805F02D1B6
:102770002069002848D047464FF00008B4F85600BA
:102780002168002846D005F1010900BFC86900068C
:102790000ED4B9F1000F0FD0002D5DD0FDF7ACFFC6
:1027A000801BA8425AD821680868C8690006F5D578
:1027B00087B117F8010B12E0C8690006F8D4C869A0
:1027C00000065CBFC8695FEA0060F1D4C869000612
:1027D000F2D5EDE738F8020B00276FF35F2088622F
:1027E000D4F8880000F0210021283FD1B4F8560029
:1027F0000138A4F85600B4F856000028C6D109E004
:10280000022001B0BDE8F0830027B4F8560021682B
:102810000028B8D1C86940061CD4EDB1681C0FD19E
:10282000C869400616D4C869400613D4C869400672
:1028300010D4C86940064FF00000F1D50FE000BF8A
:10284000FDF75AFF801BA84208D820680168C069BC
:102850004006F5D5002002E0FDF74EFF03202021C1
:10286000C4F8881001B0BDE8F08300BF012001B0BA
:10287000BDE8F08300000000FEE70000000000005B
:1028800010B546F260621020C0F60002022101F08D
:1028900093FA40F2180446F29062C2F20044C0F685
:1028A000000204212060102001F086FA46F27862CE
:1028B0006060C0F600020820022101F07DFAA060ED
:1028C00042F6996046F21462C0F60000C0F60002BB
:1028D000002101F029FBE06042F6C95046F2605247
:1028E000C0F60000C0F60002002101F01DFB2061CF
:1028F00042F6696046F2F052C0F60000C0F60002EF
:10290000002101F011FB606142F6416046F2CC52B9
:10291000C0F60000C0F60002002101F005FBA06136
:1029200042F6196046F2A852C0F60000C0F6000256
:10293000002101F0F9FAE06142F6F15046F28452CA
:10294000C0F60000C0F60002002101F0EDFA20629E
:1029500010BD0000000000002DE9F04786B044F2F1
:1029600040504FF0000AC5F6020040F20045CDE9A4
:1029700004AA0168C5F6020541F00401016001687E
:10298000002201F0040100910099016841F08001EA
:102990000160016844F2010801F080010091009992
:1029A000016841F002010160016801F0020100913B
:1029B0000099016841F008010160016801F0080117
:1029C00000910099016841F010010160006844F233
:1029D000010100F01000009000982846FDF784FEE9
:1029E00005F540640221002220464FF00209FDF760
:1029F0007BFE01AE4FF4005001904FF404100290A2
:102A000005F58060314601270397FDF781FD2846D3
:102A10003146CDE90187CDE903AAFDF779FD2046CE
:102A20003146CDE90197CDE903AAFDF771FD2820D4
:102A300005210022FDF77CFF2820FDF765FF06B089
:102A4000BDE8F0870000000080B540F2881044F631
:102A50000001C2F20040C4F200010C2201604FF4F8
:102A6000E13141600021C0E902110161C0E90521A5
:102A7000C0E90711C0E90911FFF7DEFD08B1FDF754
:102A8000CFFC40F288100021C2F20040FFF78CFD1D
:102A900008B1FDF7C5FC40F288100021C2F20040E9
:102AA000FFF73AFD08B1FDF7BBFC40F28810C2F217
:102AB0000040FFF715FD002808BF80BDBDE880403D
:102AC000FDF7AEBC00000000FEE7000000000000C3
:102AD000FEE7000000000000000000000000000011
:102AE000EFF30980BFF36F8F154B1A681EF0100FBC
:102AF00008BF20ED108A20E9F04F10602DE9090091
:102B00004FF0500072B680F31188BFF34F8FBFF3C0
:102B10006F8F62B602F014FC4FF0000080F3118852
:102B2000BDE8090019680868B0E8F04F1EF0100F02
:102B300008BFB0EC108A80F30988BFF36F8F70472D
:102B40000C03002400000000F0B581B044F22C47D3
:102B5000C5F6020757F8042C02F00302032A03D13A
:102B6000012001B0F0BD00BF054657F82C0C0C4603
:102B700020F0806047F82C0CFDF7BEFD064600BF34
:102B800057F82C0C000105D5FDF7B6FD801B022877
:102B9000F6D964E057F8040CEE6895E80E0020F4CE
:102BA0007C30012C40EA0130A2F101016FF35F217A
:102BB0004FF47E4202EB432247F8040C92B24FF0EE
:102BC000FE4302EB01004FF4FE012A6901EB0641CE
:102BD00001F4FE0103EB0262084402F0FE410844E6
:102BE000F8603868696920F0C00040EA0100386088
:102BF0003868A96920F0200040EA01003860386890
:102C00004FF6F87120F0100038603869EA6920EA60
:102C100001004FF4001140EAC2003861386808BF73
:102C20004FF4801140F01000002C386008BF4FF4C2
:102C3000002138680843386057F82C0C40F0806059
:102C400047F82C0CFDF758FD044600BF57F82C0C34
:102C5000000107D4FDF750FD001B0328F6D3032025
:102C600001B0F0BD002001B0F0BD00000000000088
:102C7000F0B581B044F22C47C5F6020757F8042C92
:102C800002F00302032A03D1012001B0F0BD00BF0E
:102C9000054657F82C0C0C4620F0805047F82C0CB9
:102CA000FDF72AFD064600BF57F82C0C800005D51D
:102CB000FDF722FD801B0228F6D964E057F8040CCA
:102CC000EE6895E80E0020F07C70012C40EA01507F
:102CD000A2F101016FF35F214FF47E4202EB432228
:102CE00047F8040C92B24FF0FE4302EB01004FF4A0
:102CF000FE012A6901EB064101F4FE0103EB0262C9
:102D0000084402F0FE41084478613868696920F49B
:102D1000406040EA010038603868A96920F400701A
:102D200040EA0100386038684FF6F87120F480708E
:102D30003860B869EA6920EA01004FF0807140EA22
:102D4000C200B861386808BF4FF4000140F48070D9
:102D5000002C386008BF4FF48001386808433860A1
:102D600057F82C0C40F0805047F82C0CFDF7C4FCB1
:102D7000044600BF57F82C0C800007D4FDF7BCFCBC
:102D8000001B0328F6D3032001B0F0BD002001B0E2
:102D9000F0BD000000000000000000000000000086
:102DA000074B19680868B0E8F04F80F30988BFF353
:102DB0006F8F4FF0000080F31188704700BF00BF95
:102DC0000C0300240000000004A400BF204603F010
:102DD000A7FB4FF4FA6000F077FFF7E75B34475F3B
:102DE0004D5154545D206865617274626561740070
:102DF00004A400BF204603F093FB41F2883000F0AA
:102E000063FFF7E75B416C61726D5D20686561721D
:102E1000746265617400000004A400BF204603F0E2
:102E20007FFB41F2883000F04FFFF7E75B466C61B3
:102E300073685D206865617274626561740000008A
:102E400004A400BF204603F06BFB40F6B83000F04E
:102E50003BFFF7E75B4750535D2068656172746222
:102E6000656174000000000004A400BF204603F068
:102E700057FB40F6B83000F027FFF7E75B493243D5
:102E80005F53656E736F72735D2068656172746203
:102E9000656174000000000004A400BF204603F038
:102EA0003FFB4FF47A7000F00FFFF7E75B5374615C
:102EB00074654D616368696E655D206865617274F3
:102EC000626561740000000080B54EF21000CEF221
:102ED0000000006803F064F8012808BF80BDBDE869
:102EE000804002F051BB0000B0B59CB044F618041D
:102EF0004FF69840C5F60204CFF6FF704FF6FF710B
:102F00000025CDE91055CDE90E55CDE90C55CDE99B
:102F10000A550895CEF20301CDE90655CDE90455D1
:102F2000CDE90255019521500420FDF741FD0095A2
:102F3000206840F440402060206800F44040009049
:102F400000982068800409D4206880045CBF206851
:102F50005FEA804002D420688004F2D50220099004
:102F600001210C911290002504212322CDE9152086
:102F7000CDE917100C204024CDE9190509A80D94BE
:102F8000139514911B95FEF773FE18B172B600BF2E
:102F9000FEE700BF3F20019003200621CDE9020596
:102FA0004FF480600694CDE9070401A8CDE90454EC
:102FB000FEF7EAFB10B172B6FEE700BF1CB0B0BD71
:102FC0004EF6885042F2000CCEF20000C5F2002C02
:102FD000026842F470020260DCF8000000F00F00AA
:102FE000022806D8DCF80000032262F30300CCF8C4
:102FF000000044F200404EF67F51C5F60200CEF6C6
:10300000F621026842F001020260002202610368B8
:1030100019400160DCF8001011F00C0F06D0DCF84C
:103020000010032363F30301CCF8001040F20021E9
:103030008261C261C0F20221026281620021C0F29B
:10304000FF11C16240F28021C0F2011101634263AD
:103050008163C26301644264016821F480210160DC
:103060000266D0F83411C90448BF7047D0F8341153
:1030700043F2D20241F48051C0F8341144F200010D
:10308000C5F200210A60D0F8341121F48051C0F853
:10309000341170470000000040F23C10C2F20040C2
:1030A000FFF74EB90000000040F6FF32C4F2000204
:1030B0009042026810DCB0F1804F1ED040F2004315
:1030C000C4F20003984218D040F60003C4F2000393
:1030D000984212D015E000BF40F60043C4F200034E
:1030E00098420AD040F20043C4F20103984204D04F
:1030F0000023C4F20103984203D122F070024B680E
:103100001A434FF6FF7343F6FF7CC4F20003C4F288
:10311000010C984214DD604522DD44F20003C4F244
:103120000103984234D044F60003C4F201039842EC
:103130002ED044F20043C4F20103984228D02BE081
:1031400040F2FF73C4F20003984215DCB0F1804FE7
:103150001ED040F20043C4F20003984218D01BE096
:103160000023C4F20103984212D040F20043C4F29B
:10317000010398420CD00FE040F60003C4F20003B4
:10318000984205D040F60043C4F20003984203D1B0
:1031900022F44072CB681A4310B5D1F814E06045B0
:1031A0000B688C68C462836212DD44F20003C4F2CF
:1031B0000103984217D044F60003C4F20103984279
:1031C00011D044F20043C4F2010398420BD00CE04A
:1031D0000023C4F20103984205D040F20043C4F238
:1031E0000103984201D109690163016841F00401BA
:1031F00001600121416122F0800141EA0E0101607C
:1032000010BD000000000000816A0A070CD4CA0744
:1032100015D18A071ED44A0727D4CA0630D48A0695
:1032200039D44A0642D454E00268D0F838C0536812
:1032300023F4004343EA0C035360CA07E9D0026851
:10324000D0F82CC0536823F4003343EA0C035360D6
:103250008A07E0D50268D0F830C0536823F4803381
:1032600043EA0C0353604A07D7D50268D0F834C04C
:10327000536823F4802343EA0C035360CA06CED577
:103280000268D0F83CC0936823F4805343EA0C03EF
:1032900093608A06C5D50268D0F840C0936823F4CD
:1032A000005343EA0C0393604A0612D50268D0F833
:1032B00044C0BCF5801F536823F4801343EA0C0319
:1032C000536006D1536823F4C00C836C43EA0C03AB
:1032D0005360090658BF70470168C06C4A6822F401
:1032E0000022104348607047B0B582B00446002009
:1032F000C4F89000FDF700FA216805460A68120735
:1033000037D54FF4001100226FF07E400090204628
:103310002B4600F0F5FA58B3206850E8000F2168FA
:1033200020F0800041E80002F2B1206850E8000F70
:10333000216820F0800041E80002002A1FBF2068B9
:1033400050E8000F216820F080001CBF41E8000217
:10335000002A09D0206850E8000F216820F0800082
:1033600041E80002002AD7D12020C4F8880062E09A
:1033700021680868400765D54FF4800100226FF08E
:103380007E40009020462B4600F0BAFA002859D023
:10339000206850E8000F216820F4907041E8000296
:1033A000F2B1206850E8000F216820F4907041E8E5
:1033B0000002002A1FBF206850E8000F216820F497
:1033C00090701CBF41E80002002A09D0206850E834
:1033D000000F216820F4907041E80002002AD7D144
:1033E000206850E8020F216820F0010041E8020245
:1033F000F2B1206850E8020F216820F0010041E896
:103400000202002A1FBF206850E8020F216820F046
:1034100001001CBF41E80202002A09D0206850E8E0
:10342000020F216820F0010041E80202002AD7D1F2
:103430002020C4F88C000320002184F8841002B0FE
:10344000B0BD00BF2020C4F88800C4F88C00002064
:10345000E0662067002184F8841002B0B0BD00004F
:10346000F0B583B00446006846F6F31640F6004E09
:1034700022696569D4E902130A43E7690168CCF659
:10348000FF762A4331401143C5F6000E39430160EF
:103490004168704521F4405144F2544C41EA030123
:1034A0004160A2694FF2FF431CBF216A0A43816851
:1034B000C1F2FF131940C5F6020C1143816047F6B3
:1034C000FF32C16AC4F2000221F00F01656A904226
:1034D0004FF0800341EA0501C16219DD41F2FF713D
:1034E000C4F20101884229DC47F60041C4F2000120
:1034F000884253D041F20001C4F20101884235D024
:1035000041F20041C4F2010188422FD052E000BFD5
:1035100044F6FF31C4F20001884233DD44F6004135
:10352000C4F20001884239D045F20001C4F2000122
:10353000884233D047F600012CE000BF41F600017D
:10354000C4F20101884211D041F60041C4F20101E8
:1035500088420BD070452DD1DCF8041001F0070231
:10356000062A27D20FF28C3122E000BFDCF80010CF
:10357000C1F3C202062A1DD246F24A51C0F600012A
:1035800016E000BF44F20041C4F20001884205D0B9
:1035900044F60001C4F2000188420BD1DCF80010AF
:1035A00001F00702062A05D246F24451C0F6000196
:1035B0008B181B78704540F60010C0F23D0000F0FB
:1035C0005380B7F5004F40F07B80402B4FF0010156
:1035D00000F28781DFE813F042000C0185018501CC
:1035E000100185018501850116018501850185018F
:1035F00085018501850185011E0185018501850102
:10360000850185018501850185018501850185018A
:1036100085018501850185012E01850185018501D1
:10362000850185018501850185018501850185016A
:10363000850185018501850185018501850185015A
:10364000850185018501850185018501850185014A
:1036500085018501850185012C0100BFFEF71CFA5B
:10366000002840F0D58038E19A1E01211E2A00F280
:103670007580DFE812F01F0036017900360136014F
:1036800036017F003601360136013601360136013A
:103690003601890036013601360136013601360120
:1036A0003601360136013601360136013601360162
:1036B00036019600FDF7C0F9002840F062800CE169
:1036C000402B4FF0010100F20C81DFE813F04100C4
:1036D000CF000A010A01D3000A010A010A01D90038
:1036E0000A010A010A010A010A010A010A01E100AC
:1036F0000A010A010A010A010A010A010A010A0172
:103700000A010A010A010A010A010A010A01F1007B
:103710000A010A010A010A010A010A010A010A0151
:103720000A010A010A010A010A010A010A010A0141
:103730000A010A010A010A010A010A010A010A0131
:103740000A010A010A010A010A010A010A01EF003D
:10375000FEF7A2F9002840F09880BEE0402B40F030
:10376000C0804FF400401CE06846FDF779F90198ED
:1037700038B9B2E06846FDF70BFA0198002800F06E
:10378000AC80656A0DE000BF5CF8540C800649F21D
:103790000000C0F2D03004D55CF8541CC1F3C10164
:1037A000C84046F238616268C0F6000131F8151071
:1037B000B0FBF1F002EB420188424FF00101C0F092
:1037C00090801303984200F28C80010E00230002C7
:1037D00010EB520041F10001FCF788FD4FF600525A
:1037E000A0F54071C0F20F02914274D378E000BF9F
:1037F000FEF782F960B970E06846FDF731F901988B
:1038000030B96AE06846FDF7C3F90198002864D032
:10381000656A0FE05CF8540C800649F20000C0F2C3
:10382000D03007D55CF8541CC1F3C101C84001E099
:103830004FF4004046F23861C0F6000131F815102F
:10384000B0FBF1F061684A0802EB40004FF6EF72FE
:10385000B0FBF1F0A0F11001914241D84FF6F071A8
:103860000140C0F34200084435E000BFFEF744F9D0
:1038700058B932E06846FDF7F3F8019828B92CE012
:103880006846FDF785F9019838B3656A10E000BF16
:103890005CF8540C800649F20000C0F2D03007D525
:1038A0005CF8541CC1F3C101C84001E04FF4004072
:1038B00046F238616268C0F6000131F81510B0FBBD
:1038C000F1F000EB5200B0FBF2F0A0F110014FF666
:1038D000EF72914204D82168C860002101E000BF66
:1038E00001214FF00110A0660020C4E91D00084628
:1038F00003B0F0BD020408102040000000000000EA
:103900002DE9F041804600680D46C7693940491BE2
:10391000B1FA81F14909914225D1069C34B316468A
:10392000611C29D1C1692940491BB1FA81F14909BA
:10393000B14218D1C1692940491BB1FA81F1490945
:10394000B14201BFC1692940491BB1FA81F104BFED
:103950004909B14207D1C1692940491BB1FA81F136
:103960004909B142DED00020BDE8F081FCF7C4FE79
:103970000320BDE8F08100BF1F4607E0C069284072
:10398000401BB0FA80F04009B042ECD1FCF7B4FE25
:10399000C01BA04200F2B680D8F8000001684907B9
:1039A000ECD5402D18BF802DE8D0C169090700F182
:1039B000AD80C1690905E1D54FF400610162D8F815
:1039C000000050E8000FD8F8001020F4907041E893
:1039D000000222B3D8F8000050E8000FD8F8001019
:1039E00020F4907041E80002002A1FBFD8F80000C0
:1039F00050E8000FD8F8001020F490701CBF41E888
:103A00000002002A0BD0D8F8000050E8000FD8F8C8
:103A1000001020F4907041E80002002ACFD14FF648
:103A2000FE70CEF6FF70D8F8001051E8021FD8F8EB
:103A30000020014042E802130BB3D8F8001051E80F
:103A4000021FD8F80020014042E80213002B1FBFDC
:103A5000D8F8001051E8021FD8F8002001401CBF20
:103A600042E80213002B0AD0D8F8001051E8021FD8
:103A7000D8F80020014042E80213002BD3D1D8F837
:103A80006C0001282FD1D8F8000050E8000FD8F8BA
:103A9000001020F0100041E8000222B3D8F8000026
:103AA00050E8000FD8F8001020F0100041E80002A4
:103AB000002A1FBFD8F8000050E8000FD8F8001007
:103AC00020F010001CBF41E80002002A0BD0D8F8FB
:103AD000000050E8000FD8F8001020F0100041E876
:103AE0000002002ACFD12020C8F88C000021C8F89D
:103AF0006C10C8F87410C8F89000032088F884107F
:103B0000BDE8F0810320BDE8F08100BF082101621B
:103B1000D8F8000050E8000FD8F8001020F490709A
:103B200041E8000222B3D8F8000050E8000FD8F8AE
:103B3000001020F4907041E80002002A1FBFD8F85E
:103B4000000050E8000FD8F8001020F490701CBF5F
:103B500041E80002002A0BD0D8F8000050E8000F1E
:103B6000D8F8001020F4907041E80002002ACFD16C
:103B70004FF6FE70CEF6FF70D8F8001051E8021F25
:103B8000D8F80020014042E802130BB3D8F8001027
:103B900051E8021FD8F80020014042E80213002B30
:103BA0001FBFD8F8001051E8021FD8F800200140CC
:103BB0001CBF42E80213002B0AD0D8F8001051E8CD
:103BC000021FD8F80020014042E80213002BD3D195
:103BD000D8F86C0001282FD1D8F8000050E8000F69
:103BE000D8F8001020F0100041E8000222B3D8F805
:103BF000000050E8000FD8F8001020F0100041E855
:103C00000002002A1FBFD8F8000050E8000FD8F8C3
:103C1000001020F010001CBF41E80002002A0BD069
:103C2000D8F8000050E8000FD8F8001020F010007D
:103C300041E80002002ACFD12020C8F88C000020E3
:103C4000C8F86C00C8F874000821C8F8901088F80B
:103C500084000120BDE8F081FEE7000000000000C4
:103C600080B582B0019040F28810C2F2004001A9F4
:103C700001224FF0FF33FEF757FD019802B080BDDF
:103C800084B001200090FCF707FE0020019048F26C
:103C90001F70029040F2011003906846FCF7CCFDC3
:103CA0000420FCF709FEFCF73FFDFFF71DF9FEF7C6
:103CB00053FEFEF7C9FE00F027F8FEF7E1FD00F025
:103CC0004BF800BFFEE70000EFF3058100291CBFA1
:103CD0006FF00500704710B5044602F061F9012845
:103CE00006D114B1204601F0BFF9002010BD00BF7D
:103CF000EFF3108018B9EFF311800028F1D06FF0C6
:103D0000050010BD00000000EFF3058000281CBF77
:103D10006FF00500704780B502F042F9012811D11B
:103D200002F03EF901284FF0FF3009D140F238117E
:103D3000C2F200410A68002A02BF01200860002088
:103D400080BD00BFEFF3108018B9EFF31180002899
:103D5000E6D06FF0050080BD10B5EFF3058018B117
:103D60006FF0050010BD00BF02F01AF9012819D14B
:103D700002F016F901284FF0FF3410D140F238104C
:103D8000C2F200400168012909D14EF61F510024FA
:103D9000CEF200010C700221016001F03DFA2046D4
:103DA00010BD00BFEFF310800028D9D1EFF31180D0
:103DB0000028D5D1DCE70000F0B581B0EFF3058332
:103DC00023B10025284601B0F0BD00BF14460E46C1
:103DD000074602F0E5F8012818D10025002F18BF8A
:103DE000002EEFD054B3D4E90230FBB15028E9D310
:103DF0002269002AE6D006FB07F061698142E1D31F
:103E000038463146009501F02BFC1CE0EFF31080A2
:103E100020B10025284601B0F0BD00BFEFF31180AE
:103E20000028DAD00025284601B0F0BD0028C9D10D
:103E300020690028C6D160690028C3D10022384615
:103E4000314601F0BDFB0546002C18BF002DB9D04E
:103E500021680029B6D0284601F01AF8284601B09A
:103E6000F0BD000000000000F0B581B0EFF3058266
:103E70001E460C4605464AB16FF00307002D18BFD9
:103E8000002C1FD1384601B0F0BD00BF02F088F809
:103E9000012835D16FF00307002D18BF002CF1D099
:103EA0000023284621463246002701F04DFC012818
:103EB000E8D06FF00107002E08BF6FF00207384608
:103EC00001B0F0BD002EDDD1002000906A46002335
:103ED0002846214601F0A0FD01281BD10098F8B129
:103EE0004EF604504FF08051CEF2000000270160E2
:103EF000BFF34F8FBFF36F8F384601B0F0BD00BFE7
:103F0000EFF310800028B7D1EFF311800028B3D170
:103F1000C0E700BF6FF00207384601B0F0BD00BF38
:103F20000027384601B0F0BD2DE9F04184B00024EF
:103F30000394EFF305831BB1204604B0BDE8F08184
:103F400017460D46064602F02BF8012806D1AEB9F9
:103F50000024204604B0BDE8F08100BFEFF31080DC
:103F600020B10024204604B0BDE8F081002E4FF0BF
:103F70000004EFF31180DFD00028DDD14FF0000402
:103F800057B3B869002808BF18203828D4D8397921
:103F9000C907D1D1D7F814E04FEA9E02BEF1000F55
:103FA000D7E902C8134608BF8023BCF1000F396867
:103FB00026D0B8F15C0FBFD33B69002B18BFBEF110
:103FC000000FB9D08DE8091030462B4601F090FF64
:103FD00004B0BDE8F08100BF8023182000219AB210
:103FE00003AFCDE9000730462B4601F051FF03999E
:103FF000012808BF0C46204604B0BDE8F08100BF90
:10400000B8F1000F98D13A69002A95D1E7E700008E
:104010002DE9F04140F23C0640F20C37C2F2004676
:10402000C2F2004704460D46D6F814803A68101DC7
:1040300000F096FD601C17D1B5B1D7F800C0396803
:104040003A683B683F6856F8605F7468CCF808408F
:104050007E61A068C860A068111D4160181DA06045
:10406000681C3060BDE8F081386814EB08044460D7
:1040700006D3F06939680431BDE8F04100F0C0BDF5
:10408000B0693968043100F0BBFDF06A844238BF82
:10409000F462BDE8F08100002DE9F04381B00446F0
:1040A00000F0EEFD40F23C0640F20C38C2F2004651
:1040B000C2F2004840F21035B068C2F2004501304B
:1040C000B060D8F8000068B1F068002840F00A81BC
:1040D000D8F80000E16AC06A884298BFC8F800407A
:1040E00000E100BFC8F80040B068012840F0FA8045
:1040F000284600F075FD05F1140000F071FD05F192
:10410000280000F06DFD05F13C0000F069FD05F1AF
:10411000500000F065FD05F1640000F061FD05F15F
:10412000780000F05DFD05F18C0000F059FD05F10F
:10413000A00000F055FD05F1B40000F051FD05F1BF
:10414000C80000F04DFD05F1DC0000F049FD05F16F
:10415000F00000F045FD05F5827000F041FD05F529
:104160008C7000F03DFD05F5967000F039FD05F509
:10417000A07000F035FD05F5AA7000F031FD05F5E1
:10418000B47000F02DFD05F5BE7000F029FD05F5B9
:10419000C87000F025FD05F5D27000F021FD05F591
:1041A000DC7000F01DFD05F5E67000F019FD05F569
:1041B000F07000F015FD05F5FA7000F011FD05F541
:1041C000027000F00DFD05F5077000F009FD05F522
:1041D0000C7000F005FD05F5117000F001FD05F50E
:1041E000167000F0FDFC05F51B7000F0F9FC05F5FC
:1041F000207000F0F5FC05F5257000F0F1FC05F5E8
:104200002A7000F0EDFC05F52F7000F0E9FC05F5D3
:10421000347000F0E5FC05F5397000F0E1FC05F5BF
:104220003E7000F0DDFC05F5437000F0D9FC05F5AB
:10423000487000F0D5FC05F54D7000F0D1FC05F597
:10424000527000F0CDFC05F5577000F0C9FC05F583
:104250005C7000F0C5FC05F5617000F0C1FC05F56F
:10426000667000F0BDFC05F56B7000F0B9FC05F55B
:10427000707000F0B5FC05F5757000F0B1FC05F547
:104280007A7000F0ADFC05F57F7000F0A9FC05F533
:10429000826000F0A5FC05F2244000F0A1FC05F5C9
:1042A000876000F09DFC05F24C4000F099FC40F264
:1042B0001019C2F20049484600F092FC09F11407B7
:1042C000384600F08DFC06F14C0000F089FC06F148
:1042D000380000F085FC06F1600000F081FCC6F8B3
:1042E0001890F7613068271D316A421CE06A32601D
:1042F0008842626488BF306200EB800005EB800179
:1043000061614A68A2609368E360936897605F6048
:1043100055F82010013145F8201000F0DDFCF06860
:1043200080B1D8F80000E16AC06A88420AD24EF62D
:1043300004504FF08051CEF200000160BFF34F8F68
:10434000BFF36F8F01B0BDE8F083000000000000F4
:1043500040F23C0540F210364EF60458C2F20045D9
:10436000C2F20046CEF200084FF0805703E000BFD3
:10437000204600F0CDFC6868D0B100F081FC686C8C
:10438000C468201D00F0ECFBA8680138A8606868CC
:104390000138686000F0A0FC94F859000228EAD0C7
:1043A0000128E5D070B9206B00F0B2FCE0E700BF57
:1043B00030680228DFD3C8F80070BFF34F8FBFF317
:1043C0006F8FD8E74FF0500072B680F31188BFF3BB
:1043D0006F8FBFF34F8F62B6FEE700000000000052
:1043E0002DE9F04381B00A9C16460F468146206BAA
:1043F0009100A5229846089DFBF7BBFF002F206B7C
:1044000053D0397884F83410397800294AD0797833
:1044100084F835107978002944D0B97884F83610BA
:10442000B97800293ED0F97884F83710F978C9B303
:10443000397984F838103979A1B3797984F8391049
:10444000797979B3B97984F83A10B97951B3F979AE
:1044500084F83B10F97929B3397A84F83C10397A19
:1044600001B3797A84F83D10797AD9B1B97A84F8B0
:104470003E10B97AB1B1F97A84F83F10F97A89B16E
:10448000397B84F84010397B61B1797B84F8411025
:10449000797B39B1B97B84F84210B97B11B1F97BD2
:1044A00084F84310002184F84310382D0CD34FF0CA
:1044B000500072B680F31188BFF36F8FBFF34F8F38
:1044C00062B600BFFEE700BF00EB8600099F04381C
:1044D000E56220F00706201DE56400F08DFB04F185
:1044E000180000F089FBC5F13800A061304649464C
:1044F00042462461646200F01BFB002F206018BF5D
:104500003C6001B0BDE8F08308480068006880F3B3
:1045100008884FF0000080F3148862B661B6BFF3DC
:104520004F8FBFF36F8F00DF00BF000008ED00E08A
:1045300081B00020009040F21400C2F200400068F8
:104540004FF0500172B681F31188BFF36F8FBFF344
:104550004F8F62B6013003D0FEE700BF009838B934
:10456000009828B90098002804BF00980028F5D0CA
:1045700001B070470000000084B040F2B009E84686
:10458000C2F20049D9F8080006681EB1C068D0F828
:1045900000A001E04FF0000A00F0CAFE01F010FD9B
:1045A000D9F81010834688421FD3002EC9F810B0E6
:1045B00060D0DA455ED801F0A3FED9F80800C068E3
:1045C000C668371D384600F0CBFA96F82800410738
:1045D00038D400F0FE0086F8280071E000F0FE00FC
:1045E00086F82800316A30468847D9F80800016803
:1045F000B1B3C068C6680568371D384600F0B0FA28
:1046000096F828004107E9D5B0694419746040194B
:10461000366108D2316A30468847B06921180444AF
:1046200074603661F6D3D9F80C00394600F0E8FA28
:10463000D8E700BFABEB0A0181423BD3316A304679
:104640008847A246B069366100EB0A0474605C4595
:10465000F0D9D34509F108002ED25445EED22BE013
:10466000D9F80C10C9F810B0C9E9021001F048FEE1
:1046700032E000BF16B1002206E000BFD9F80C00FE
:104680000068B0FA80F04209D9F80000AAEB0B01EB
:1046900000F0B6FC01F034FEF0B94EF604504FF0D5
:1046A0008051CEF200000160BFF34F8FBFF36F8FD8
:1046B00012E000BF09F10C000068394600F0A0FAD2
:1046C000316A3046884707E001F0FE008BF8280089
:1046D000DBF8201058468847D9F8000000224146F0
:1046E00001F05EFA00283FF44DAF0098B0F1FF3FB3
:1046F00006DCDDE901200399904700980028EBD4FF
:10470000DDF808B0DBF8140018B10BF1040000F07C
:1047100027FA01F055FCD9F810108246884208D3D8
:1047200030E000BF00F0FE0087F82800396A384604
:104730008847D9F80800016801B3C068C7680568F0
:104740003C1D204600F00CFA97F828004107E9D5F7
:10475000B86946197E6040193F6108D2396A384607
:104760008847B869311806447E603F61F6D3D9F8AE
:104770000C00214600F044FAD8E700BFD9F80C102D
:10478000C9E902100098C9F810A001380828A3D878
:10479000DFE800F006061E226A06061E220000BFA1
:1047A000019ADBF818009BF8281086185F465645DA
:1047B00041F001038BF8283047F8046FCBF810B0B4
:1047C00026D9924509F1080328D296422CD225E039
:1047D0009BF8280050E000BF9BF8280040F0010142
:1047E000019800288BF82810CBF8180052D05044BC
:1047F00009F10C025946504588BF09F1080241F8F9
:10480000040FCBF810B0106800F0FAF964E700BFAD
:10481000AAEB0202824207D209F10C03186839465A
:1048200000F0EEF958E700BF4A077FF54DAF019958
:1048300001440AE0AAEB0101814223D3DBF82010F6
:1048400058468847DBF8180021460C18CBF804407E
:104850005445CBF810B0EDD98A4509F1080013D2C0
:104860008C42EBD210E000BF9BF82800810703D4F4
:10487000584600F04DFA2FE700F0FE008BF82800B4
:104880002AE700BF09F10C000068394600F0B8F9CA
:104890001EE700BF4FF0500072B680F31188BFF3DF
:1048A0006F8FBFF34F8F62B6FEE70000000000007D
:1048B000F0B581B0044600F0E3F994F94560012EAB
:1048C00010DB04F1240503E0F0B2013E012809D910
:1048D000286838B1284601F097FC0028F4D000F091
:1048E0001FFCF1E7FF2684F8456000F0F5F900F0C1
:1048F000C7F994F94470012F10DB04F1100503E0AF
:10490000F8B2013F012809D9286838B1284601F0DA
:104910007BFC0028F4D000F003FCF1E784F844604D
:1049200001B0BDE8F04000F0D7B900000000000081
:10493000B0B5044600F0FCFC40F2EC0CC2F2004CB6
:10494000DCF8000020B104F10802092A28D22DE089
:1049500040F27070C2F20040C11D10F0070221F059
:104960000701A0EB010202F5705204BF01464FF4AB
:10497000705200200A4422F00702A2F10803CCF88A
:104980000030CCE9051042E90200581A4860DCF812
:1049900000200A60CCE9010004F10802092A05D3CD
:1049A00014F007000ED00938824207D9002401F024
:1049B000A7FC600762D12046B0BD00BF24F007000D
:1049C00000F11002012A4FF0000452DBDCF8040071
:1049D00082424ED8604650F814EFDEF8043093421D
:1049E0002BD2DEF80010B9B174464B68934217D24F
:1049F0000D68ADB16B68934216D22868A0B14368C8
:104A0000934215D204689CB16368934214D2216822
:104A1000A6460029E9D110E00CF114000DE000BF1A
:104A20008E46204609E000BFAE46084605E000BFBE
:104A30008646284601E000BFA646DCF800108E45F9
:104A400016D0991A03681129DEF80040046051D38A
:104A50000EEB020460071DD04FF0500072B680F3D9
:104A60001188BFF36F8FBFF34F8F62B6FEE700BFB1
:104A7000002401F045FC60073FF49DAF4FF050006B
:104A800072B680F31188BFF36F8FBFF34F8F62B69A
:104A9000FEE700BF0CF114006160CEF8042001684D
:104AA000A1420BD20868A0420CD20168A14205D2F3
:104AB00008680A46A042F2D305E000BF0246084655
:104AC00001E000BF0A4655685119A142616802D150
:104AD0002944144651606518854207D1DCF800501E
:104AE000A8421EBFD0E9000529446160A2422060AF
:104AF00018BF1460DEF8040003F10804DCE90112B9
:104B0000091ACCF80410914240F0004038BFCCF8AC
:104B100008100021CEE90010DCF80C000130CCF8C0
:104B20000C0001F0EDFB6007A8D144E70000000095
:104B300044F2315321F0010140F8081C4FF080711C
:104B400040F8041CA0F14401C0F6000340F80C3CFE
:104B50006FF0020340E90932084670470000000088
:104B6000D0E9013201699A60D0F808C04A688242EF
:104B70004FF00002CCF8043008BFC1F804C0026155
:104B800008680138086008687047000000000000ED
:104B900040F23C00C2F20040806870470000000014
:104BA00044F27453C2F20043036044F27430C2F220
:104BB0000040086080201060704700000000000086
:104BC00044F6D013C2F20043036044F2D050C2F264
:104BD000004008604FF480701060704700000000D3
:104BE00002464FF0FF3142F8081F00214260C0E941
:104BF000032201607047000000210161704700003E
:104C000010B5D1F800E01EF1010213D000F1080444
:104C100062681368734511D853681C68744511D8CD
:104C20005A68146874450FD85468A44623687345BD
:104C3000EED90BE00269D2F804C007E094462246A0
:104C400004E000BF9C4601E094461A46C1F804C047
:104C5000CCF808108A605160086101680131016078
:104C600010BD000000000000DFF80C00016841F4F6
:104C7000700101607047000088ED00E00000000056
:104C80004FF0500072B680F31188BFF36F8FBFF3FF
:104C90004F8F62B640F21400C2F200400168002952
:104CA00001F10101016001D0704700BF4EF60450D0
:104CB000CEF200000068000608BF70474FF05000B9
:104CC00072B680F31188BFF36F8FBFF34F8F62B658
:104CD000FEE700000000000040F21400C2F20040B5
:104CE000016839B10139016018BF7047002080F3B5
:104CF000118870474FF0500072B680F31188BFF3EF
:104D00006F8FBFF34F8F62B6FEE700000000000018
:104D1000B0B5002808BFB0BD044650F8040C002808
:104D20000CD44FF0500072B680F31188BFF36F8F30
:104D3000BFF34F8F62B600BFFEE700BFA4F10805C6
:104D4000296859B14FF0500072B680F31188BFF353
:104D50006F8FBFF34F8F62B6FEE700BF20F00040B9
:104D600044F8040C00F0E4FA40F2EC0C54F8042C83
:104D7000C2F2004CDCF804101144CCF804100CF121
:104D8000140100BF0B68AB420AD21968A94229D2AC
:104D90000B68AB4204D219681C46A942F2D301E069
:104DA0000C4619466368E018A84202D11A44254609
:104DB0006260A818884207D1DCF8000081421EBF5B
:104DC000D1E9001010446860AC42296018BF25602A
:104DD000DCF810000130CCF81000BDE8B04001F064
:104DE0008FBA00BF1C466368E018A842E1D1DDE736
:104DF0004EF210000021CEF2000044F6D352C1F270
:104E000062020160816040F20C01C2F20041096857
:104E1000A1FB02124FF0FF3101EB9211416007211B
:104E2000016070470000000040F20810EFF30581B8
:104E30001029C2F2004013D34EF2F032CEF200023B
:104E4000895C027891420BD24FF0500072B680F329
:104E50001188BFF36F8FBFF34F8F62B6FEE700BFBD
:104E60004EF60C51CEF200010968406801F4E06191
:104E7000814298BF70474FF0500072B680F311889E
:104E8000BFF36F8FBFF34F8F62B600BFFEE7000026
:104E900000286BD0002908BF7047B0B544F62C221B
:104EA000C2F20042536883426CD0D36883426FD011
:104EB0005369834274D0D369834200F07980536A86
:104EC000834200F07D80D36A834200F08180536B7F
:104ED000834200F08580D36B834200F089801546C1
:104EE0004FF0000CD2F800E055F8084F002C1446A3
:104EF00018BF6546BEF1000F08BF154654F8103FB5
:104F0000002B134618BF6446002D18BF2C4653F8DB
:104F1000185F002D154618BF6346002C18BF2346A6
:104F200055F8204F002C144618BF6546002B18BFBB
:104F30001D4654F8283F002B134618BF6446002D29
:104F400018BF2C4653F8305F002D18BF6346002C65
:104F500018BF2346002B4DD152F8383F002B134683
:104F600008BFC3E90010BDE8B04070474FF05000E3
:104F700072B680F31188BFF36F8FBFF34F8F62B6A5
:104F8000FEE700BF1346C3E90010BDE8B04070471C
:104F900002F10803C3E90010BDE8B040704700BF4C
:104FA00002F11003C3E90010BDE8B040704700BF34
:104FB00002F11803C3E90010BDE8B040704700BF1C
:104FC00002F12003C3E90010BDE8B040704700BF04
:104FD00002F12803C3E90010BDE8B040704700BFEC
:104FE00002F13003C3E90010BDE8B040704700BFD4
:104FF00002F13803C3E90010BDE8B040704700007B
:1050000070B515460E460446FFF73AFE94F8440084
:10501000FF280DD094F84500FF2810D0FFF75CFE64
:10502000A06BA0B12046BDE87040FFF741BC00BFB7
:10503000002084F8440094F84500FF28EED10020B9
:1050400084F84500FFF748FEA06B0028EAD104F180
:10505000240031462A4600F08BF82046BDE8704017
:10506000FFF726BC00000000F0B581B000283BD05F
:1050700040F23C050446C2F20045286960B14FF099
:10508000500072B680F31188BFF36F8FBFF34F8F5C
:1050900062B600BFFEE700BF286940F20C3601305F
:1050A0002861C2F200466F6930680430FFF758FD8E
:1050B0003068E419446009D3E86931680431FFF7C6
:1050C0009FFD01F01DF968B90EE000BFA8693168C5
:1050D0000431FFF795FDE86A844238BFEC6201F0C5
:1050E0000FF908B101B0F0BD4EF604504FF08051F9
:1050F000CEF200000160BFF34F8FBFF36F8F01B09E
:10510000F0BD00000000000040F23C01C2F200418E
:105110004A6B02604969416070470000000000006E
:1051200040F23C000121C2F20040416270470000A1
:1051300080B110B50C4640F20C31C2F20041096852
:105140001831FFF75DFD01212046BDE81040FEF754
:105150005FBF00BF4FF0500072B680F31188BFF3FD
:105160006F8FBFF34F8F62B6FEE7000000000000B4
:10517000F0B581B010B340F20C350C46C2F20045D8
:1051800041682B68D9618B682E6833622B688E6802
:1051900003F1180373602B6803F118038B6029680F
:1051A0008862016801F1010101609AB14FF0FF309E
:1051B000114601B0BDE8F040FEF72ABF4FF05000A5
:1051C00072B680F31188BFF36F8FBFF34F8F62B653
:1051D000FEE700BF40F23C06C2F20046776928684D
:1051E0000430FFF7BDFC2868E419446008D3F06977
:1051F0002968043101B0BDE8F040FFF701BD00BFF0
:10520000B06929680431FFF7FBFCF06A844238BFBB
:10521000F46201B0F0BD000070B588B0002005A9AF
:10522000CDE9050006A804AAFFF7BAFC059E002EEA
:105230004AD0069C002C53D0049D5C200790079810
:105240005C2859D107985C212046FBF799F8266322
:10525000022084F8590007A800210023CDE900109E
:1052600044F2513030A1C0F600002A460294FFF704
:10527000B7F82046FEF710FF40F23C040798C2F250
:105280000044A062C0B101F0DFF8411C40D0012809
:1052900012D14FF0500072B680F31188BFF36F8FB8
:1052A000BFF34F8F62B64FF0FF30E0620120E06045
:1052B0000020606100F0A4F846F22C70C0F60000F7
:1052C000006808B070BD00BF4FF0500072B680F3A8
:1052D0001188BFF36F8FBFF34F8F62B6FEE700BF39
:1052E0004FF0500072B680F31188BFF36F8FBFF399
:1052F0004F8F62B6FEE700BF4FF0500072B680F3EA
:105300001188BFF36F8FBFF34F8F62B6FEE700BF08
:105310004FF0500072B680F31188BFF36F8FBFF368
:105320004F8F62B6FEE700BF49444C4500000000C5
:1053300040F23C00C2F20040016901310161704756
:1053400080B540F23C0CC2F2004CDCF8100018B101
:105350000120CCF8240080BD0020CCF82400DCF82B
:10536000201040F21032C2F2004201EB810052F8EC
:105370002030BBB101EB810002EB800E734653F885
:10538000042F181D52681A60824202D1DEF80C20E8
:105390001A6040F20C30D268C2F200400260CCF8D1
:1053A000201080BD02EB8000A0F12803A1B1586954
:1053B000F0B9012910D01868E0B902290CD053F8CF
:1053C000140CC8B9032907D053F8280C0439002855
:1053D000A3F15003EAD0CDE74FF0500072B680F34E
:1053E0001188BFF36F8FBFF34F8F62B6FEE700BF28
:1053F0000139BFE70239BDE70339BBE70000000010
:10540000B0B584B04EF200400021CEF20000019110
:1054100001788DF80B10FF21017001788DF80310D1
:105420009DF8031011F0500240F20811C2F2004141
:105430000A700BD09DF8032002F05002502A11D1BF
:105440009DF90320B2F1FF3F4CDC23E04FF0500008
:1054500072B680F31188BFF36F8FBFF34F8F62B6C0
:10546000FEE700BF4FF0500072B680F31188BFF323
:105470006F8FBFF34F8F62B6FEE700BF019A013214
:1054800001929DF8032052008DF803209DF903201E
:10549000002A27D5019A013201929DF8032052007B
:1054A0008DF803209DF90320B2F1FF3F1ADC019A29
:1054B000013201929DF8032052008DF803209DF9DE
:1054C0000320B2F1FF3FDFBF019A013201929DF844
:1054D0000320DFBF52008DF803209DF90320B2F1B5
:1054E000FF3FCBDD019A0024082A4FF0000206D0CE
:1054F000019A4FF4E063A3EB022202F4E0624A60F7
:105500009DF80B100170D0F8201941F47F01C0F80C
:105510002019D0F8201941F07F41C0F82019FFF779
:1055200067FC40F21405C2F200452C60FFF79CFBBB
:105530004EF63470CEF20000016841F04041016047
:10554000FEF7E2FFFFF7FCFE039428684FF05001DE
:1055500072B681F31188BFF36F8FBFF34F8F62B6BE
:10556000013003D0FEE700BF039838B9039828B98B
:105570000398002804BF03980028F5D0002004B049
:10558000B0BD00000000000080B54FF0500072B6C2
:1055900080F31188BFF36F8FBFF34F8F62B600F0B7
:1055A00017FD30B14EF604504FF08051CEF200009E
:1055B0000160002080F3118880BD00000000000021
:1055C0002DE9F04100283DD006460F46A0FB010121
:1055D000C1BB07FB06F010F1510F33D85030144611
:1055E000FFF7A6F9054650B328464FF00008002FF4
:1055F00085F8468018BF5030C5E90F672860FFF76F
:105600003FFBD5E90F012A68C5F8388001FB00236C
:10561000013800FB01206A60C5E90230FF2085F8EF
:10562000440085F8450005F11000FFF7D9FA05F1AF
:105630002400FFF7D5FAFFF74FFB85F84C402846CA
:10564000BDE8F0814FF0500072B680F31188BFF3CF
:105650006F8FBFF34F8F62B6FEE7000000000000BF
:1056600070B582B093B120B11C4601B90AB9C9B175
:10567000C2B94FF0500072B680F31188BFF36F8F3C
:10568000BFF34F8F62B600BFFEE700BF4FF0500080
:1056900072B680F31188BFF36F8FBFF34F8F62B67E
:1056A000FEE700BF50230193019B502B1AD1019BB1
:1056B000A0FB01534FF0010C002984F846C008BF3D
:1056C00022462260C4E90F01C3B14FF0500072B608
:1056D00080F31188BFF36F8FBFF34F8F62B600BFA7
:1056E000FEE700BF4FF0500072B680F31188BFF3A1
:1056F0006F8FBFF34F8F62B6FEE700BF069EFFF7C6
:10570000BFFAD4E90F012268002501FB002301380C
:1057100000FB0120A5636260C4E90230FF2084F829
:10572000440084F8450004F11000FFF759FA04F131
:105730002400FFF755FAFFF7CFFA84F84C602046B3
:1057400002B070BD000000002DE9F04F83B002925E
:10575000E0B104461D4617460E4619B3022D02D18C
:10576000E06B012862D100F01BFC00282AD1002F39
:1057700028D04FF0500072B680F31188BFF36F8FBE
:10578000BFF34F8F62B600BFFEE700BF4FF050007F
:1057900072B680F31188BFF36F8FBFF34F8F62B67D
:1057A000FEE700BF206C0028D8D04FF0500072B642
:1057B00080F31188BFF36F8FBFF34F8F62B600BFC6
:1057C000FEE700BFFFF75CFA022DA06B67D0E16B2C
:1057D000884264D30298002800F018816846FFF7D9
:1057E00093FCFFF779FAFFF7A3FDFFF749FA94F866
:1057F0004400FF2802D1002084F8440094F84500BA
:10580000FF2802D1002084F84500FFF765FA6846BA
:1058100002A900F0EDFAA8B12046FFF749F800F020
:105820006FFD002003B0BDE8F08F00BF4FF05000C7
:1058300072B680F31188BFF36F8FBFF34F8F62B6DC
:10584000FEE700BF04F11008FFF71AFAD4F8389009
:10585000E76BFFF741FAB94516D102994046FFF7C9
:1058600067FC2046FFF724F800F04AFD88B94EF6A1
:1058700004504FF08051CEF200000160BFF34F8F13
:10588000BFF36F8F05E000BF2046FFF711F800F06F
:1058900037FDFFF7F5F9A06BE16B884264D2A76B87
:1058A000226CDAB125B3E0683146FAF750FDE168C1
:1058B000206C2268091A9142E16003D24042A1683B
:1058C0000844E060A81E3946B0FA80F0002F18BFE7
:1058D0000121400908403F1A17E000BF2068002559
:1058E000A0B9A06800F038FCA56005460EE000BF36
:1058F00060683146FAF72BFDD4E90101226C1044AF
:105900006060884201D3206860600025781CA06335
:1059100054F8240FA0B1204600F076FC50B14EF6AA
:1059200004504FF08051CEF200000160BFF34F8F62
:10593000BFF36F8FFFF7D0F9012003B0BDE8F08F00
:10594000002DF7D04EF604504FF08051CEF20000FB
:105950000160BFF34F8FBFF36F8FFFF7BDF90120D9
:1059600003B0BDE8F08F00BFE94602AF0CE000BF16
:105970002046FEF79DFF00F0C3FCFFF781F9A06B06
:10598000E16B8842FFF48BAF029800283ED0FFF70E
:10599000A3F9FFF7CDFCFFF773F994F84400FF2853
:1059A00002D1002084F8440094F84500FF2802D179
:1059B000002084F84500FFF78FF94846394600F08B
:1059C00017FA00287FF428AFFFF75AF9D4F838A067
:1059D000D4F83CB0FFF780F9DA45C9D102994046C6
:1059E000FFF7A6FB2046FEF763FF00F089FC0028C6
:1059F000C3D14EF604504FF08051CEF2000001604A
:105A0000BFF34F8FBFF36F8FB7E700BFFFF764F9A6
:105A1000002003B0BDE8F08F2DE9F04F81B028B32E
:105A200004461E4615460F4600292BD0022E02D1F1
:105A3000E06B01285CD1FFF7F7F9EFF311884FF025
:105A4000500072B680F31188BFF36F8FBFF34F8F92
:105A500062B6022EA06B25D0E16B884222D30020D3
:105A600088F3118801B0BDE8F08F00BF4FF05000FF
:105A700072B680F31188BFF36F8FBFF34F8F62B69A
:105A8000FEE700BF206C0028D0D04FF0500072B667
:105A900080F31188BFF36F8FBFF34F8F62B600BFE3
:105AA000FEE700BF94F945A0A06BD4F838B05FFAC8
:105AB0008AF9226C42B37EB3E0683946FAF747FCB4
:105AC000E168206C2268091A9142E16003D24042E9
:105AD000A1680844E060B01E5946B0FA80F0BBF1FE
