:020000040800F2
:10000000D04E0024C1020008814600084941000882
:1000100079460008D118000839590008000000008E
:10002000000000000000000000000000A14A0008DD
:10003000D91800080000000021470008A94B00085B
:10004000DF020008DF020008DF020008DF0200080C
:10005000DF020008DF020008DF020008DF020008FC
:10006000DF020008DF020008DF020008DF020008EC
:10007000DF020008DF020008DF020008DF020008DC
:10008000DF020008DF020008DF020008DF020008CC
:10009000DF020008DF020008DF020008DF020008BC
:1000A000DF020008DF020008DF020008DF020008AC
:1000B000DF020008DF020008DF020008DF0200089C
:1000C000DF020008DF020008DF020008DF0200088C
:1000D000DF020008DF020008DF020008DF0200087C
:1000E000E1180008DF020008DF020008DF02000854
:1000F000DF020008DF020008DF020008DF0200085C
:10010000DF020008DF020008DF020008DF0200084B
:10011000DF020008DF020008794D0008DF02000856
:10012000DF020008DF020008DF020008DF0200082B
:10013000DF0200080000000000000000DF020008ED
:10014000DF020008DF020008DF020008DF0200080B
:10015000DF020008DF020008DF020008DF020008FB
:10016000DF020008DF020008DF020008DF020008EB
:10017000DF020008DF020008DF02000800000000C4
:10018000DF020008DF020008DF020008DF020008CB
:10019000DF020008DF020008DF020008DF020008BB
:1001A000DF020008DF020008DF020008DF020008AB
:1001B000DF020008DF020008DF020008DF0200089B
:1001C000DF020008DF02000800000000000000005D
:1001D0000000000000000000DF0200080000000036
:1001E000000000000000000000000000000000000F
:1001F0000000000000000000DF020008DF0200082D
:10020000DF020008DF02000800000000DF02000833
:10021000DF020008DF020008DF020008DF0200083A
:10022000DF020008DF020008DF0200080000000013
:10023000DF020008DF02000800000000DF02000803
:10024000DF020008DF020008DF020008DF0200080A
:10025000DF020008DF020008DF020008DF020008FA
:10026000DF020008DF020008DF020008DF020008EA
:10027000DF020008DF020008DF02000800000000C3
:10028000DF020008DF02000800000000DF020008B3
:1002900000000000DF020008DF020008000000008C
:1002A00000000000DF020008DF020008DFF80CD0C9
:1002B00000F022FB00480047E9590008D04E002416
:1002C000074880470748804707480047FEE7FEE7A2
:1002D000FEE7FEE7FEE7FEE7FEE7FEE7FEE7FEE7F6
:1002E000F1180008A14C0008AD0200082DE9F05FEC
:1002F0000546002092469B46884606468146402495
:100300001BE0284641464746224600F06CF953461A
:100310005A46C01A914110D311461846224600F0A1
:1003200053F92D1A67EB01084F46224601200021A0
:1003300000F04AF917EB00094E41201EA4F1010418
:10034000DFDC484631462A464346BDE8F09F40EA96
:1003500001039B0703D009E008C9121F08C0042A43
:10036000FAD203E011F8013B00F8013B521EF9D22A
:100370007047D2B201E000F8012B491EFBD2704752
:100380000022F6E710B513460A4604461946FFF761
:10039000F0FF204610BD30B505462A460B4612F840
:1003A000010B13F8014B08B1A042F8D01CB1002892
:1003B00002D06D1CF1E7284630BD30B50446002060
:1003C000034600E05B1C934203D2E05CCD5C401B23
:1003D000F8D030BD70B50F4D00B92868002412E088
:1003E0000A4602E09E4203D0521C1378002BF9D13A
:1003F000DAB2224305D02BB124B1002100F8011B51
:1004000004E00446401C0678002EE9D1286020460E
:1004100070BD0000000000240FB400B58DB010A91D
:1004200009900B9000914FF0FF300A9000200C9043
:1004300005480690054807906A4609A80F9900F0FC
:10044000F7F80DB05DF814FB4D0600086B060008C8
:100450002DE9FF5F1D464FF0FF3BD5E90146914670
:100460005F464FF00008A9697F1C01988847296AF8
:10047000824688470028F6D1BAF1FF3F0CD024F419
:10048000C064002E19DD600614D5BAF12B0F09D017
:10049000BAF12D0F0ED103E0584604B0BDE8F09F2D
:1004A00044F48064A9697F1C01988847761E8246BF
:1004B000002E02DDBAF1300F03D0B9F1000F26D0C3
:1004C00032E0A969761E44F400747F1C01988847C5
:1004D0008246002E05DDBAF1780F06D0BAF1580F2A
:1004E00003D0B9F1000F10D01EE0B9F1000F02D017
:1004F000B9F1100F18D1A969761E24F400747F1C7D
:10050000019888478246102002E0082000E00A2077
:10051000814609E008FB0908A969761E44F40074C5
:100520007F1C019888478246002E05DD49465046CB
:1005300000F069F80028EDDAE96901988847A0051C
:1005400002D46FF00100A8E7E00725D1600613D5BB
:10055000600502D5C8F1000000E0404629680A1D88
:100560002A600968220501D5087015E0220701D527
:10057000088011E008600FE02868011D296000680C
:10058000210502D580F8008006E0210702D5A0F8F9
:10059000008001E0C0F8008038467EE730B50B46A9
:1005A000014600202022012409E021FA02F59D42A3
:1005B00005D303FA02F5491B04FA02F52844151E77
:1005C000A2F10102F1DC30BD202A04DB203A00FA5E
:1005D00002F1002070479140C2F1200320FA03F39A
:1005E000194390407047202A04DB203A21FA02F098
:1005F0000021704721FA02F3D040C2F1200291405D
:100600000843194670473A2800D2303820F02002BB
:10061000412A01D3A2F13700884201D34FF0FF30C5
:100620007047000002681144137801601846704753
:10063000D1600449516104491162002111611146E0
:1006400000F078B92506000829090008426842B17F
:10065000016811F8013B23B1521EC0E9001218468F
:1006600070470121C160881E704742685AB1C36853
:10067000016843B983688B4205D0491E521CC0E90A
:100680000012002070474FF0FF3070470FB40B008E
:1006900010B58AB00FA900910E994FF00004234ABB
:1006A000CC60214CCDE9064200D004236FF000421B
:1006B000CDE901321E4A089202466B46002000F046
:1006C00063FB0AB010BC5DF814FBF0B585B00746BB
:1006D0004FF0FF300091CDE901011E460020154684
:1006E0000C4604903B466A46314604A8FFF7CEFF0D
:1006F00004990346601825B109B1024600E022467C
:100700002A6000290ED0002B02DD0099814209D019
:100710000094001BCDE901043B466A46314604A81B
:10072000FFF7B4FF05B0F0BD4D0600086B060008EA
:10073000290900082DE9FE4F81EA030404F0004472
:1007400021F0004100944FF0000B23F0004350EAE9
:1007500001045ED052EA03045BD0C3F30A54C1F330
:100760000A552C44A4F2F3340194A0FB0254C1F3C3
:10077000130141F48011C3F3130343F4801301FB0D
:10078000024400FB034E840A970A44EA815447EA74
:100790008357A4FB076802958D0A05FB07854FEA7E
:1007A000932C04FB0C542705029D4FEA065847EA98
:1007B0001637B5EB08056EEB070C870E920E47EA6D
:1007C000811742EA8312A7FB0201B6EB0B0164EB2F
:1007D00000042B0D43EA0C335E1844EB1C50DA4640
:1007E0005146E7FB0201C5F313044FEA0B3343EA1A
:1007F00014534FEA0432019C43EA0603A4F10C04AB
:100800000294009CCDE900B400F0E9FB03B0BDE820
:10081000F08F00200146F9E72DE9F04D81EA03044D
:1008200004F0004B21F0004514464FF0000A23F07D
:10083000004150EA050220D054EA01021DD0C5F360
:100840000A570246C5F31303C1F31300C1F30A5656
:1008500040F4801543F48013A7EB0608101BD6461E
:1008600008F2FD3873EB050002D308F1010801E03E
:1008700092185B41B8F1000F03DA00200146BDE891
:10088000F08D00204FF48011064684460EE0171BC1
:1008900073EB050705D3121B63EB050306434CEA14
:1008A000010C49084FEA300092185B4150EA0107F9
:1008B000EDD152EA030012D082EA040083EA050176
:1008C000084305D0101BAB4106D20122002306E0ED
:1008D00000224FF0004302E06FF0010253101AEBC8
:1008E00006004CEB085110EB0A0041EB0B01BDE890
:1008F000F04D00F065BB00001CB5094800900948A8
:1009000001900546009C06E0E06840F0010394E891
:10091000070098471034AC42F6D3FFF7CBFC000039
:100920008C8F0008AC8F0008C0B24FF4F05100F07B
:10093000A5BB00002DE9F34F8BB04FF0000801F18B
:100940000C000C464FF0010B46460DF1080A0190D1
:100950006269012101989047051E2DD0252D2CD0CC
:10096000216A8847C0B16269012101989047216AD4
:1009700088470028F7D1411E62690198904700E03E
:10098000761CA1690B988847216A88470028F7D10F
:10099000E1690B988847DBE7A1690B988847074610
:1009A000A84201D1761CD3E7E1690B9888477F1CE8
:1009B00002D1B8F1000F6FD046E1002762693D46D1
:1009C0003946019890472A2804D16269012101988B
:1009D00090470125DFF884926269012101989047D0
:1009E000A0F130010A290AD24F45E5DC07EB870167
:1009F00000EB4107303FDFD445F01005ECE7E90696
:100A000001D46FF000476C280AD04C2814D0682815
:100A100015D06A280DD074281CD07A281AD01DE071
:100A200062690121019890476C2802D045F00405C5
:100A300014E045F002050DE045F020050AE062698A
:100A4000012101989047682802D045F0080505E08B
:100A500045F400656269012101989047C4E9015796
:100A600065283DD019DC58287AD00CDC452837D0D1
:100A700004DC252826D0412831D131E046282FD06A
:100A800047282CD12CE05B2877D0612828D0632818
:100A90007CD0642823D15AE0D0E06F2848D008DC0D
:100AA00066281DD067281BD0692821D06E2816D152
:100AB00027E0702845D0732868D0752847D078285B
:100AC0000DD14DE0A1690B988847054625283FF4D4
:100AD00069AFE1690B9888476D1C3FF46AAFB3E0DA
:100AE00023466A466FF001000B9900F04DF99EE035
:100AF00045F040006060A80723464FF0000236D45E
:100B00003EE0E8077FF447AF2068011D21600068E0
:100B1000290501D506701BE7290701D5068017E7CF
:100B2000A90703D5F117C0E9006111E706600FE7D7
:100B300045F040006060A80723464FF0080216D435
:100B40001EE040F60E0125EA0100606016E045F067
:100B500040006060A80723464FF00A0207D40FE068
:100B600045F040006060A80708D5234610226FF0CA
:100B700001000B99AFF3008059E007E023461022F3
:100B80006FF001000B99FFF763FC50E04FF0000994
:100B90004F464B46632802D05B2806D040E0E8066B
:100BA00001D40120A06001273AE062690121019887
:100BB00090475E2805D14FF00109626949460198C6
:100BC0009047216939B900210A46534643F821204C
:100BD000491C0829FADBB0B3216969B9C11700EBD8
:100BE000D16253110AEB830122F01F02821A012005
:100BF0000B68904003430B606269012101989047A4
:100C00005D28E8D1B9F1000F09D00020514651F814
:100C10002020D24341F82020401C0828F7DB02ABFB
:100C2000224600976FF001000B99AFF30080002877
:100C30000CDA401C08D1BBF1000F05D04FF0FF309B
:100C40000DB0BDE8F08FFFE74046F9E7E90701D1B5
:100C500008F1010806444FF0000B79E6CCCCCC0C2F
:100C60002DE9FF4F087883B09946FF2805D0491C2D
:100C70002D2804D00024002008E000200BE00124EF
:100C8000F9E700EB800003EB4000491C0B78FF2BD9
:100C9000F7D104B1404200230293147819461D464F
:100CA0002D2C01D02B2C04D1521C2D2C13D0002420
:100CB0000294AA461478FF2C0FD00A25A3FB0578CE
:100CC00001FB05814FF0000C03FB0C11521CE319D2
:100CD0004AEB0101EEE70124EAE7814453EA01000F
:100CE00002D019F5C87F06DA03980021C0E9001187
:100CF00007B0BDE8F08F0025AE4E2F46DFF8B88272
:100D0000184600F0CFF9CDE90001B9F1000002DA90
:100D1000C9F1000400E004460023A74A1AEB030BC4
:100D200042EB045A12E0E00707D02A463346384621
:100D30004146FFF7FFFC074688462A4633461046E1
:100D40001946FFF7F7FC05460E466410002CEAD161
:100D5000DDE90001B9F1000F5A46534606DAFFF704
:100D60005BFD3A464346FFF757FD05E0FFF7E2FC1F
:100D70003A464346FFF7DEFC029A0AB181F0004191
:100D8000039AC2E90001B3E72DE9FF4F1F468DB07A
:100D9000D7E901464FF0FF382E2045464FF00009B5
:100DA0000B90B9696D1C0E988847396A824688474E
:100DB0000028F6D1BAF1FF3F0AD024F4D064002E07
:100DC00011DDBAF12B0F08D0BAF12D0F0BD102E0D3
:100DD000404611B08DE744F48064B9696D1C0E98EB
:100DE00088478246761E6946600501D52D2000E0C1
:100DF0002B208DF8000001F1010B0DF1200809E016
:100E0000B9696D1C0E98884782460F9844F40074A7
:100E1000761E0560002E02DDBAF1300FF0D00B997E
:100E20008A453ED144F0800406E00F99681CA9F180
:100E3000010944F400740860B9696D1C761E0E98AF
:100E4000884782463028F0D02BE00B998A4505D19F
:100E5000200603D444F08004761E18E0504607F0C4
:100E6000EBFB08B30DF11302761EAAF1300044F437
:100E70000074934506D20BF8010B200607D5A9F1A3
:100E8000010003E0200602D409F101008146A0051B
:100E900002D50F99681C0860B9696D1C0E988847C7
:100EA0008246002ED1DC53E0002E51DDBAF1650FF1
:100EB00002D0BAF1450F4BD1A00549D5B9696D1CD7
:100EC00024F44074761E0E9888478246002E0CDD6E
:100ED0002B2804D0BAF12D0F07D144F48074B969DE
:100EE0006D1C0E9888478246761EE00501D52D219F
:100EF00000E02B2108F8011BCDF82C8021E00DF13A
:100F00002901761E44F4007488450CD2AAF1300001
:100F100010F0FF0088F8000002D10B99884509D92C
:100F200008F1010806E0E00501D5244801E042F29D
:100F30000F708146B9696D1C0E98884782460F98DC
:100F40000560002E04DD504607F076FB0028D6D160
:100F5000F9690E988847FF208BF8000088F8000098
:100F60000020069007904B466A4608A906A8FFF79E
:100F700077FEA00502D46FF001002AE714F0240FD9
:100F80000AD0E00714D1DDE906123868031D3B6082
:100F90000068C0E900120BE0DDE9060100F08EF800
:100FA0000146E00704D13868021D3A60006801601C
:100FB00028460EE7000014400000F03FF1D8FFFF84
:100FC00010B5141E73F1000408DA401C41F1000151
:100FD00092185B411A4301D120F0010010BD2DE9A8
:100FE000F04D92469B4611B1B1FA81F202E0B0FA9F
:100FF00080F220329046FFF7E7FA04460F4640EAB7
:101000000A0041EA0B0153465A46084313D01146E1
:1010100053EA010019D0C8F140025046FFF7E3FA45
:1010200005460E46504659464246FFF7CDFA08435C
:1010300005D0012004E020463946BDE8F08D0020AF
:10104000054346EAE0762C4337430A986305E40AF1
:10105000A0EB08000022FD0A44EA47540A3002D5FA
:1010600000200146E9E7010510196941DDE908455D
:1010700000196941BDE8F04DA2E700007F2801D9C1
:10108000002208E0064A02EB5002C007127800D1A5
:10109000120902F00F020120904008407047000042
:1010A000C48900080EB540F2334202920022CDE915
:1010B00000221346FFF793FF03B000BD01F0004389
:1010C00030B421F0004150EA010206D00A0DA2F529
:1010D0006072C1F31301002A02DC30BC00207047AB
:1010E000440F44EAC104C100E01830BC00EBC25018
:1010F000AFF300800029A8BF7047401C490008BF1B
:1011000020F00100704710B4B0FA80FC00FA0CF037
:1011100050EA010404BF10BC704749B1CCF120046F
:1011200021FA04F411FA0CF118BF012121430843FC
:10113000A3EB0C01CB1D4FEA00614FEA102042BF28
:10114000002010BC704700EBC35010440029A4BF1E
:1011500010BC7047401C490008BF20F0010010BCC3
:10116000704700000000000070B582B048F6736060
:10117000C0F6000007F014FC48F6D160C0F600008D
:1011800007F00EFC48F662642CA1C0F6000420466D
:1011900007F0EEF948F6516548F6CE66C0F6000550
:1011A000C0F600062846314607F0E2F924A12046A1
:1011B00007F0DEF92846314607F0DAF922A1204689
:1011C00007F0D6F948F6C1642846C0F60004214667
:1011D00007F0CEF9002001901DA101AA2046FFF7DB
:1011E0001BF940F278060128C2F2004605D10198A9
:1011F000002802D4632818BF707048F6626417A1F3
:10120000C0F60004204607F0B3F948F6516516A170
:10121000C0F60005284607F0ABF917A1204607F0F5
:10122000A7F918A1284607F0A3F9727801203070B9
:1012300018A01FA107F09CF902B070BD4154000036
:10124000415445300000000041542B4353510000ED
:101250002B4353513A2025640000000041542B4396
:101260005245473F000000002B435245473A20308B
:101270002C310D0A4F4B000041542B43474154542D
:101280003F0000002B43474154543A20310D0A4F90
:101290004B0000005B416972373830455D20696E54
:1012A00069742025732C204353513D25750A000095
:1012B000726561647900000040F27800C2F200407B
:1012C000007870470000000060B1017A51B1B3EEC0
:1012D0000E0A90ED001AB4EE401AF1EE10FA03DD9A
:1012E000012070470020704790ED010A9FED041A1D
:1012F0000020B4EE410AF1EE10FAC8BF0120704799
:10130000000096420000000080B540F28C100021E1
:10131000C2F200400022017040F22800C2F20040F8
:10132000FF21017041F20000C5F60200022100F029
:1013300043FE02A0BDE8804007F032BB5B416C6118
:10134000726D5D20696E6974204F4B20284C4432C9
:101350002079656C6C6F772C2062757A7A657220C3
:10136000737475622900000040F28C11002818BFC8
:101370000120C2F200410870704700000000000028
:10138000B0B540F28C1441F20000C2F20044C5F640
:10139000020002212278002A18BF012200F00CFE70
:1013A00040F228052078C2F200452978814208BF22
:1013B000B0BD05A205A1002805A008BF114607F091
:1013C000D7F820782870B0BD4F4646004F4E000039
:1013D0005B416C61726D5D2025730A0000000000A6
:1013E00080B582B040F23001ADF80600C2F2004193
:1013F000D1F800C0BCF1000F06D00DF106010022AB
:101400000023604604F054FC02B080BD00000000E0
:1014100082B0FFF7A9FE02F09BFE40F238050DF105
:101420000604C2F2004503E04FF47A6004F000FBCA
:1014300002F0F2FE0028F7D0ADF80600286800227E
:101440000023214604F034FCEEE700000000000019
:10145000FFF796FF4FF4FA7004F0EAFAF8E700009D
:1014600004F06EFA04F074FA42F2107004F0E0FA3C
:10147000F8E700000000000084B000F085FC40F2B6
:10148000540740F2340AC2F200474FF002084FF00E
:10149000000901ACC2F2004A17A503E04FF4FA704C
:1014A00004F0C6FA78780028F8D03E46204606F8C0
:1014B000148F06F8139C00F033FA019870600298BC
:1014C000B0600398F060DAF80000002200232146A3
:1014D000019604F0EDFB96ED010A96ED021ABDEEC1
:1014E000C00A2846BDEEC11A10EE101A11EE102ADD
:1014F00007F03EF8D2E700BF5B4750535D207361B1
:101500006D706C65206C61743D2564206C6F6E3D60
:1015100025640A000000000088B003F095FA03F08B
:10152000B3F840F2540840F2340A40F2300B02ACF7
:10153000C2F200480126C2F2004A01AD0FF284094E
:10154000C2F2004B04E000BF4FF4FA7004F070FAEE
:101550001821204603F0A0F840B1DBF8000000227B
:1015600000232946ADF8046004F0A2FB98F80000BF
:101570000028E9D04746002088F8000007F8046FEB
:1015800003F082FA88ED020A03F06EFADAF800003E
:1015900000220023294688ED030A88F8106001978D
:1015A00004F086FB98ED020A98ED031ABDEEC00A1E
:1015B0004846BDEEC11A10EE101A11EE102A06F0C0
:1015C000D7FFC1E75B4932435D2053485433312094
:1015D00073616D706C6520543D25644320483D2542
:1015E0006425250A000000008EB040F2004400206F
:1015F000ADF83200C5F60204ADF8300003F07CFA15
:10160000FFF782FE03F0E0F806A840F2300940F24E
:10161000340A06460C30009002A8C2F200490DF1CF
:101620003205C2F2004A0DAF41F6583841F2883B0C
:101630000430019010E000BF07F0B2F9072003F07A
:1016400077FA03F0A1F8002003F072FA40F23009B3
:101650000DF13205C2F200490121204600F0A4FC40
:10166000D9F8000000224FF47A73294604F074FA86
:101670000028F1D1D9F8000008B104F079FBDAF8BC
:101680000000012408B104F073FBBDF83210002003
:101690000B90CDE90900CDE90700069070A006F097
:1016A00067FF012003F044FA022003F041FADAF860
:1016B000000008B104F05CFB40F25400C2F20040AC
:1016C000447004F0D5F9814600200D9004F0D0F963
:1016D000A0EB090041F65731884239D969A007F0DB
:1016E0005FF903200125344603F022FADAF80000FE
:1016F00008B104F03DFB40F25400C2F20040057016
:1017000004F0B6F9054600200D9004F0B1F9401B35
:1017100041F28731884242D961A007F041F926465B
:1017200040F2004440F238053046C5F60204C2F2E9
:101730000045FFF7C9FD002852D0062003F0F8F954
:1017400001204EE004F094F9A0EB09004045C5D219
:10175000DAF8000000224FF4FA73394604F0FCF97D
:101760000028EFD10D980028ECD001780229E9D1AA
:10177000C16805918168049141680391019A0099BB
:10178000006802901068086050684860906888603F
:10179000A7E700BF04F06CF9401B5845BCD2DAF84B
:1017A000000000224FF4FA73394604F0D5F90028FE
:1017B000F0D10D980028EDD001780129EAD1C16857
:1017C0000591816804914168039101990068029034
:1017D0000868069048680790886808909FE700BFEF
:1017E0000020FFF7C1FD042003F0A2F94FF480416F
:1017F0000122204600F0E0FB304602F099FD10B9CE
:10180000304604F0B9F84FF480410022204600F041
:10181000D3FB286808B104F0ABFA052003F088F97F
:101820000020ADF830002868002241F288330CA96E
:1018300004F092F9002848F62940C0F600007FF431
:10184000FBAE9DF830000138C1B248F62940C0F621
:10185000000002299CBF1AA050F82100ECE600BF4E
:101860005B53746174654D616368696E655D206189
:10187000637469766174696F6E206576656E743D18
:1018800025750A005B53746174654D616368696E08
:10189000655D204750532074696D656F7574000055
:1018A0005B53746174654D616368696E655D205357
:1018B000485433312074696D656F75740000000001
:1018C000078C0008718C00084B8C00080000000099
:1018D000FEE700000000000070470000000000006C
:1018E0004FF4005000F070BA72B600BFFEE700007F
:1018F00044F60400C5F60200816821F0020181600F
:101900000168890409D4016889045CBF01685FEA41
:10191000814102D401688904F2D5704700000000BB
:101920002DE9F04F81B02DED048BB0B040F21C0AD0
:1019300040F27812C2F2004A0446C2F200420FF2AC
:101940001847DAE900012060106800F0010348F64A
:101950004E65C0F600056E466160DAF80810A160B9
:1019600057F8233001301060602130462A4606F0D7
:101970000FFE18AF602138462A46334606F008FEAF
:101980000FF2DC3106223846FEF717FD002800F082
:1019900099800FF2D43118A80622FEF70EFD002818
:1019A00000F090800FF2C83118A80622FEF705FD5E
:1019B00040B10FF2C43118A80622FEF7FEFC002841
:1019C00040F0968148F6C15118A8C0F60001FEF714
:1019D00001FD002800F0AB8148F6C1510020C0F69F
:1019E00000010025FEF7F6FC002800F0338148F6E0
:1019F000C1510020C0F600014FF0000BFEF7EAFCD9
:101A0000002800F02F8148F6C1510546C0F60001BC
:101A100000204FF00009FEF7DDFC002800F0728185
:101A200048F6C1518346C0F6000100204FF000087F
:101A3000FEF7D0FC002800F06F8148F6C1518146C6
:101A4000C0F6000100200026FEF7C4FC002800F0CC
:101A5000698148F6C1518046C0F600010020FEF7BA
:101A6000B9FC002800F0768148F6C1510646C0F660
:101A7000000100200027FEF7ADFC002800F0F980EF
:101A800048F6C1510020C0F600010027FEF7A2FC75
:101A9000002800F0EE8048F6C1510020C0F6000199
:101AA0000027FEF797FC002800F0E38048F6C151BC
:101AB0000020C0F600010027FEF78CFC002F40F04C
:101AC0003681D8E048F6C15118A8C0F60001FEF7EB
:101AD00081FC002800F02B8148F6C1510020C0F69F
:101AE00000010025FEF776FC002800F0818048F612
:101AF000C1510020C0F600010026FEF76BFC002853
:101B00007AD048F6C1510546C0F6000100204FF0DA
:101B1000000BFEF75FFC002800F0A08048F6C151E2
:101B20000646C0F6000100204FF00008FEF752FC08
:101B3000002800F0E38048F6C1518346C0F600015A
:101B400000204FF00009FEF745FC002800F0DE8081
:101B500048F6C1518046C0F600010020FEF73AFC6D
:101B6000002800F0DD8048F6C1518146C0F6000132
:101B700000200027FEF72EFC002845D048F6C15172
:101B80000020C0F600010027FEF724FCE0B348F671
:101B9000C1510020C0F600010027FEF71BFC98B3DE
:101BA00048F6C1510020C0F600010027FEF712FCE4
:101BB00050B348F6C1510020C0F600010027FEF7DF
:101BC00009FC08B348F6C1510020C0F60001002707
:101BD000FEF700FCC0B148F6C1510020C0F600017C
:101BE0000027FEF7F7FB002F40F0A1800FE000BFB9
:101BF0000127002602E000BF012700254FF0000B5F
:101C00004FF000084FF00009002F40F09080287836
:101C1000412840F08C809BF80050304606F0D4FC00
:101C2000B7EEC00B45F004009FED558A57289FED95
:101C3000559A404680EE081AB6EEC11AA1EE480A3F
:101C400080EE090A30EE010A08BFB1EE400A99F8A9
:101C5000005031E001274FF0000B05E0012700267E
:101C6000CEE700BF012700254FF000094FF0000824
:101C70000026002F5BD13078302858D09BF80060C8
:101C8000284606F0A1FCB7EEC00B46F004009FED1D
:101C90003C8A57289FED3B9A484680EE081AB6EEDC
:101CA000C11AA1EE480A80EE090A30EE010A08BF07
:101CB000B1EE400A98F8005084ED000A06F084FC6A
:101CC000B7EEC00B45F0040057284FF0010080EE3E
:101CD000081AB6EEC11AA1EE480A80EE090A30EEE3
:101CE000010A08BFB1EE400A207284ED010A08BB68
:101CF00030B0BDEC048B01B0BDE8F08F01274FF090
:101D0000000B7FE701274FF0000BAFE701274FF0F3
:101D1000000867B97BE700BF01274FF00009A7E77C
:101D200001276FE701274FF00008002FA3D0002004
:101D30000028DDD02068CAF800006068CAF80400F6
:101D4000A068CAF8080030B0BDEC048B01B0BDE853
:101D5000F08F00BF01278BE7C38D0008088E0008B5
:101D600024474E524D430000244750524D4300003B
:101D700024474E4747410000244750474741000051
:101D80000000C8420000704248F66D50C0F60000E6
:101D900006F006BE00000000B0F5005F18BF7047F7
:101DA00080B500F011F940F27C120146C2F2004207
:101DB0001368C01AC828BDE8804001D2704700BF30
:101DC00002201160FFF70CBB8821C5F600010A68EC
:101DD000024208BF70470860FFF7DEBF0000000046
:101DE0002DE9F04F82B00D68002D00F0D98000F190
:101DF000264242F2004702F1FF728305C5F6020750
:101E00000A26B84243EA922208BF0926092A4FF05F
:101E1000000E38BF16460027009600260AE000BFD5
:101E200001360D6835FA06F207F102070EF1040ECD
:101E300000F0B680012202FA06F315EA0308EFD09B
:101E4000D1F80490032209F0030A02FA07F4AAF178
:101E50000105012D14D8D0F808B0D1E902C52BEA4C
:101E6000040BBD4045EA0B058560C9F30015D0F8A9
:101E700004B02BEA0303B5402B43436008E000BFE6
:101E8000D1F808C0BAF1030F08BFBCF1010F25D08B
:101E9000C3684FEA460BE243A3430CFA07F4BAF1D6
:101EA000020F43EA0403C3601ED16FF003030EF078
:101EB0001C0403EA56030F25034405FA04F9D3F87A
:101EC00020C00D692CEA090C05FA04F444EA0C055B
:101ED0001D62D1F8049009F0030A05E04FF0030AEF
:101EE000BB460AFA07F3DA4303680AFA0BF5134014
:101EF00019F4403F43EA0503036091D044F2545281
:101F000040F20849C5F60202C5F60009136843F01D
:101F10000203136013680F2203F00203019326F0FB
:101F20000303019D0EF00C0553F809C002FA05F4F5
:101F3000009A2CEA040402FA05F54FF0B04C254350
:101F400043F80950DCF800304D6843EA0804EA021F
:101F500058BF23EA0804CCF8004040F2040CC5F650
:101F6000000CAC02DCF8002042EA080358BF22EA69
:101F70000803AC03CCF80030DCF8802042EA080308
:101F800058BF22EA0803ED03CCF88030DCF87C204F
:101F900042EA080358BF22EA0803CCF87C303FE746
:101FA00002B0BDE8F08F0000426902EA01039143EC
:101FB00041EA034181617047002A08BF0904816139
:101FC000704700000000000044F2CC30C2F2004034
:101FD000006870470000000040F20C0044F2CC3171
:101FE000C2F20040C2F2004100780A681044086062
:101FF000704700000000000080B5032000F030F9B9
:1020000001F012FA44F2184148F63023C5F60201F5
:10201000C0F600030A68C2F303229A5C096801F063
:102020000F0102F01F02595CD04040F21802C2F2C8
:10203000004201F01F0120FA01F1116040F2140189
:10204000C2F2004108600F2000F00AF800281CBF0F
:10205000012080BD00F0A8F8002080BD0000000035
:102060000F2847D8B0B58AB0044636200022214652
:10207000002500F0C5F8362000F0AEF840F2100060
:10208000C2F20040046044F24850C5F60200016804
:1020900041F010010160006801A900F010000290F9
:1020A000029802A801F00CF9079C002C18BF01242B
:1020B00001F05AF94DF68361A040C4F21B3141F2A0
:1020C0000002A0FB010140F29010C2F200404FF06C
:1020D000FF33C4F20002026003EB9141C0E9011535
:1020E00040F2E731C0E9031501F0FEFC20B1012008
:1020F0000AB0B0BD0120704740F29010C2F200401B
:1021000001F026FD0AB0B0BD10B54EF6A05E4178D4
:10211000CEF2000E90F800C04EF8081CDEF8001059
:1021200021F00101CEF8001041684EF8041C017B3B
:10213000C37A827A447B1B0643EA0171837B41EABE
:10214000C241C27B41EA8441447A41EA4341007A78
:1021500041EA024141EA042141EA400040EA0C0020
:10216000CEF8000010BD00004EF62450CEF2000064
:10217000BFF35F8F016821F48031016000210167A6
:1021800070470000000000004EF6245140F00100AE
:10219000CEF200010867086840F480300860BFF3A1
:1021A0004F8FBFF36F8F704781B044F254500022BD
:1021B000C5F60200016841F00201016000680F21CC
:1021C00000F0020000906FF00100009B01B000F0F1
:1021D00017B8000000000000002848BF704700F05A
:1021E0001F01012202FA01F14EF20012C0F34A105F
:1021F000CEF2000242F820107047000000000000FC
:1022000070B54EF60C5C4FF0FF36CEF2000C00F1CC
:10221000604505F56445DCF80030C3F3022E8EF00E
:102220000703042B28BF0423BEF1030406FA03F3BB
:1022300021EA030100F00F0338BF0024043B00280B
:10224000634406FA04F048BF03F10C05A14022EAFA
:10225000000008430001287070BD0000000000006D
:102260004EF60C514FF6FF03CEF200010A681A40F9
:1022700060F30A2242F0806040F0FD700860704711
:1022800070B544F60C060446C5F60206316830689F
:1022900001F00701062913D120F03F0020433060F0
:1022A000FFF792FE054600BF56F8080C80040DD4D7
:1022B000FFF78AFE401BB0F57A7FF5D91DE000BF1D
:1022C00000F03F00001B18BF012070BDA4F11D01EC
:1022D0000020112912D8012202FA01F111F0031F86
:1022E0000CD0FFF771FE04463068C00308D4FFF736
:1022F0006BFE001BB0F57A7FF6D9012070BD00BFE0
:10230000002070BD0000000080B501F005F844F227
:10231000204148F63022C5F60201C0F600020968E5
:10232000C1F30211515C01F01F01C84080BD0000E3
:1023300080B544F2384EC5F6020E5EF8103C5EF8E9
:10234000101C5EF80C2CC1F3053CDEF80410BCF147
:10235000000F15D0C908D20601EAE2716FF35F31B0
:1023600000EE101A03F003010229B8EE400A0DD066
:1023700081B95EF8381C890610D49FED361A1BE02F
:1023800000218160C0E9001180BD00BF9FED301ABF
:1023900012E000BF9FED2D1A0EE000BF5EF8381C62
:1023A00049F20002C0F2D032C1F3C10122FA01F1B8
:1023B00001EE101AB8EE411ADEF800109FED263A31
:1023C0006FF35F2102EE101ADEF80010C1F3462110
:1023D000B8EE422A00EE032A00EE10CAB7EE003A29
:1023E000B8EE400A81EE000A32EE031A02EE101A2D
:1023F000B8EE422A20EE010A32EE031A80EE011AEC
:10240000BCEEC11A80ED001ADEF80010C1F30641DF
:1024100001EE101AB8EE411A31EE031A80EE011ADD
:10242000BCEEC11A80ED011ADEF80010C1F306619E
:1024300001EE101AB8EE411A31EE031A80EE010ACD
:10244000BCEEC00A10EE101A816080BD0024744AF0
:102450000024F44A0024744C0000003900000000FD
:1024600080B544F2404EC5F6020E5EF8183C5EF8A8
:10247000181C5EF8142CC1F3055CDEF80410BCF1E6
:10248000000F15D0C908D20501EAE2716FF35F3180
:1024900000EE101A03F003010229B8EE400A0DD035
:1024A00081B95EF8401C890610D49FED361A1BE0F6
:1024B00000218160C0E9001180BD00BF9FED301A8E
:1024C00012E000BF9FED2D1A0EE000BF5EF8401C29
:1024D00049F20002C0F2D032C1F3C10122FA01F187
:1024E00001EE101AB8EE411ADEF800109FED263A00
:1024F0006FF35F2102EE101ADEF80010C1F34621DF
:10250000B8EE422A00EE032A00EE10CAB7EE003AF7
:10251000B8EE400A81EE000A32EE031A02EE101AFB
:10252000B8EE422A20EE010A32EE031A80EE011ABA
:10253000BCEEC11A80ED001ADEF80010C1F30641AE
:1025400001EE101AB8EE411A31EE031A80EE011AAC
:10255000BCEEC11A80ED011ADEF80010C1F306616D
:1025600001EE101AB8EE411A31EE031A80EE010A9C
:10257000BCEEC00A10EE101A816080BD0024744ABF
:102580000024F44A0024744C0000003900000000CC
:102590002DE9F0470446C07844F22C480007C5F600
:1025A000020833D5E06E4FEA305103290CD8DFE83A
:1025B00001F003111D2600BFD8F8001041F40031CE
:1025C000C8F800101BE000BF01266078C0070BD0E0
:1025D00020E000BF04F10800022102F00DF90646D8
:1025E00060B16078C00715D1354646E004F1280097
:1025F000022102F095F906460028F2D1E06ED8F8E3
:10260000241021F440110843C8F824000026607803
:10261000C007E9D0A06D04280ED83546DFE800F0E9
:102620000412181E1E0000BFD8F80000354640F402
:102630000030C8F8000011E001250127607880070C
:102640001FD452E004F10800002102F0D5F804E0A4
:1026500004F12800002102F063F905462F461DB160
:10266000607880070DD440E0D8F82400A16D20F0F8
:10267000070000250843C8F8240037466078800723
:1026800033D5E06D4FEAB01005280DD8DFE800F033
:102690000412181E1E1E00BFD8F8000040F40030BF
:1026A000C8F8000012E000BF01250126607840074D
:1026B0001FD452E004F10800002102F09DF804E06C
:1026C00004F12800002102F02BF905462E461DB129
:1026D000607840070DD440E0D8F82400E16D20F484
:1026E000E07000250843C8F824003E4660784007A3
:1026F00033D5206E4FEA702005280DD8DFE800F0B2
:102700000412181E1E1E00BFD8F8000040F400304E
:10271000C8F8000012E000BF01250127E07880071B
:102720001FD44CE004F10800002102F065F804E039
:1027300004F12800002102F0F3F805462F461DB1F0
:10274000E07880070DD43AE0D8F82400216E20F418
:10275000606000250843C8F824003746E078800709
:102760002DD5E06C4FEA301003280DD8DFE800F0DB
:1027700008021208D8F8000040F40030C8F8000041
:102780002E467DB912E000BF012501266078C00603
:1027900019D44CE004F10800022102F02DF805469E
:1027A0002E461DB16078C0060DD440E0D8F8200058
:1027B000E16C20F0300000250843C8F820003E46B8
:1027C0006078C00633D5606E4FEA303004280DD8EB
:1027D000DFE800F00412181E1E0000BFD8F8000049
:1027E00040F40030C8F8000012E000BF01250127C6
:1027F000607880061FD44EE004F10800002101F04B
:10280000FBFF04E004F12800002102F089F80546EE
:102810002F461DB1607880060DD43CE0D8F8240026
:10282000616E20F4E04000250843C8F824003746D4
:10283000607880062FD5A06E4FEA3040052809D871
:10284000DFE800F0040E1404040400BF2E46ADB906
:1028500018E000BF01250126607840061FD451E032
:1028600004F10800012101F0C7FF04E004F1280091
:10287000012102F055F805462E461DB1607840064C
:102880000DD43FE0D8F82400A16E20F4E02000250C
:102890000843C8F824003E466078400632D5D4F894
:1028A000B0004FEA307006280AD8DFE800F0050FC4
:1028B00015050505050000BF2F46ADB918E000BF9E
:1028C000012501276078000620D442E004F10800C9
:1028D000012101F091FF04E004F12800012102F040
:1028E0001FF805462F461DB1607800060ED430E073
:1028F000D8F82C00D4F8B01020F0E04000250843B0
:10290000C8F82C0037466078000622D5A06F58B171
:10291000B0F1005F0CD0B0F1805F2FD1D8F800008B
:1029200040F40030C8F800002E469DB908E000BF12
:1029300004F10800012101F05FFF05462E464DB964
:10294000D8F82400A16F20F0405000250843C8F8B3
:1029500024003E46E078C00733D0A06C032813D88B
:10296000DFE800F008021A08D8F8000040F4003050
:10297000C8F80000A946BDB91AE000BF012501262C
:10298000E078C007E9D11CE001254FF00109A078EB
:1029900040061AD51CE000BF04F10800022101F036
:1029A0002BFF0546A9461DB1A07840060DD50FE0C6
:1029B000D8F82000A16C20F0030000250843C8F8D7
:1029C0002000B146A078400602D44F4618E000BF70
:1029D000D8F8D40340F48070C8F8D403FFF7F4FAB1
:1029E000064600BFD8F8D403C00507D4FFF7ECFAB9
:1029F000801B6428F6D90325032701E02F468DB1FB
:102A00002078C00762D0D4F884004FEAF00005288F
:102A10003AD8DFE800F0033F45030303002D2E46BC
:102A200046D149E0D8F84410D4F8B400414011F43C
:102A3000407F11D0D8F84410D8F8442042F48032B6
:102A4000C8F84420D8F8442021F4407122F48032A0
:102A5000C8F84420C8F84410B0F5807F40F0E08208
:102A6000FFF7B2FA064641F2883A0325032700BF72
:102A7000D8F84400800700F1D182FFF7A5FA801B47
:102A80005045F5D9BCE700BF012501262078800715
:102A900020D44FE004F10800012101F0ADFE04E074
:102AA00004F12800012101F03BFF05462E461DB12F
:102AB000207880070ED43DE0D8F82800D4F88410A0
:102AC00020F0380000250843C8F828003E4620784A
:102AD00080072FD5D4F88000052809D8DFE800F05A
:102AE000040E1404040400BF2F46ADB918E000BF63
:102AF000012501272078400720D44FE004F1080089
:102B0000012101F079FE04E004F12800012101F027
:102B100007FF05462F461DB1207840070ED43DE043
:102B2000D8F82800D4F8801020F0070000250843CA
:102B3000C8F828003746207840072FD5D4F89C00E5
:102B4000052809D8DFE800F0040E1404040400BFCF
:102B50002E46ADB918E000BF012501262078800679
:102B600020D451E004F10800012101F045FE04E009
:102B700004F12800012101F0D3FE05462E461DB1C7
:102B8000207880060ED43FE0D8F82C00D4F89C10B2
:102B900020F0070000250843C8F82C003E462078A6
:102BA000800631D5D4F898004FEA3070052809D84E
:102BB000DFE800F0040E1404040400BF2F46ADB992
:102BC00018E000BF012501272078400620D451E0FD
:102BD00004F10800002101F00FFE04E004F12800D8
:102BE000022101F09DFE05462F461DB120784006CA
:102BF0000ED43FE0D8F82800D4F8981020F0E04038
:102C000000250843C8F8280037462078400631D50B
:102C1000D4F8A4004FEAB020052809D8DFE800F076
:102C2000040E1404040400BF2E46ADB918E000BF22
:102C3000012501262078000620D454E004F1080084
:102C4000002101F0D9FD04E004F12800022101F087
:102C500067FE05462E461DB1207800060ED442E0E0
:102C6000D8F82C00D4F8A41020F4E0500025084334
:102C7000C8F82C003E462078000634D5D4F8A800C9
:102C80004FEA703005280FD8DFE800F004141A046A
:102C9000040400BF2F46E5B12068010727D4C10610
:102CA0003ED4000355D475E00125012720680107B3
:102CB000F5D51CE004F10800002101F09DFD04E0C1
:102CC00004F12800022101F02BFE0546002D2F46BD
:102CD000E2D1D8F82C00D4F8A81020F460400025E8
:102CE0000843C8F82C00374620680107D7D5D4F828
:102CF0008C00B0F5805F09D104F12800022101F0B9
:102D00000FFE002818BF0127D4F88C00D8F828102F
:102D100021F440510843C8F828002068C106C0D5F6
:102D2000D4F8A000B0F5807F09D104F12800022179
:102D300001F0F6FD002818BF0127D4F8A000D8F84C
:102D40002C1021F440710843C8F82C0020680003BF
:102D500020D5D4F8AC00B0F5003F0FD0B0F5803FDF
:102D600006D078BB04F10800002101F045FD04E025
:102D700004F12800022101F0D3FD05462E4655B985
:102D8000D8F82C00D4F8AC1020F4403000250843CB
:102D9000C8F82C003E46A07840072BD5D4F8900008
:102DA000B0F5401F0BD0B0F5001F11D0B0F5801F5B
:102DB0002AD1D8F8000040F40030C8F800002F46AF
:102DC000CDB90DE001250126A0784007E6D411E039
:102DD00004F12800012101F0A3FD05462F4655B955
:102DE000D8F82800D4F8901020F4401000250843AB
:102DF000C8F828003746A078C0070AD13E462168A7
:102E0000880016D533E000BF01250127A078C00750
:102E1000F4D0206DB0F5803F10D018BBD8F800007A
:102E200040F40030C8F800002E4685B121688800C3
:102E30001DD460688A0326D469E000BF04F108004D
:102E4000022101F0D9FC0546002D2E46EED1D8F81E
:102E50002000216D20F4803000250843C8F82000B0
:102E6000CCE700BF0125012621688800E1D504F1E7
:102E70002800022101F054FD002818BF0126D4E9E2
:102E800000108A0343D5D4F888206FF0010303EBC8
:102E90003223022B0BD34FEA322343B1012B40F0F4
:102EA000B780D8F8003043F40033C8F800303DB3A1
:102EB000CA022FD48A0237D40A053FD44A0047D425
:102EC000CA0F54D109025CD4C10765D181076ED401
:102ED000410778D4010700F18280C10600F18B80A0
:102EE000800607D504F12800022101F019FD002811
:102EF00018BF0125002D18BF01252846BDE8F08721
:102F0000D8F8283023F440731A43C8F828203546EF
:102F1000CA02CFD5D8F82420E36F22F000421A432A
:102F2000C8F824208A02C7D5D8F82420236F22F0BD
:102F300080721A43C8F824200A05BFD5D8F82C207F
:102F4000636F22F000621A43C8F82C204A00B7D5FC
:102F500058F81C2C22F4004248F81C2CD4F8B82055
:102F600058F81C3C1A4348F81C2CCA0FAAD0D8F8B1
:102F70002020636D22F040521A43C8F82020090235
:102F8000A2D5D8F82810D4F8942021F44001114398
:102F9000C8F82810C10799D004F10800002101F0F9
:102FA0002BFC002818BF05466068810790D504F106
:102FB0000800012101F020FC002818BF05466068C8
:102FC00041077FF587AF04F10800022101F014FCEE
:102FD000002818BF0546606801077FF57EAF04F141
:102FE0002800002101F09CFC002818BF05466068FD
:102FF000C1067FF575AF04F12800012101F090FCB6
:10300000002818BF0546606880063FF56BAF71E782
:103010000125CA027FF54EAF7CE700BFD4F8B400AB
:103020004FF6CF7358F81C2CC0F2FF0300F4407128
:1030300022F47C5203EA10136FF31F30B1F5407F86
:1030400008BF1A43002548F81C2CD8F84410084340
:10305000C8F84400FFF7B9BC2DE9F04381B000285F
:1030600000F02A8142F200080446C5F20028894691
:10307000D8F8000000F00F0088420ED2D8F8000007
:1030800020F00F0040EA0900C8F80000D8F800005E
:1030900000F00F00484540F00F81206844F21847C7
:1030A0004107C5F602070AD521693A6802F07002A5
:1030B000914204D93A6822F0700211433960010745
:1030C0000AD561697A6802F07002914204D97A687F
:1030D00022F0700211437960C1060AD5A1697A68AD
:1030E00002F4E062914204D97A6822F4E06211436A
:1030F000796081060AD5E169BA6802F070029142EE
:1031000004D9BA6822F070021143B96010F00201CC
:103110000AD0E2683B6803F00F039A4204D93B6887
:1031200023F00F031A433A60C20746D03968D4E946
:10313000010221F47061012841EA0201396009D0DD
:1031400003280DD0022811D157F8181C890312D476
:10315000B2E000BF57F8181CC9050CD4ACE000BFA2
:1031600057F8181C890106D4A6E000BF57F8181CB0
:10317000490740F1A18057F8081C21F007010843D6
:1031800047F8080CFEF720FF064641F2883500BFDD
:1031900057F8080C616800F03800B0EBC10F09D097
:1031A000FEF712FF801BA842F2D9032001B0BDE850
:1031B000F08300BF206800F0020151B1E1683A6875
:1031C00002F00F02914204D23A6822F00F0211433A
:1031D0003960D8F8001001F00F0149450DD9D8F831
:1031E000001021F00F0141EA0901C8F80010D8F8D9
:1031F000001001F00F0149455ED141070AD5216950
:103200003A6802F07002914204D23A6822F07002E9
:103210001143396001070AD561697A6802F07002CA
:10322000914204D27A6822F0700211437960C1069B
:103230000AD5A1697A6802F4E062914204D27A6800
:1032400022F4E0621143796080060AD5E069B9682A
:1032500001F07001884204D2B96821F0700108437E
:10326000B86000F0E1F8396848F63022C0F6000294
:10327000C1F30321515C3B6803F00F0301F01F0110
:10328000D25C20FA01F102F01F0040F21802C2F2F3
:10329000004221FA00F0106040F2100040F21402E7
:1032A000C2F20040C2F200420068116001B0BDE805
:1032B000F043FEF7D5BE00BF012001B0BDE8F083AA
:1032C0003F22026044F21842C5F6020252F8083C5E
:1032D00003F007034360136803F4706383601368AB
:1032E00003F00F03C360136803F0700303615368B6
:1032F00003F070034361536803F4E06383619268F1
:1033000002F07002C26142F20000C5F200200068C3
:1033100000F00F000860704780B500F085F844F2B7
:10332000184148F63023C5F60201C0F600030A68CA
:10333000C2F303229A5C096801F00F0102F01F0238
:10334000595C20FA02F201F01F0040F21801C2F2AB
:10335000004122FA00F0086040F21401C2F200417C
:103360000A6080BD0000000080B500F05DF844F206
:10337000184C48F63023C5F6020CC0F60003DCF802
:103380000020C2F303229A5CDCF8001001F00F0168
:1033900002F01F02595CD04040F21802C2F2004213
:1033A00001F01F0120FA01F1116040F21402C2F293
:1033B00000421060DCF80400C0F30210185C00F05A
:1033C0001F0021FA00F080BD80B500F02DF844F216
:1033D000184C48F63023C5F6020CC0F60003DCF8A2
:1033E0000020C2F303229A5CDCF8001001F00F0108
:1033F00002F01F02595CD04040F21802C2F20042B3
:1034000001F01F0120FA01F1116040F21402C2F232
:1034100000421060DCF80400C0F30220185C00F0E9
:103420001F0021FA00F080BD44F20041C5F6020100
:103430000869C0F3C200032810D002282ED098BB20
:103440000868800649F20000C0F2D03058BF7047CB
:103450000968C1F3C101C840704700BF8A6A886A21
:10346000C0F3051CC86ABCF1000F4B6B22D000F002
:10347000010002F003024042022A00EAD3006FF387
:103480005F3000EE100AB8EE400A15D0C2B90868E5
:10349000800619D49FED281A23E000BF41F20020D6
:1034A000C0F27A00704700BF40F60010C0F23D0045
:1034B000704700BF002070479FED1E1A11E000BF4B
:1034C0009FED1B1A0DE000BF086849F20002C0F230
:1034D000D032C0F3C10022FA00F001EE100AB8EEBB
:1034E000411A086B9FED153A6FF35F2002EE100A48
:1034F000086BC0F34620B8EE422A013000EE032AE2
:1035000000EE10CAB7EE003AB8EE400A81EE000AAB
:1035100032EE031A20EE010A01EE100AB8EE411A4B
:1035200080EE010ABCEEC00A10EE100A704700BF20
:103530000024744A0024F44A0024744C000000392A
:1035400070B3F0B581B00446007844F20046C0077D
:10355000C5F6020626D12078800774D5306910F0B0
:103560003801B06A3ED0182908BF5FEA807039D0B0
:10357000E0683168002800F0358121F01901084326
:103580003060FEF721FD05463068400754D4FEF751
:103590001BFD401B0228F7D9032001B0F0BD00BF7E
:1035A00001207047306900F03801B06A102905D059
:1035B00018290BD100F00300022807D130688003DE
:1035C000C9D560680028C6D1B4E000BF6068B0F516
:1035D000A02F23DA002800F06981B0F5803F00F0C9
:1035E00089818BE130684007E06802D5002800F04F
:1035F000A180316821F0190108433060FEF7E4FC36
:10360000054600BF3068400716D4FEF7DDFC401BBE
:1036100002284FF00300F5D901B0F0BD00F062813F
:10362000B0F5A81F40F06A81306840F48020306017
:10363000306840F480105CE17068216920F0FE4041
:1036400040EA016070602078C0061AD5306900F049
:103650003801B06A082907D0182940F0858000F0A9
:103660000300012840F080803068C00502D5E06981
:1036700080285FD1F068216A20F07C5040EA016028
:10368000F060207800073FD42078800656D4207858
:10369000400700F17F80656A9DB3306900F0380013
:1036A000182840F0E180012DB16A306B42D001F062
:1036B0000302A36A9A423DD1C1F30511E26A914225
:1036C00038D10146226B6FF35F21013A914231D12B
:1036D000C0F34622616B01398A422BD1C0F3064206
:1036E000A16B01398A4225D1C0F30660E16B013933
:1036F00088421FD1706BA16CC0F3CC00814240F0B6
:10370000CD81002001B0F0BD60690028706F57D0F6
:1037100040F001007067FEF757FC0546706F8007A8
:10372000B2D4FEF751FC401B0228F7D9032001B0A8
:10373000F0BD00BF012001B0F0BD00BFA0690028AE
:1037400030686DD040F480503060FEF73DFC054697
:10375000306880049BD4FEF737FC401B0228F7D961
:10376000032001B0F0BD00BFE0690028306869D0D7
:1037700040F080003060FEF727FC05463068C00549
:103780003FF578AFFEF720FC401B02284FF0030006
:10379000F4D941E7D6F8000440F48070C6F800047C
:1037A000FEF712FC054600BFD6F80004C0052BD476
:1037B000FEF70AFC401B6428F6D9032001B0F0BDD7
:1037C00020F001007067FEF7FFFB0546706F800771
:1037D0007FF55AAFFEF7F8FB401B02284FF00300BD
:1037E000F4D919E721F001003060FEF7EDFB054642
:1037F000306840077FF527AFFEF7E6FB401B022845
:103800004FF00300F4D907E7A068042800F3928082
:10381000002800F09B80012800F0BE80C0E000BFBF
:1038200020F480503060FEF7CFFB054630688004FE
:103830007FF52DAFFEF7C8FB401B02284FF00300B9
:10384000F4D9E9E620F080003060FEF7BDFB0546C4
:103850003068C0057FF515AFFEF7B6FB401B0228A8
:103860004FF00300F4D9D7E6306820F08070306064
:10387000FEF7AAFB022D05460CD100BF306880017F
:1038800040F1AC80FEF7A0FB401B02284FF0030084
:10389000F4D9C1E6306880017FF533AFFEF794FBC1
:1038A000401B02284FF00300F4D9B5E6306820F43D
:1038B00080303060306820F480103060306820F450
:1038C00080203060FEF780FB054600BF3068800333
:1038D0007FF541AEFEF778FB401B64284FF00300F4
:1038E000F4D999E6306840F480203060306820F4E4
:1038F00080103060306840F480300AE0306820F496
:1039000080303060306820F480203060306820F4EF
:1039100080103060FEF758FB054600BF306880031A
:103920003FF519AEFEF750FB401B6428F6D9032083
:1039300001B0F0BD052827D0852831D1306F40F087
:1039400004003067306F40F0800024E0306F20F0DA
:1039500001003067306F20F080003067306F20F05A
:1039600004003067FEF730FB054641F28837306FC0
:1039700080077FF590AEFEF727FB401BB8424FF063
:103980000300F4D948E600BF306F40F00400306710
:10399000306F20F080003067306F40F001000AE0A7
:1039A000306F20F001003067306F20F00400306786
:1039B000306F20F080003067FEF706FB054641F2CD
:1039C000883700BF306F80073FF565AEFEF7FCFA21
:1039D000401BB8424FF00300F4D91DE604F128075C
:1039E000B06A40F2F33188438ECF0843591E40EA53
:1039F00002104FF47E426FF35F21B06202EB47206A
:103A00004FF4FE0280B2E36B0844A16B02EB01416C
:103A10004FF0FE4201F4FE0102EB0362084402F0A3
:103A2000FE4108443063F06A4FF6F87120F001005F
:103A3000F062706BA26C884340EAC2007063F06A67
:103A4000216C20F00C000843F062F06A616C20F0F9
:103A500002000843F062F06A40F48030F062F06ADD
:103A600040F40030F062F06A40F48020F062F06AC6
:103A700040F00100F062306840F080703060FEF786
:103A8000A3FA0446306880013FF53BAEFEF79CFA8E
:103A9000001B02284FF00300F4D9BDE5F06A20F0C6
:103AA0000100F062FEF790FA0546FEF78DFAA84293
:103AB000FBD0706B4FF6F871A26C884340EAC200ED
:103AC0007063F06A40F00100F062002001B0F0BDC8
:103AD0007047000000000000704700000000000078
:103AE000704700000000000060B310B5044690F875
:103AF0003D0028B9002084F83C00204600F024F85E
:103B0000022084F83D002068211D01F03DF90120CC
:103B100084F8480084F83E0084F83F0084F84000B0
:103B200084F8410084F8420084F8430084F844009B
:103B300084F8450084F8460084F8470084F83D0086
:103B4000002010BD012070477047000000000000F9
:103B500090F83D1001291BD1022180F83D10016829
:103B600041F2FF70C4F200008142C86840F00100D9
:103B7000C8600FDC40F2FF70C4F20000814217DC25
:103B8000B1F1804F2CD040F20040C4F2000025E09B
:103B90000120704740F2FF30C4F20100814213DC83
:103BA00041F60000C4F20000814219D0002013E069
:103BB00040F60000C4F20000814211D040F60040FF
:103BC000C4F200000AE000BF44F20000C4F20100A9
:103BD000814205D040F20040C4F2010081420BD185
:103BE00007228868C0F2010202400020062A18BF9E
:103BF000B2F5803F00D17047086840F001000860CE
:103C00000020704700000000704700000000000026
:103C1000F0B581B004460068C5680669B10717D5DC
:103C200015F0020114D06FF002010161012121772A
:103C30008069800704D02046FFF7E6FF06E000BF5A
:103C4000204600F09DF8204600F09EF800202077E6
:103C5000700719D515F0040016D020686FF0040124
:103C6000016102212177806910F4407F04D0204651
:103C7000FFF7CAFF06E000BF204600F081F82046AB
:103C800000F082F800202077300717D515F00800E3
:103C900014D020686FF00801016104212177C06908
:103CA000800703D02046FFF7AFFF05E0204600F075
:103CB00067F8204600F068F800202077F00619D554
:103CC00015F0100016D020686FF010010161082176
:103CD0002177C06910F4407F04D02046FFF794FF9D
:103CE00006E000BF204600F04BF8204600F04CF8FC
:103CF00000202077F00718BF15F0010006D02068DB
:103D00006FF001010161204600F042F805F08007E4
:103D100016F4025F18BF002F02D1F00509D410E09D
:103D200020686FF4025101612046FFF7D5FEF005CF
:103D300007D537B120686FF4807101612046FFF725
:103D4000C7FE700609D515F0400006D020686FF058
:103D500040010161204600F027F8B0060CD515F0AF
:103D6000200009D020686FF020010161204601B0D9
:103D7000BDE8F040FFF7B4BE01B0F0BD00000000A8
:103D800070470000000000007047000000000000C5
:103D900041F200010068C4F20001884218BF704778
:103DA000FEF71AB900000000704700000000000094
:103DB00090F88410012901D1022070472421C0F815
:103DC000881002681368116823F0005321F0010184
:103DD00011600021416613602022C0F8882080F81D
:103DE000841008467047000090F88420012A01D111
:103DF0000220704770B52422C0F888200268D0F8ED
:103E000064E0BEF1000FD2F800C0136823F0010394
:103E10001360936823F0606341EA0301916019D055
:103E2000916848F6303E9368C0F6000E5B0F48F686
:103E30003835C1F34266C0F600051EF80340E95C60
:103E40002301B3FBF1F11EF80630AE5D1B01B3FB9D
:103E5000F6F301E001210123A0F86A102021A0F867
:103E60006830C2F800C0C0F88810002180F88410C3
:103E7000BDE870400846704790F88420012A01D1BF
:103E80000220704770B52422C0F888200268D0F85C
:103E900064E0BEF1000FD2F800C0136823F0010304
:103EA0001360936823F0604341EA0301916019D0E5
:103EB000916848F6303E9368C0F6000E5B0F48F6F6
:103EC0003835C1F34266C0F600051EF80340E95CD0
:103ED0002301B3FBF1F11EF80630AE5D1B01B3FB0D
:103EE000F6F301E001210123A0F86A102021A0F8D7
:103EF0006830C2F800C0C0F88810002180F8841033
:103F0000BDE870400846704710B5D8B10446D0F8F7
:103F1000880028B9002084F88400204600F028F8A2
:103F20002420C4F888002068A16A0268002922F0D1
:103F30000101016002D0204600F0D6FF204601F0CA
:103F4000FFF808B1012010BD2068416821F49041BC
:103F50004160816821F02A018160016841F001011E
:103F600001602046BDE8104001F02EB800000000BE
:103F7000B0B5B6B06946044601F10800B821FCF7B7
:103F8000FFF944F600012068C4F20001884201D024
:103F900036B0B0BD68460024019402250095FEF7B6
:103FA000F7FA08B1FDF7A0FC44F24050C5F6020054
:103FB000816841F480218160816801F48021319120
:103FC0003199016841F008010160006831A900F0F1
:103FD0000800319031984FF44070CDE93105072049
:103FE000359040F60040C5F60200CDE93344FDF7B8
:103FF000F7FE36B0B0BD00002DE9F04381B00446B5
:10400000D0F88800202863D1884600294FF00100AD
:1040100000F090801646002A00F08C801D4600209B
:10402000C4F890002120C4F88800FDF7CDFFA4F863
:104030005460A4F856600646A168B1F5805F02D1CD
:104040002069002848D047464FF00008B4F85600D1
:104050002168002846D005F1010900BFC8690006A3
:104060000ED4B9F1000F0FD0002D5DD0FDF7ACFFDD
:10407000801BA8425AD821680868C8690006F5D58F
:1040800087B117F8010B12E0C8690006F8D4C869B7
:1040900000065CBFC8695FEA0060F1D4C869000629
:1040A000F2D5EDE738F8020B00276FF35F20886246
:1040B000D4F8880000F0210021283FD1B4F8560040
:1040C0000138A4F85600B4F856000028C6D109E01B
:1040D000022001B0BDE8F0830027B4F85600216843
:1040E0000028B8D1C86940061CD4EDB1681C0FD1B6
:1040F000C869400616D4C869400613D4C86940068A
:1041000010D4C86940064FF00000F1D50FE000BFA1
:10411000FDF75AFF801BA84208D820680168C069D3
:104120004006F5D5002002E0FDF74EFF03202021D8
:10413000C4F8881001B0BDE8F08300BF012001B0D1
:10414000BDE8F08300000000FEE700000000000072
:1041500010B5FDF7B1F8E8B148F6257013A1C0F627
:10416000000004F005FA48F6CE6448F61770C0F671
:104170000004C0F60000214604F0FAF940F2702174
:104180000EA0C2F2004101220A702146BDE8104093
:1041900004F0EEB940F2702112A0C2F200410022F8
:1041A0000A70BDE8104004F0FBBB00BF41542B4334
:1041B0004D51545453544152540000005B4D5154DE
:1041C000545D20696E697420257320284154206352
:1041D0006F6D6D616E64206672616D65776F726B75
:1041E000290A00005B4D5154545D20696E697420AA
:1041F000736B69707065643A204169723738304575
:10420000206E6574776F726B206E6F7420726561BB
:104210006479000000000000B0B540F2841148F657
:104220003962C2F20041C3F6E3024CF21D73086822
:10423000C1F671430130086042439A4218D34AF6EE
:10424000AB214AF6AB22CAF6AA21C2F6AA224843FB
:104250004FEA7001914215D348F6506421A1C0F68F
:10426000000410F1AA3F38BF0C46207818B90DE0C1
:1042700013A4207850B120A12046FCF78CF848B157
:10428000012517E013A420780028F4D10025E8B216
:10429000B0BD00BF1AA12046FCF77DF810B1022581
:1042A00008E000BF18A12046FCF775F80546002875
:1042B00018BF032517A0214604F05AF9E8B2B0BD93
:1042C0007B22636D64223A2252455455524E227D20
:1042D000000000007B22636D64223A22484F4C4468
:1042E000227D00007B22636D64223A22434F4E54AC
:1042F000494E5545227D0000484F4C4400000000C7
:1043000052455455524E0000434F4E54494E554568
:10431000000000005B4D5154545D20636C6F756468
:10432000207061796C6F61643A2025730A00000087
:10433000002847D010B5A4B00446FCF7BDFF002804
:104340004FF000003BD040F27021C2F200410978EA
:10435000A9B394ED000A94ED011ABDEEC00A207DC8
:1043600094ED032A94ED043A04AC039010EE103A55
:10437000BDEEC30ABDEEC11A13A2BDEEC22A802152
:1043800020468DED001A8DED012A8DED020A04F014
:10439000FFF81BA0214604F0EBF848F6257020A199
:1043A000C0F6000004F0E4F848F6177048F6CE6155
:1043B000C0F60000C0F6000104F0DAF8012024B0D5
:1043C00010BD00BF002070477B2274656D70223ADB
:1043D00025642C2268756D223A25642C226C617448
:1043E000223A25642C226C6F6E223A25642C2267B7
:1043F00070735F76616C6964223A25757D000000F8
:104400005B4D5154545D207075626C697368207403
:10441000656C656D657472792025730A0000000073
:1044200041542B434D51545450554200000000005C
:1044300010B548F640321020C0F60002022101F00B
:10444000DFFB40F2300448F67032C2F20044C0F69E
:10445000000204212060102001F0D2FB48F65832FF
:104460006060C0F600020820022101F0C9FBA060D4
:1044700044F6F12048F6F422C0F60000C0F600022F
:10448000002101F099FCE06044F6C92048F6402282
:10449000C0F60000C0F60002002101F08DFC206192
:1044A00044F6E92048F6D022C0F60000C0F600022B
:1044B000002101F081FC606144F6E12048F6AC2265
:1044C000C0F60000C0F60002002101F075FCA061FA
:1044D00044F6D92048F68822C0F60000C0F6000253
:1044E000002101F069FCE06144F6D12048F6642225
:1044F000C0F60000C0F60002002101F05DFC206261
:1045000010BD0000000000002DE9F04786B044F225
:1045100040504FF0000AC5F6020040F20045CDE9D8
:1045200004AA0168C5F6020541F0040101600168B2
:10453000002201F0040100910099016841F080011E
:104540000160016844F2010801F0800100910099C6
:10455000016841F002010160016801F0020100916F
:104560000099016841F008010160016801F008014B
:1045700000910099016841F010010160006844F267
:10458000010100F01000009000982846FDF714FD8E
:1045900005F540640221002220464FF00209FDF794
:1045A0000BFD01AE4FF4005001904FF40410029047
:1045B00005F58060314601270397FDF711FC284679
:1045C0003146CDE90187CDE903AAFDF709FC204674
:1045D0003146CDE90197CDE903AAFDF701FC28207A
:1045E00005210022FDF70CFE2820FDF7F5FD06B0A1
:1045F000BDE8F0870000000080B540F2DC1044F612
:104600000001C2F20040C4F200010C2201604FF42C
:10461000E13141600021C0E902110161C0E90521D9
:10462000C0E90711C0E90911FFF76EFC08B1FDF7F9
:104630005BF940F2DC100021C2F20040FFF71CFCE5
:1046400008B1FDF751F940F2DC100021C2F2004040
:10465000FFF7CAFB08B1FDF747F940F2DC10C2F2E0
:104660000040FFF7A5FB002808BF80BDBDE88040E3
:10467000FDF73AB900000000FEE70000000000006E
:10468000FEE700000000000048F62850C0F60000D9
:1046900004F086B90000000040F2881C4CF6CD42C0
:1046A000C2F2004CCCF6CC42DCF800305A43B2F1F6
:1046B000333F03F10102CCF8002009D280B5002875
:1046C00018BF002906D10BA004F06AF9012080BDB3
:1046D0000020704703A203F05BFF06A004F060F91E
:1046E000012080BD4D4F434B2D5549442D30303175
:1046F000000000005B504E3533325D206361726410
:104700002064657465637465643A204D4F434B2D96
:104710005549442D303031000000000000000000F9
:10472000EFF30980BFF36F8F154B1A681EF0100F5F
:1047300008BF20ED108A20E9F04F10602DE9090034
:104740004FF0500072B680F31188BFF34F8FBFF364
:104750006F8F62B602F03CFD4FF0000080F31188CD
:10476000BDE8090019680868B0E8F04F1EF0100FA6
:1047700008BFB0EC108A80F30988BFF36F8F7047D1
:10478000640300240000000001A004F009B900BF88
:104790005B506F7765725D20656E74657220736C17
:1047A00065657020737475622C2077616974696E19
:1047B00067206E6578742061637469766174696FCF
:1047C0006E0000000000000001A004F0E9B800BF86
:1047D0005B506F7765725D20696E6974204F4B2066
:1047E0002853746F70204D6F64652073747562294F
:1047F0000000000000000000F0B581B044F22C473A
:10480000C5F6020757F8042C02F00302032A03D16D
:10481000012001B0F0BD00BF054657F82C0C0C4636
:1048200020F0806047F82C0CFDF7CEFB064600BF59
:1048300057F82C0C000105D5FDF7C6FB801B02289C
:10484000F6D964E057F8040CEE6895E80E0020F401
:104850007C30012C40EA0130A2F101016FF35F21AD
:104860004FF47E4202EB432247F8040C92B24FF021
:10487000FE4302EB01004FF4FE012A6901EB064101
:1048800001F4FE0103EB0262084402F0FE41084419
:10489000F8603868696920F0C00040EA01003860BB
:1048A0003868A96920F0200040EA010038603868C3
:1048B0004FF6F87120F0100038603869EA6920EA94
:1048C00001004FF4001140EAC2003861386808BFA7
:1048D0004FF4801140F01000002C386008BF4FF4F6
:1048E000002138680843386057F82C0C40F080608D
:1048F00047F82C0CFDF768FB044600BF57F82C0C5A
:10490000000107D4FDF760FB001B0328F6D303204A
:1049100001B0F0BD002001B0F0BD000000000000BB
:10492000F0B581B044F22C47C5F6020757F8042CC5
:1049300002F00302032A03D1012001B0F0BD00BF41
:10494000054657F82C0C0C4620F0805047F82C0CEC
:10495000FDF73AFB064600BF57F82C0C800005D542
:10496000FDF732FB801B0228F6D964E057F8040CEF
:10497000EE6895E80E0020F07C70012C40EA0150B2
:10498000A2F101016FF35F214FF47E4202EB43225B
:1049900047F8040C92B24FF0FE4302EB01004FF4D3
:1049A000FE012A6901EB064101F4FE0103EB0262FC
:1049B000084402F0FE41084478613868696920F4CF
:1049C000406040EA010038603868A96920F400704E
:1049D00040EA0100386038684FF6F87120F48070C2
:1049E0003860B869EA6920EA01004FF0807140EA56
:1049F000C200B861386808BF4FF4000140F480700D
:104A0000002C386008BF4FF48001386808433860D4
:104A100057F82C0C40F0805047F82C0CFDF7D4FAD6
:104A2000044600BF57F82C0C800007D4FDF7CCFAE1
:104A3000001B0328F6D3032001B0F0BD002001B015
:104A4000F0BD00000000000080B548F6E340C0F66D
:104A5000000003F0A5FF40F2C8700121C2F200403F
:104A6000017080BD0000000040F2C870C2F200403A
:104A7000017809B9012101709FED010A704700BF5B
:104A8000000070420000000040F2C8709FED030A71
:104A9000C2F2004001210170704700BF0000CC410C
:104AA000074B19680868B0E8F04F80F30988BFF336
:104AB0006F8F4FF0000080F31188704700BF00BF78
:104AC0006403002400000000FCF7A2BC000000000A
:104AD000FCF7BEBC00000000FCF7C2BC00000000F8
:104AE000FCF7CABC00000000FCF716BD0000000087
:104AF000FCF77ABD0000000040F28D1248F6DD415F
:104B0000C2F2004203A0C0F600010023137003F0BC
:104B10002FBD00BF5B53746174654D616368696E3E
:104B2000655D20696E6974202D3E2025730A0000A2
:104B3000B0B540F28D15C2F200452978814208BF18
:104B4000B0BD044648F604200729C0F600000DD881
:104B500050F82110072C0FD948F6CE42C0F60002BB
:104B600009A003F005FD2C70B0BD00BF48F6CE4192
:104B7000C0F60001072CEFD850F8242002A003F063
:104B8000F7FC2C70B0BD00BF5B53746174654D6160
:104B90006368696E655D202573202D3E2025730AAC
:104BA000000000000000000080B54EF21000CEF2C0
:104BB0000000006803F020FA012808BF80BDBDE8AE
:104BC000804002F029BC0000B0B59CB044F6180447
:104BD0004FF69840C5F60204CFF6FF704FF6FF710E
:104BE0000025CDE91055CDE90E55CDE90C55CDE99F
:104BF0000A550895CEF20301CDE90655CDE90455D5
:104C0000CDE90255019521500420FDF739FB0095AF
:104C1000206840F440402060206800F4404000904C
:104C200000982068800409D4206880045CBF206854
:104C30005FEA804002D420688004F2D50220099007
:104C400001210C911290002504212322CDE9152089
:104C5000CDE917100C204024CDE9190509A80D94C1
:104C6000139514911B95FEF76BFC18B172B600BF3B
:104C7000FEE700BF3F20019003200621CDE9020599
:104C80004FF480600694CDE9070401A8CDE90454EF
:104C9000FEF7E2F910B172B6FEE700BF1CB0B0BD7E
:104CA0004EF6885042F2000CCEF20000C5F2002C05
:104CB000026842F470020260DCF8000000F00F00AD
:104CC000022806D8DCF80000032262F30300CCF8C7
:104CD000000044F200404EF67F51C5F60200CEF6C9
:104CE000F621026842F001020260002202610368BC
:104CF00019400160DCF8001011F00C0F06D0DCF850
:104D00000010032363F30301CCF8001040F20021EC
:104D10008261C261C0F20221026281620021C0F29E
:104D2000FF11C16240F28021C0F2011101634263B0
:104D30008163C26301644264016821F480210160DF
:104D40000266D0F83411C90448BF7047D0F8341156
:104D500043F2D20241F48051C0F8341144F2000110
:104D6000C5F200210A60D0F8341121F48051C0F856
:104D7000341170470000000040F29010C2F2004071
:104D8000FEF746BF0000000040F6FF32C4F200020A
:104D90009042026810DCB0F1804F1ED040F2004318
:104DA000C4F20003984218D040F60003C4F2000396
:104DB000984212D015E000BF40F60043C4F2000351
:104DC00098420AD040F20043C4F20103984204D052
:104DD0000023C4F20103984203D122F070024B6811
:104DE0001A434FF6FF7343F6FF7CC4F20003C4F28C
:104DF000010C984214DD604522DD44F20003C4F248
:104E00000103984234D044F60003C4F201039842EF
:104E10002ED044F20043C4F20103984228D02BE084
:104E200040F2FF73C4F20003984215DCB0F1804FEA
:104E30001ED040F20043C4F20003984218D01BE099
:104E40000023C4F20103984212D040F20043C4F29E
:104E5000010398420CD00FE040F60003C4F20003B7
:104E6000984205D040F60043C4F20003984203D1B3
:104E700022F44072CB681A4310B5D1F814E06045B3
:104E80000B688C68C462836212DD44F20003C4F2D2
:104E90000103984217D044F60003C4F2010398427C
:104EA00011D044F20043C4F2010398420BD00CE04D
:104EB0000023C4F20103984205D040F20043C4F23B
:104EC0000103984201D109690163016841F00401BD
:104ED00001600121416122F0800141EA0E0101607F
:104EE00010BD000000000000816A0A070CD4CA0748
:104EF00015D18A071ED44A0727D4CA0630D48A0699
:104F000039D44A0642D454E00268D0F838C0536815
:104F100023F4004343EA0C035360CA07E9D0026854
:104F2000D0F82CC0536823F4003343EA0C035360D9
:104F30008A07E0D50268D0F830C0536823F4803384
:104F400043EA0C0353604A07D7D50268D0F834C04F
:104F5000536823F4802343EA0C035360CA06CED57A
:104F60000268D0F83CC0936823F4805343EA0C03F2
:104F700093608A06C5D50268D0F840C0936823F4D0
:104F8000005343EA0C0393604A0612D50268D0F836
:104F900044C0BCF5801F536823F4801343EA0C031C
:104FA000536006D1536823F4C00C836C43EA0C03AE
:104FB0005360090658BF70470168C06C4A6822F404
:104FC0000022104348607047B0B582B0044600200C
:104FD000C4F89000FCF7F8FF216805460A6812073C
:104FE00037D54FF4001100226FF07E40009020462C
:104FF0002B4600F0F5FA58B3206850E8000F2168FE
:1050000020F0800041E80002F2B1206850E8000F73
:10501000216820F0800041E80002002A1FBF2068BC
:1050200050E8000F216820F080001CBF41E800021A
:10503000002A09D0206850E8000F216820F0800085
:1050400041E80002002AD7D12020C4F8880062E09D
:1050500021680868400765D54FF4800100226FF091
:105060007E40009020462B4600F0BAFA002859D026
:10507000206850E8000F216820F4907041E8000299
:10508000F2B1206850E8000F216820F4907041E8E8
:105090000002002A1FBF206850E8000F216820F49A
:1050A00090701CBF41E80002002A09D0206850E837
:1050B000000F216820F4907041E80002002AD7D147
:1050C000206850E8020F216820F0010041E8020248
:1050D000F2B1206850E8020F216820F0010041E899
:1050E0000202002A1FBF206850E8020F216820F04A
:1050F00001001CBF41E80202002A09D0206850E8E4
:10510000020F216820F0010041E80202002AD7D1F5
:105110002020C4F88C000320002184F8841002B001
:10512000B0BD00BF2020C4F88800C4F88C00002067
:10513000E0662067002184F8841002B0B0BD000052
:10514000F0B583B00446006846F6F31640F6004E0C
:1051500022696569D4E902130A43E7690168CCF65C
:10516000FF762A4331401143C5F6000E39430160F2
:105170004168704521F4405144F2544C41EA030126
:105180004160A2694FF2FF431CBF216A0A43816854
:10519000C1F2FF131940C5F6020C1143816047F6B6
:1051A000FF32C16AC4F2000221F00F01656A904229
:1051B0004FF0800341EA0501C16219DD41F2FF7140
:1051C000C4F20101884229DC47F60041C4F2000123
:1051D000884253D041F20001C4F20101884235D027
:1051E00041F20041C4F2010188422FD052E000BFD9
:1051F00044F6FF31C4F20001884233DD44F6004139
:10520000C4F20001884239D045F20001C4F2000125
:10521000884233D047F600012CE000BF41F6000180
:10522000C4F20101884211D041F60041C4F20101EB
:1052300088420BD070452DD1DCF8041001F0070234
:10524000062A27D20FF28C3122E000BFDCF80010D2
:10525000C1F3C202062A1DD248F62A21C0F6000177
:1052600016E000BF44F20041C4F20001884205D0BC
:1052700044F60001C4F2000188420BD1DCF80010B2
:1052800001F00702062A05D248F62421C0F60001E3
:105290008B181B78704540F60010C0F23D0000F0FE
:1052A0005380B7F5004F40F07B80402B4FF0010159
:1052B00000F28781DFE813F042000C0185018501CF
:1052C0001001850185018501160185018501850192
:1052D00085018501850185011E0185018501850105
:1052E000850185018501850185018501850185018E
:1052F00085018501850185012E01850185018501D5
:10530000850185018501850185018501850185016D
:10531000850185018501850185018501850185015D
:10532000850185018501850185018501850185014D
:1053300085018501850185012C0100BFFEF714F868
:10534000002840F0D58038E19A1E01211E2A00F283
:105350007580DFE812F01F00360179003601360152
:1053600036017F003601360136013601360136013D
:105370003601890036013601360136013601360123
:105380003601360136013601360136013601360165
:1053900036019600FCF7B8FF002840F062800CE16F
:1053A000402B4FF0010100F20C81DFE813F04100C7
:1053B000CF000A010A01D3000A010A010A01D9003B
:1053C0000A010A010A010A010A010A010A01E100AF
:1053D0000A010A010A010A010A010A010A010A0175
:1053E0000A010A010A010A010A010A010A01F1007F
:1053F0000A010A010A010A010A010A010A010A0155
:105400000A010A010A010A010A010A010A010A0144
:105410000A010A010A010A010A010A010A010A0134
:105420000A010A010A010A010A010A010A01EF0040
:10543000FDF79AFF002840F09880BEE0402B40F036
:10544000C0804FF400401CE06846FCF771FF0198F3
:1054500038B9B2E06846FDF703F80198002800F07B
:10546000AC80656A0DE000BF5CF8540C800649F220
:105470000000C0F2D03004D55CF8541CC1F3C10167
:10548000C84048F618316268C0F6000131F81510BE
:10549000B0FBF1F002EB420188424FF00101C0F095
:1054A00090801303984200F28C80010E00230002CA
:1054B00010EB520041F10001FAF718FF4FF60052CD
:1054C000A0F54071C0F20F02914274D378E000BFA2
:1054D000FDF77AFF60B970E06846FCF729FF019894
:1054E00030B96AE06846FCF7BBFF0198002864D039
:1054F000656A0FE05CF8540C800649F20000C0F2C7
:10550000D03007D55CF8541CC1F3C101C84001E09C
:105510004FF4004048F61831C0F6000131F815107C
:10552000B0FBF1F061684A0802EB40004FF6EF7201
:10553000B0FBF1F0A0F11001914241D84FF6F071AB
:105540000140C0F34200084435E000BFFDF73CFFD6
:1055500058B932E06846FCF7EBFE019828B92CE018
:105560006846FCF77DFF019838B3656A10E000BF1C
:105570005CF8540C800649F20000C0F2D03007D528
:105580005CF8541CC1F3C101C84001E04FF4004075
:1055900048F618316268C0F6000131F81510B0FB0A
:1055A000F1F000EB5200B0FBF2F0A0F110014FF669
:1055B000EF72914204D82168C860002101E000BF69
:1055C00001214FF00110A0660020C4E91D0008462B
:1055D00003B0F0BD020408102040000000000000ED
:1055E0002DE9F041804600680D46C7693940491BE6
:1055F000B1FA81F14909914225D1069C34B316468E
:10560000611C29D1C1692940491BB1FA81F14909BD
:10561000B14218D1C1692940491BB1FA81F1490948
:10562000B14201BFC1692940491BB1FA81F104BFF0
:105630004909B14207D1C1692940491BB1FA81F139
:105640004909B142DED00020BDE8F081FCF7BCFC86
:105650000320BDE8F08100BF1F4607E0C069284075
:10566000401BB0FA80F04009B042ECD1FCF7ACFC32
:10567000C01BA04200F2B680D8F8000001684907BC
:10568000ECD5402D18BF802DE8D0C169090700F185
:10569000AD80C1690905E1D54FF400610162D8F818
:1056A000000050E8000FD8F8001020F4907041E896
:1056B000000222B3D8F8000050E8000FD8F800101C
:1056C00020F4907041E80002002A1FBFD8F80000C3
:1056D00050E8000FD8F8001020F490701CBF41E88B
:1056E0000002002A0BD0D8F8000050E8000FD8F8CC
:1056F000001020F4907041E80002002ACFD14FF64C
:10570000FE70CEF6FF70D8F8001051E8021FD8F8EE
:105710000020014042E802130BB3D8F8001051E812
:10572000021FD8F80020014042E80213002B1FBFDF
:10573000D8F8001051E8021FD8F8002001401CBF23
:1057400042E80213002B0AD0D8F8001051E8021FDB
:10575000D8F80020014042E80213002BD3D1D8F83A
:105760006C0001282FD1D8F8000050E8000FD8F8BD
:10577000001020F0100041E8000222B3D8F8000029
:1057800050E8000FD8F8001020F0100041E80002A7
:10579000002A1FBFD8F8000050E8000FD8F800100A
:1057A00020F010001CBF41E80002002A0BD0D8F8FE
:1057B000000050E8000FD8F8001020F0100041E879
:1057C0000002002ACFD12020C8F88C000021C8F8A0
:1057D0006C10C8F87410C8F89000032088F8841082
:1057E000BDE8F0810320BDE8F08100BF082101621F
:1057F000D8F8000050E8000FD8F8001020F490709E
:1058000041E8000222B3D8F8000050E8000FD8F8B1
:10581000001020F4907041E80002002A1FBFD8F861
:10582000000050E8000FD8F8001020F490701CBF62
:1058300041E80002002A0BD0D8F8000050E8000F21
:10584000D8F8001020F4907041E80002002ACFD16F
:105850004FF6FE70CEF6FF70D8F8001051E8021F28
:10586000D8F80020014042E802130BB3D8F800102A
:1058700051E8021FD8F80020014042E80213002B33
:105880001FBFD8F8001051E8021FD8F800200140CF
:105890001CBF42E80213002B0AD0D8F8001051E8D0
:1058A000021FD8F80020014042E80213002BD3D198
:1058B000D8F86C0001282FD1D8F8000050E8000F6C
:1058C000D8F8001020F0100041E8000222B3D8F808
:1058D000000050E8000FD8F8001020F0100041E858
:1058E0000002002A1FBFD8F8000050E8000FD8F8C7
:1058F000001020F010001CBF41E80002002A0BD06D
:10590000D8F8000050E8000FD8F8001020F0100080
:1059100041E80002002ACFD12020C8F88C000020E6
:10592000C8F86C00C8F874000821C8F8901088F80E
:1059300084000120BDE8F081FEE7000000000000C7
:1059400048F63370C0F6000003F02AB800000000EB
:1059500001A003F025B800BF5B5732355131323812
:105960005D206361636865207461736B2069646C9A
:10597000650000000000000070B180B544F688208A
:10598000C2F200400168013101F07F01016003A013
:1059900002F0EEFD012080BD002070475B573235DC
:1059A000513132385D2063616368652074656C65D0
:1059B0006D65747279207374756220736C6F743DB9
:1059C00025750A000000000080B582B0019040F209
:1059D000DC10C2F2004001A901224FF0FF33FEF7B4
:1059E0000BFB019802B080BD84B001200090FCF751
:1059F000BBFB0020019048F21F70029040F20110A2
:105A000003906846FCF780FB0420FCF7BDFBFCF725
:105A1000F3FAFFF7D9F8FEF777FDFEF7EDFD00F09A
:105A200043F8FEF705FD00F067F800BFFEE7000051
:105A3000EFF3058100291CBF6FF00500704710B51A
:105A4000044602F0D9FA012806D114B1204601F02B
:105A500053FA002010BD00BFEFF3108018B9EFF328
:105A600011800028F1D06FF0050010BD000000008B
:105A7000EFF3058010B102F0D7BA00BF80B502F095
:105A8000BBFA0128BDE8804002D102F0C5BA00BFD0
:105A9000EFF310800028EED1EFF311800028EAD157
:105AA000F3E7000000000000EFF3058000281CBFB2
:105AB0006FF00500704780B502F09EFA012811D101
:105AC00002F09AFA01284FF0FF3009D140F280111C
:105AD000C2F200410A68002A02BF012008600020CB
