:020000040800F2
:100000002807002479030008711A0008311A000833
:10001000691A000851070008912600080000000036
:10002000000000000000000000000000811A00082D
:100030005907000800000000791A0008891A000812
:100040009703000897030008970300089703000828
:100050009703000897030008970300089703000818
:100060009703000897030008970300089703000808
:1000700097030008970300089703000897030008F8
:1000800097030008970300089703000897030008E8
:1000900097030008970300089703000897030008D8
:1000A00097030008970300089703000897030008C8
:1000B00097030008970300089703000897030008B8
:1000C00097030008970300089703000897030008A8
:1000D0009703000897030008970300089703000898
:1000E00061070008970300089703000897030008BA
:1000F0009703000897030008970300089703000878
:100100009703000897030008970300089703000867
:100110009703000897030008970300089703000857
:100120009703000897030008970300089703000847
:10013000970300080000000000000000970300087B
:100140009703000897030008970300089703000827
:100150009703000897030008970300089703000817
:100160009703000897030008970300089703000807
:100170009703000897030008970300080000000099
:1001800097030008970300089703000897030008E7
:1001900097030008970300089703000897030008D7
:1001A00097030008970300089703000897030008C7
:1001B00097030008970300089703000897030008B7
:1001C00097030008970300080000000000000000EB
:1001D000000000000000000097030008000000007D
:1001E000000000000000000000000000000000000F
:1001F00000000000000000009703000897030008BB
:100200009703000897030008000000009703000808
:100210009703000897030008970300089703000856
:1002200097030008970300089703000800000000E8
:1002300097030008970300080000000097030008D8
:100240009703000897030008970300089703000826
:100250009703000897030008970300089703000816
:100260009703000897030008970300089703000806
:100270009703000897030008970300080000000098
:100280009703000897030008000000009703000888
:10029000000000009703000897030008000000001A
:1002A00000000000970300089703000800F002F820
:1002B00000F052F814A696E8000CB244B344DA45B4
:1002C00001D100F049F8BAE80F000FA696E8300017
:1002D000A5EB040504EB0607AAEB0704A7F1010749
:1002E0004FEA15154FEA3414A4F10104AC4201D3CE
:1002F00000F032F813F0010F18BFFB1A43F00103AE
:1003000000F001F8DBE7184798240000B82400004B
:10031000103A24BF78C878C1FAD8520724BF30C831
:1003200030C144BF04680C60704700007047000093
:100330000023002400250026103A28BF78C1FBD8EE
:10034000520728BF30C148BF0B6070471FB502F08D
:10035000F7F91FBD10B510BD00F0ADF81146FFF75D
:10036000F5FF02F099F900F0CBF803B4FFF7F2FFC4
:1003700003BC00F0D3F800000A4880470A488047D1
:100380000A480047FEE7FEE7FEE7FEE7FEE7FEE776
:10039000FEE7FEE7FEE7FEE705480649064A074B8B
:1003A0007047000069070008691B0008AD020008DB
:1003B00028010024280700242803002428030024FF
:1003C00053EA020C00F069802DE9F04B4FF0000673
:1003D000002B1FBFB3FA83F503FA05F424FA05F6E0
:1003E0005E4012BF1643B2FA82F502FA05F4C5F177
:1003F00020051EBF22FA05FC44EA0C04203556EA0B
:10040000044C4FEA144418BF641C4FF000084FF02E
:100410000009904271EB030C39D3002919BFB1FADE
:1004200081F701FA07F6B0FA80F700FA07F6C7F18C
:1004300020071EBF20FA07FC46EA0C062037B6FB51
:10044000F4FCA7EB0507103F07F01F0BCBF12006CC
:100450002CFA06F60CFA0BFB44BFB3460026202FFD
:10046000A4BF5E464FF0000B5BEA060C08BF4FF0DE
:10047000010B19EB0B0948EB0608ABFB027C06FBF2
:1004800002CC0BFB03CCC01B71EB0C01C1E70B468C
:10049000024641464846BDE8F08B13B5084318BFF5
:1004A0004FF0FF300146AFF30080BDE81C407047BD
:1004B000704770477047754600F02CF8AE4605004F
:1004C0006946534620F00700854618B020B5FFF76F
:1004D00063FFBDE820404FF000064FF000074FF0EB
:1004E00000084FF0000BAC46ACE8C009ACE8C0090E
:1004F000ACE8C009ACE8C00921F007018D4670479F
:1005000010B50446AFF300802046BDE81040FFF769
:100510002CBF000000487047180000240149182033
:10052000ABBEFEE72600020070470000000000009E
:1005300000281CBF6FF0010070472DE9F04186B024
:1005400044F240500C46C5F6020040F60045C5F6A0
:10055000020501AE0168022741F00801016001684F
:100560004FF0070801F0080101910199016841F07D
:1005700008010160016801F0080101910199816899
:1005800041F4802181608068314600F48020019030
:1005900001984FF480700190012003902846029743
:1005A0000497CDF8148000F03FF94FF40070314605
:1005B000CDE901072846CDF8148000F035F940F266
:1005C00088002146C2F2004001F036FA002818BF28
:1005D0006FF0030006B0BDE8F081000000000000ED
:1005E00070B586B0022805D96FF00104204606B028
:1005F00070BD00BF44F240510128C5F6020109D088
:100600000A68002842F002020A60096801F002014B
:1006100007E000BF0A6842F010020A60096801F0B2
:10062000100101910024019942F27671C0F6000197
:10063000039431F81050012102910321049142F2F8
:100640007C71C0F60001019551F8206001A9304687
:1006500000F0EAF800223046294600F0D1F92046A1
:1006600006B070BD00000000022803D96FF0010041
:10067000704700BF80B542F2767142F27C72C0F6DC
:100680000001C0F6000231F8101052F8200000F00E
:10069000AFF9002080BD000070470000000000009E
:1006A00040F21C11C2F2004101EBC00000F090B812
:1006B00010B586B044F240520446C5F602021368F3
:1006C00043F00403136010684FF0020200F00400CE
:1006D000019001984FF40050019040F60000C5F6DB
:1006E00002000392049229B34FF48811029101A9E8
:1006F00000F09AF840F21C100D21C2F20040C1F245
:10070000306100EBC404204600F05AF840F2497210
:100710000021C0F60002204600F07AF828200F21C0
:10072000002200F05DFA282000F046FA002006B012
:1007300010BD00BF0021029101A900F075F8002052
:1007400006B010BD000000000020FFF7A5BF0000AC
:10075000FEE70000000000007047000000000000FD
:100760000020FFF79DBF000044F60400C5F602001C
:10077000816821F0020181600168890409D401685F
:1007800089045CBF01685FEA814102D40168890481
:10079000F2D5704700000000B0B5044600F038F90B
:1007A00040F200010546C2F20041621C097818BF00
:1007B0000C4400BF00F02CF9401BA042FAD3B0BD9E
:1007C00010B1016000207047012070470000000058
:1007D00080B501680C2240F2880E01F01F0302EA86
:1007E0009131C5F6000E4FF0010C0CFA03F35EF8E0
:1007F0002120134208BF80BD4EF82130406818B157
:10080000BDE88040004700BF80BD00000000000040
:10081000034600284FF0010003D0002904BF5A60AE
:1008200000207047000000002DE9F04F82B00D68F5
:10083000002D00F0D98000F1264242F2004702F17B
:10084000FF728305C5F602070A26B84243EA9222E0
:1008500008BF0926092A4FF0000E38BF16460027A8
:10086000009600260AE000BF01360D6835FA06F250
:1008700007F102070EF1040E00F0B680012202FA21
:1008800006F315EA0308EFD0D1F80490032209F02B
:10089000030A02FA07F4AAF10105012D14D8D0F8D1
:1008A00008B0D1E902C52BEA040BBD4045EA0B05AF
:1008B0008560C9F30015D0F804B02BEA0303B540F6
:1008C0002B43436008E000BFD1F808C0BAF1030F22
:1008D00008BFBCF1010F25D0C3684FEA460BE243C5
:1008E000A3430CFA07F4BAF1020F43EA0403C3600E
:1008F0001ED16FF003030EF01C0403EA56030F250C
:10090000034405FA04F9D3F820C00D692CEA090C58
:1009100005FA04F444EA0C051D62D1F8049009F0CC
:10092000030A05E04FF0030ABB460AFA07F3DA436D
:1009300003680AFA0BF5134019F4403F43EA050334
:10094000036091D044F2545240F20849C5F60202C5
:10095000C5F60009136843F00203136013680F2201
:1009600003F00203019326F00303019D0EF00C0532
:1009700053F809C002FA05F4009A2CEA040402FABA
:1009800005F54FF0B04C254343F80950DCF8003032
:100990004D6843EA0804EA0258BF23EA0804CCF889
:1009A000004040F2040CC5F6000CAC02DCF800205C
:1009B00042EA080358BF22EA0803AC03CCF800302F
:1009C000DCF8802042EA080358BF22EA0803ED035E
:1009D000CCF88030DCF87C2042EA080358BF22EAD9
:1009E0000803CCF87C303FE702B0BDE8F08F000090
:1009F000426902EA0103914341EA03418161704780
:100A0000002A08BF0904816170470000000000004F
:100A100040F22410C2F2004000687047000000005D
:100A200040F2000040F22411C2F20040C2F2004144
:100A300000780A6810440860704700000000000059
:100A400080B5032000F0FCF800F04EFC44F21841A1
:100A500042F26673C5F60201C0F600030A68C2F3EB
:100A600003229A5C096801F00F0102F01F02595C31
:100A7000D04040F20C02C2F2004201F01F0120FA05
:100A800001F1116040F20801C2F20041086000204B
:100A900000F00AF800281CBF012080BD00F07CF89F
:100AA000002080BD0000000070B540F20006C2F2D8
:100AB00000463178E1B1044640F20800C2F200403D
:100AC0004FF47A72B2FBF1F10068B0FBF1F000F084
:100AD0005FFF0F2C4FF0010508D838B94FF0FF30F9
:100AE00000222146002500F07BF87460284670BD86
:100AF000012070BD0000000010B54EF6A05E4178E8
:100B0000CEF2000E90F800C04EF8081CDEF800107F
:100B100021F00101CEF8001041684EF8041C017B61
:100B2000C37A827A447B1B0643EA0171837B41EAE4
:100B3000C241C27B41EA8441447A41EA4341007A9E
:100B400041EA024141EA042141EA400040EA0C0046
:100B5000CEF8000010BD00004EF62450CEF200008A
:100B6000BFF35F8F016821F48031016000210167CC
:100B700070470000000000004EF6245140F00100D4
:100B8000CEF200010867086840F480300860BFF3C7
:100B90004F8FBFF36F8F704781B044F25450C5F64A
:100BA0000200016841F002010160006800F00200EB
:100BB0000090009801B07047002848BF704700F0CF
:100BC0001F01012202FA01F14EF20012C0F34A1095
:100BD000CEF2000242F82010704700000000000032
:100BE00070B54EF60C5C4FF0FF36CEF2000C00F103
:100BF000604505F56445DCF80030C3F3022E8EF045
:100C00000703042B28BF0423BEF1030406FA03F3F1
:100C100021EA030100F00F0338BF0024043B002841
:100C2000634406FA04F048BF03F10C05A14022EA30
:100C3000000008430001287070BD000000000000A3
:100C40004EF60C514FF6FF03CEF200010A681A402F
:100C500060F30A2242F0806040F0FD700860704747
:100C600070B544F60C060446C5F6020631683068D5
:100C700001F00701062913D120F03F002043306026
:100C8000FFF7C6FE054600BF56F8080C80040DD4D9
:100C9000FFF7BEFE401BB0F57A7FF5D91DE000BF1F
:100CA00000F03F00001B18BF012070BDA4F11D0122
:100CB0000020112912D8012202FA01F111F0031FBC
:100CC0000CD0FFF7A5FE04463068C00308D4FFF738
:100CD0009FFE001BB0F57A7FF6D9012070BD00BFE2
:100CE000002070BD0000000080B500F075FA44F2ED
:100CF000204142F26672C5F60201C0F600020968A0
:100D0000C1F30211515C01F01F01C84080BD000019
:100D100080B544F2384EC5F6020E5EF8103C5EF81F
:100D2000101C5EF80C2CC1F3053CDEF80410BCF17D
:100D3000000F15D0C908D20601EAE2716FF35F31E6
:100D400000EE101A03F003010229B8EE400A0DD09C
:100D500081B95EF8381C890610D49FED361A1BE065
:100D600000218160C0E9001180BD00BF9FED301AF5
:100D700012E000BF9FED2D1A0EE000BF5EF8381C98
:100D800049F20002C0F2D032C1F3C10122FA01F1EE
:100D900001EE101AB8EE411ADEF800109FED263A67
:100DA0006FF35F2102EE101ADEF80010C1F3462146
:100DB000B8EE422A00EE032A00EE10CAB7EE003A5F
:100DC000B8EE400A81EE000A32EE031A02EE101A63
:100DD000B8EE422A20EE010A32EE031A80EE011A22
:100DE000BCEEC11A80ED001ADEF80010C1F3064116
:100DF00001EE101AB8EE411A31EE031A80EE011A14
:100E0000BCEEC11A80ED011ADEF80010C1F30661D4
:100E100001EE101AB8EE411A31EE031A80EE010A03
:100E2000BCEEC00A10EE101A816080BD0024744A26
:100E30000024F44A0024744C000000390000000033
:100E400080B544F2404EC5F6020E5EF8183C5EF8DE
:100E5000181C5EF8142CC1F3055CDEF80410BCF11C
:100E6000000F15D0C908D20501EAE2716FF35F31B6
:100E700000EE101A03F003010229B8EE400A0DD06B
:100E800081B95EF8401C890610D49FED361A1BE02C
:100E900000218160C0E9001180BD00BF9FED301AC4
:100EA00012E000BF9FED2D1A0EE000BF5EF8401C5F
:100EB00049F20002C0F2D032C1F3C10122FA01F1BD
:100EC00001EE101AB8EE411ADEF800109FED263A36
:100ED0006FF35F2102EE101ADEF80010C1F3462115
:100EE000B8EE422A00EE032A00EE10CAB7EE003A2E
:100EF000B8EE400A81EE000A32EE031A02EE101A32
:100F0000B8EE422A20EE010A32EE031A80EE011AF0
:100F1000BCEEC11A80ED001ADEF80010C1F30641E4
:100F200001EE101AB8EE411A31EE031A80EE011AE2
:100F3000BCEEC11A80ED011ADEF80010C1F30661A3
:100F400001EE101AB8EE411A31EE031A80EE010AD2
:100F5000BCEEC00A10EE101A816080BD0024744AF5
:100F60000024F44A0024744C000000390000000002
:100F70002DE9F04381B0002800F02A8142F20008F8
:100F80000446C5F200288946D8F8000000F00F009A
:100F900088420ED2D8F8000020F00F0040EA090085
:100FA000C8F80000D8F8000000F00F00484540F0F5
:100FB0000F81206844F218474107C5F602070AD599
:100FC00021693A6802F07002914204D93A6822F02D
:100FD00070021143396001070AD561697A6802F02D
:100FE0007002914204D97A6822F07002114379604C
:100FF000C1060AD5A1697A6802F4E062914204D977
:101000007A6822F4E0621143796081060AD5E169C9
:10101000BA6802F07002914204D9BA6822F07002F4
:101020001143B96010F002010AD0E2683B6803F096
:101030000F039A4204D93B6823F00F031A433A6026
:10104000C20746D03968D4E9010221F47061012851
:1010500041EA0201396009D003280DD0022811D1DC
:1010600057F8181C890312D4B2E000BF57F8181CB7
:10107000C9050CD4ACE000BF57F8181C890106D490
:10108000A6E000BF57F8181C490740F1A18057F8A7
:10109000081C21F00701084347F8080CFFF7B8FCCB
:1010A000064641F2883500BF57F8080C616800F029
:1010B0003800B0EBC10F09D0FFF7AAFC801BA84293
:1010C000F2D9032001B0BDE8F08300BF206800F032
:1010D000020151B1E1683A6802F00F02914204D274
:1010E0003A6822F00F0211433960D8F8001001F07D
:1010F0000F0149450DD9D8F8001021F00F0141EA40
:101100000901C8F80010D8F8001001F00F01494596
:101110005ED141070AD521693A6802F07002914216
:1011200004D23A6822F070021143396001070AD5EF
:1011300061697A6802F07002914204D27A6822F002
:10114000700211437960C1060AD5A1697A6802F478
:10115000E062914204D27A6822F4E062114379603D
:1011600080060AD5E069B96801F07001884204D2AE
:10117000B96821F070010843B86000F0B5F839682B
:1011800042F26672C0F60002C1F30321515C3B6873
:1011900003F00F0301F01F01D25C20FA01F102F00D
:1011A0001F0040F20C02C2F2004221FA00F010606F
:1011B00040F2040040F20802C2F20040C2F20042D3
:1011C0000068116001B0BDE8F043FFF76DBC00BFDF
:1011D000012001B0BDE8F08380B500F085F844F24D
:1011E000184142F26673C5F60201C0F600030A68B0
:1011F000C2F303229A5C096801F00F0102F01F029A
:10120000595C20FA02F201F01F0040F20C01C2F218
:10121000004122FA00F0086040F20801C2F20041E9
:101220000A6080BD0000000080B500F05DF844F267
:10123000184C42F26673C5F6020CC0F60003DCF8E7
:101240000020C2F303229A5CDCF8001001F00F01C9
:1012500002F01F02595CD04040F20C02C2F2004280
:1012600001F01F0120FA01F1116040F20802C2F200
:1012700000421060DCF80400C0F30210185C00F0BB
:101280001F0021FA00F080BD80B500F02DF844F277
:10129000184C42F26673C5F6020CC0F60003DCF887
:1012A0000020C2F303229A5CDCF8001001F00F0169
:1012B00002F01F02595CD04040F20C02C2F2004220
:1012C00001F01F0120FA01F1116040F20802C2F2A0
:1012D00000421060DCF80400C0F30220185C00F04B
:1012E0001F0021FA00F080BD44F20041C5F6020162
:1012F0000869C0F3C200032810D002282ED098BB82
:101300000868800649F20000C0F2D03058BF70472C
:101310000968C1F3C101C840704700BF8A6A886A82
:10132000C0F3051CC86ABCF1000F4B6B22D000F063
:10133000010002F003024042022A00EAD3006FF3E8
:101340005F3000EE100AB8EE400A15D0C2B9086846
:10135000800619D49FED281A23E000BF41F2002037
:10136000C0F27A00704700BF40F60010C0F23D00A6
:10137000704700BF002070479FED1E1A11E000BFAC
:101380009FED1B1A0DE000BF086849F20002C0F291
:10139000D032C0F3C10022FA00F001EE100AB8EE1C
:1013A000411A086B9FED153A6FF35F2002EE100AA9
:1013B000086BC0F34620B8EE422A013000EE032A43
:1013C00000EE10CAB7EE003AB8EE400A81EE000A0D
:1013D00032EE031A20EE010A01EE100AB8EE411AAD
:1013E00080EE010ABCEEC00A10EE100A704700BF82
:1013F0000024744A0024F44A0024744C000000398C
:1014000070B3F0B581B00446007844F20046C007DE
:10141000C5F6020626D12078800774D5306910F011
:101420003801B06A3ED0182908BF5FEA807039D011
:10143000E0683168002800F0358121F01901084387
:101440003060FFF7E5FA05463068400754D4FFF7EF
:10145000DFFA401B0228F7D9032001B0F0BD00BF1E
:1014600001207047306900F03801B06A102905D0BA
:1014700018290BD100F00300022807D1306880033F
:10148000C9D560680028C6D1B4E000BF6068B0F577
:10149000A02F23DA002800F06981B0F5803F00F02A
:1014A00089818BE130684007E06802D5002800F0B0
:1014B000A180316821F0190108433060FFF7A8FAD4
:1014C000054600BF3068400716D4FFF7A1FA401B5D
:1014D00002284FF00300F5D901B0F0BD00F06281A1
:1014E000B0F5A81F40F06A81306840F48020306079
:1014F000306840F480105CE17068216920F0FE40A3
:1015000040EA016070602078C0061AD5306900F0AA
:101510003801B06A082907D0182940F0858000F00A
:101520000300012840F080803068C00502D5E069E2
:1015300080285FD1F068216A20F07C5040EA016089
:10154000F060207800073FD42078800656D42078B9
:10155000400700F17F80656A9DB3306900F0380074
:10156000182840F0E180012DB16A306B42D001F0C3
:101570000302A36A9A423DD1C1F30511E26A914286
:1015800038D10146226B6FF35F21013A914231D18C
:10159000C0F34622616B01398A422BD1C0F3064267
:1015A000A16B01398A4225D1C0F30660E16B013994
:1015B00088421FD1706BA16CC0F3CC00814240F017
:1015C000CD81002001B0F0BD60690028706F57D058
:1015D00040F001007067FFF71BFA0546706F800747
:1015E000B2D4FFF715FA401B0228F7D9032001B047
:1015F000F0BD00BF012001B0F0BD00BFA069002810
:1016000030686DD040F480503060FFF701FA054635
:10161000306880049BD4FFF7FBF9401B0228F7D900
:10162000032001B0F0BD00BFE0690028306869D038
:1016300040F080003060FFF7EBF905463068C005E8
:101640003FF578AFFFF7E4F9401B02284FF00300A5
:10165000F4D941E7D6F8000440F48070C6F80004DD
:10166000FFF7D6F9054600BFD6F80004C0052BD415
:10167000FFF7CEF9401B6428F6D9032001B0F0BD76
:1016800020F001007067FFF7C3F90546706F80070F
:101690007FF55AAFFFF7BCF9401B02284FF003005B
:1016A000F4D919E721F001003060FFF7B1F90546E0
:1016B000306840077FF527AFFFF7AAF9401B0228E3
:1016C0004FF00300F4D907E7A068042800F39280E4
:1016D000002800F09B80012800F0BE80C0E000BF21
:1016E00020F480503060FFF793F90546306880049D
:1016F0007FF52DAFFFF78CF9401B02284FF0030058
:10170000F4D9E9E620F080003060FFF781F9054662
:101710003068C0057FF515AFFFF77AF9401B022846
:101720004FF00300F4D9D7E6306820F080703060C5
:10173000FFF76EF9022D05460CD100BF306880011D
:1017400040F1AC80FFF764F9401B02284FF0030022
:10175000F4D9C1E6306880017FF533AFFFF758F95F
:10176000401B02284FF00300F4D9B5E6306820F49E
:1017700080303060306820F480103060306820F4B1
:1017800080203060FFF744F9054600BF30688003D1
:101790007FF541AEFFF73CF9401B64284FF0030092
:1017A000F4D999E6306840F480203060306820F445
:1017B00080103060306840F480300AE0306820F4F7
:1017C00080303060306820F480203060306820F451
:1017D00080103060FFF71CF9054600BF30688003B9
:1017E0003FF519AEFFF714F9401B6428F6D9032022
:1017F00001B0F0BD052827D0852831D1306F40F0E9
:1018000004003067306F40F0800024E0306F20F03B
:1018100001003067306F20F080003067306F20F0BB
:1018200004003067FFF7F4F8054641F28837306F5F
:1018300080077FF590AEFFF7EBF8401BB8424FF002
:101840000300F4D948E600BF306F40F00400306771
:10185000306F20F080003067306F40F001000AE008
:10186000306F20F001003067306F20F004003067E7
:10187000306F20F080003067FFF7CAF8054641F26C
:10188000883700BF306F80073FF565AEFFF7C0F8BF
:10189000401BB8424FF00300F4D91DE604F12807BD
:1018A000B06A40F2F33188438ECF0843591E40EAB4
:1018B00002104FF47E426FF35F21B06202EB4720CB
:1018C0004FF4FE0280B2E36B0844A16B02EB0141CE
:1018D0004FF0FE4201F4FE0102EB0362084402F005
:1018E000FE4108443063F06A4FF6F87120F00100C1
:1018F000F062706BA26C884340EAC2007063F06AC9
:10190000216C20F00C000843F062F06A616C20F05A
:1019100002000843F062F06A40F48030F062F06A3E
:1019200040F40030F062F06A40F48020F062F06A27
:1019300040F00100F062306840F080703060FFF7E6
:1019400067F80446306880013FF53BAEFFF760F86A
:10195000001B02284FF00300F4D9BDE5F06A20F027
:101960000100F062FFF754F80546FFF751F8A8426E
:10197000FBD0706B4FF6F871A26C884340EAC2004E
:101980007063F06A40F00100F062002001B0F0BD29
:10199000411E0020B0EB116F02D00120704700BF44
:1019A0004EF21002F023CEF2000251604EF62351A7
:1019B000CEF200010B7007219060116070470000AB
:1019C00010B5D8B10446D0F8880028B9002084F8B2
:1019D0008400204600F028F82420C4F888002068FD
:1019E000A16A0268002922F00101016002D02046AC
:1019F00000F026F9204600F04FFA08B1012010BD92
:101A00002068416821F490414160816821F02A01F9
:101A10008160016841F0010101602046BDE810408D
:101A200000F07EB9000000007047000000000000D8
:101A3000FEE700000000000040F21002C2F2004287
:101A400012680260D1E9002342600C2242614A8997
:101A500002610A8989898360C26081614FF4004113
:101A6000C161FFF7ADBF0000FEE70000000000000D
:101A7000FEE70000000000007047000000000000CA
:101A80007047000000000000FEF7CABF0000000021
:101A9000B0B59CB044F618044FF69840C5F6020461
:101AA000CFF6FF704FF6FF710025CDE91055CDE957
:101AB0000E55CDE90C55CDE90A550895CEF2030136
:101AC000CDE90655CDE90455CDE9025501952150E2
:101AD0000420FFF7C5F80095206840F440402060DE
:101AE000206800F44040009000982068800409D4E9
:101AF000206880045CBF20685FEA804002D42068D0
:101B00008004F2D50220099001210C911290002549
:101B100004212322CDE91520CDE917100C20402403
:101B2000CDE9190509A80D94139514911B95FFF79C
:101B300067FC18B172B600BFFEE700BF3F200190FE
:101B400003200621CDE902054FF480600694CDE91B
:101B5000070401A8CDE90454FFF70AFA10B172B6E0
:101B6000FEE700BF1CB0B0BD4EF6885042F2000C3C
:101B7000CEF20000C5F2002C026842F4700202604E
:101B8000DCF8000000F00F00022806D8DCF80000A6
:101B9000032262F30300CCF8000044F200404EF64A
:101BA0007F51C5F60200CEF6F621026842F001022E
:101BB000026000220261036819400160DCF8001035
:101BC00011F00C0F06D0DCF80010032363F30301BF
:101BD000CCF8001040F200218261C261C0F2022103
:101BE000026281620021C0F2FF11C16240F28021D5
:101BF000C0F20111016342638163C2630164426404
:101C0000016821F4802101600266D0F83411C90412
:101C100048BF7047D0F8341143F2D20241F48051EA
:101C2000C0F8341144F20001C5F200210A60D0F876
:101C3000341121F48051C0F83411704700000000C5
:101C4000816A0A070CD4CA0715D18A071ED44A072D
:101C500027D4CA0630D48A0639D44A0642D454E07E
:101C60000268D0F838C0536823F4004343EA0C03F9
:101C70005360CA07E9D00268D0F82CC0536823F437
:101C8000003343EA0C0353608A07E0D50268D0F8BA
:101C900030C0536823F4803343EA0C0353604A078F
:101CA000D7D50268D0F834C0536823F4802343EAC0
:101CB0000C035360CA06CED50268D0F83CC09368C6
:101CC00023F4805343EA0C0393608A06C5D5026867
:101CD000D0F840C0936823F4005343EA0C039360A8
:101CE0004A0612D50268D0F844C0BCF5801F53687C
:101CF00023F4801343EA0C03536006D1536823F4A2
:101D0000C00C836C43EA0C035360090658BF70474C
:101D10000168C06C4A6822F4002210434860704792
:101D2000B0B582B004460020C4F89000FEF770FE03
:101D3000216805460A68120737D54FF400110022C2
:101D40006FF07E40009020462B4600F0F5FA58B325
:101D5000206850E8000F216820F0800041E8000270
:101D6000F2B1206850E8000F216820F0800041E8BF
:101D70000002002A1FBF206850E8000F216820F0F1
:101D800080001CBF41E80002002A09D0206850E80A
:101D9000000F216820F0800041E80002002AD7D11E
:101DA0002020C4F8880062E021680868400765D5F3
:101DB0004FF4800100226FF07E40009020462B46B9
:101DC00000F0BAFA002859D0206850E8000F2168C6
:101DD00020F4907041E80002F2B1206850E8000F52
:101DE000216820F4907041E80002002A1FBF20689B
:101DF00050E8000F216820F490701CBF41E80002F9
:101E0000002A09D0206850E8000F216820F4907063
:101E100041E80002002AD7D1206850E8020F21686B
:101E200020F0010041E80202F2B1206850E8020F00
:101E3000216820F0010041E80202002A1FBF20684B
:101E400050E8020F216820F001001CBF41E80202A7
:101E5000002A09D0206850E8020F216820F0010014
:101E600041E80202002AD7D12020C4F88C000320C8
:101E7000002184F8841002B0B0BD00BF2020C4F857
:101E80008800C4F88C000020E0662067002184F8F8
:101E9000841002B0B0BD0000F0B583B00446006805
:101EA00046F6F31640F6004E22696569D4E902133E
:101EB0000A43E7690168CCF6FF762A4331401143B3
:101EC000C5F6000E394301604168704521F4405168
:101ED00044F2544C41EA03014160A2694FF2FF43CE
:101EE0001CBF216A0A438168C1F2FF131940C5F67D
:101EF000020C1143816047F6FF32C16AC4F200024E
:101F000021F00F01656A90424FF0800341EA05011C
:101F1000C16219DD41F2FF71C4F20101884229DC7E
:101F200047F60041C4F20001884253D041F200015B
:101F3000C4F20101884235D041F20041C4F20101EE
:101F400088422FD052E000BF44F6FF31C4F20001B6
:101F5000884233DD44F60041C4F20001884239D0A2
:101F600045F20001C4F20001884233D047F6000177
:101F70002CE000BF41F60001C4F20101884211D0FB
:101F800041F60041C4F2010188420BD070452DD1C9
:101F9000DCF8041001F00702062A27D20FF28C3178
:101FA00022E000BFDCF80010C1F3C202062A1DD2F5
:101FB00042F26071C0F6000116E000BF44F2004139
:101FC000C4F20001884205D044F60001C4F20001C9
:101FD00088420BD1DCF8001001F00702062A05D276
:101FE00042F25A71C0F600018B181B78704540F61A
:101FF0000010C0F23D0000F05380B7F5004F40F0F4
:102000007B80402B4FF0010100F28781DFE813F065
:1020100042000C01850185011001850185018501C2
:1020200016018501850185018501850185018501EF
:102030001E018501850185018501850185018501D7
:102040008501850185018501850185018501850160
:102050002E018501850185018501850185018501A7
:102060008501850185018501850185018501850140
:102070008501850185018501850185018501850130
:102080008501850185018501850185018501850120
:102090002C0100BFFFF7C8F8002840F0D58038E1D8
:1020A0009A1E01211E2A00F27580DFE812F01F003F
:1020B000360179003601360136017F0036013601DE
:1020C0003601360136013601360189003601360106
:1020D0003601360136013601360136013601360148
:1020E000360136013601360136019600FEF7FCFD59
:1020F000002840F062800CE1402B4FF0010100F21B
:102100000C81DFE813F04100CF000A010A01D3007F
:102110000A010A010A01D9000A010A010A010A0199
:102120000A010A010A01E1000A010A010A010A0181
:102130000A010A010A010A010A010A010A010A0147
:102140000A010A010A01F1000A010A010A010A0151
:102150000A010A010A010A010A010A010A010A0127
:102160000A010A010A010A010A010A010A010A0117
:102170000A010A010A010A010A010A010A010A0107
:102180000A010A010A01EF00FFF74EF8002840F0AB
:102190009880BEE0402B40F0C0804FF400401CE02F
:1021A0006846FEF7B5FD019838B9B2E06846FEF71B
:1021B00047FE0198002800F0AC80656A0DE000BF82
:1021C0005CF8540C800649F20000C0F2D03004D50F
:1021D0005CF8541CC1F3C101C84042F288716268C6
:1021E000C0F6000131F81510B0FBF1F002EB42012E
:1021F00088424FF00101C0F090801303984200F232
:102200008C80010E0023000210EB520041F100010E
:10221000FEF7D6F84FF60052A0F54071C0F20F025B
:10222000914274D378E000BFFFF72EF860B970E0F8
:102230006846FEF76DFD019830B96AE06846FEF722
:10224000FFFD0198002864D0656A0FE05CF8540C2B
:10225000800649F20000C0F2D03007D55CF8541C6B
:10226000C1F3C101C84001E04FF4004042F288715F
:10227000C0F6000131F81510B0FBF1F061684A08B2
:1022800002EB40004FF6EF72B0FBF1F0A0F110014D
:10229000914241D84FF6F0710140C0F3420008442A
:1022A00035E000BFFEF7F0FF58B932E06846FEF7B0
:1022B0002FFD019828B92CE06846FEF7C1FD019872
:1022C00038B3656A10E000BF5CF8540C800649F230
:1022D0000000C0F2D03007D55CF8541CC1F3C10136
:1022E000C84001E04FF4004042F288716268C0F6D5
:1022F000000131F81510B0FBF1F000EB5200B0FB1B
:10230000F2F0A0F110014FF6EF72914204D821686B
:10231000C860002101E000BF01214FF00110A0665C
:102320000020C4E91D00084603B0F0BD02040810F7
:1023300020400000000000002DE9F04180460068C8
:102340000D46C7693940491BB1FA81F149099142EB
:1023500025D1069C34B31646611C29D1C169294098
:10236000491BB1FA81F14909B14218D1C16929402B
:10237000491BB1FA81F14909B14201BFC169294044
:10238000491BB1FA81F104BF4909B14207D1C169C2
:102390002940491BB1FA81F14909B142DED0002040
:1023A000BDE8F081FEF734FB0320BDE8F08100BFFB
:1023B0001F4607E0C0692840401BB0FA80F0400982
:1023C000B042ECD1FEF724FBC01BA04200F2B68065
:1023D000D8F8000001684907ECD5402D18BF802DC2
:1023E000E8D0C169090700F1AD80C1690905E1D5EF
:1023F0004FF400610162D8F8000050E8000FD8F8EF
:10240000001020F4907041E8000222B3D8F80000D8
:1024100050E8000FD8F8001020F4907041E8000256
:10242000002A1FBFD8F8000050E8000FD8F80010AD
:1024300020F490701CBF41E80002002A0BD0D8F8AD
:10244000000050E8000FD8F8001020F4907041E828
:102450000002002ACFD14FF6FE70CEF6FF70D8F8FA
:10246000001051E8021FD8F80020014042E8021392
:102470000BB3D8F8001051E8021FD8F80020014033
:1024800042E80213002B1FBFD8F8001051E8021FCA
:10249000D8F8002001401CBF42E80213002B0AD0EC
:1024A000D8F8001051E8021FD8F80020014042E897
:1024B0000213002BD3D1D8F86C0001282FD1D8F803
:1024C000000050E8000FD8F8001020F0100041E89C
:1024D000000222B3D8F8000050E8000FD8F800102E
:1024E00020F0100041E80002002A1FBFD8F80000C9
:1024F00050E8000FD8F8001020F010001CBF41E891
:102500000002002A0BD0D8F8000050E8000FD8F8DD
:10251000001020F0100041E80002002ACFD1202056
:10252000C8F88C000021C8F86C10C8F87410C8F8FE
:102530009000032088F88410BDE8F0810320BDE8F6
:10254000F08100BF08210162D8F8000050E8000FB8
:10255000D8F8001020F4907041E8000222B3D8F8B7
:10256000000050E8000FD8F8001020F4907041E807
:102570000002002A1FBFD8F8000050E8000FD8F86A
:10258000001020F490701CBF41E80002002A0BD01C
:10259000D8F8000050E8000FD8F8001020F4907030
:1025A00041E80002002ACFD14FF6FE70CEF6FF7050
:1025B000D8F8001051E8021FD8F80020014042E886
:1025C00002130BB3D8F8001051E8021FD8F800200E
:1025D000014042E80213002B1FBFD8F8001051E859
:1025E000021FD8F8002001401CBF42E80213002B54
:1025F0000AD0D8F8001051E8021FD8F80020014096
:1026000042E80213002BD3D1D8F86C0001282FD157
:10261000D8F8000050E8000FD8F8001020F01000A3
:1026200041E8000222B3D8F8000050E8000FD8F8C3
:10263000001020F0100041E80002002A1FBFD8F867
:10264000000050E8000FD8F8001020F010001CBF68
:1026500041E80002002A0BD0D8F8000050E8000F33
:10266000D8F8001020F0100041E80002002ACFD175
:102670002020C8F88C000020C8F86C00C8F874004E
:102680000821C8F8901088F884000120BDE8F08186
:10269000FEE700000000000084B001200090FEF77B
:1026A0005BFA48F21F70029040F2011003906846F6
:1026B00000240194FEF720FA0420FEF75DFAFEF7ED
:1026C000BFF9FFF7E5F944F24050C5F60200016892
:1026D00041F004010160016801F0040100910099DA
:1026E000016841F080010160006800F08000009006
:1026F00000980020FDF774FF0120FDF771FF022014
:10270000FDF76EFF00200121FDF7D2FF40F27801B6
:102710004FF4E130C2F20041C1E9000400208C60B6
:102720008C81FDF705FF18B172B600BFFEE700BF50
:102730000020FDF799FF4FF4FA70FEF72DF8F7E748
:10274000F1EE100A4FF6FF71C0F2C03120EA01002D
:1027500040F04070E1EE100A70470004081020407D
:1027600001040810204000000000010203040102DF
:102770000304060708090100020000400004025893
:102780000010025800040258010002000400060074
:1027900008000A000C00100020004000800000012A
:1027A000C0270008000000241800000010030008E3
:1027B000D827000818000024100700003003000884
:1027C00001000000100000000090D0030090D00332
:0827D000004800400000000079
:04000005080002AD40
:00000001FF
